:100000000C94A1040C94C9040C94C9040C94C90464
:100010000C94C9040C94C9040C94C9040C94C9042C
:100020000C94C9040C94C9040C9405110C94771118
:100030000C94C9040C94C9040C94C9040C94C9040C
:100040000C94C9040C94C9040C94C9040C94C904FC
:100050000C94C9040C94C9040C94C9040C944B0668
:100060000C94C9040C94C9040C94C9040C94C904DC
:100070000C94C9040C94C9040C94C9040C94C904CC
:100080000C9495060C94C9040C94C9040C94C904EE
:100090000C94C9040C94C9040C94C9040C94C904AC
:1000A0000C94C9040C94C9040C94C904F0F89C8EF7
:1000B0008783878E9CF8F00000FEFF030303030391
:1000C000070EFCF80000FEFF0303030303070EFC0A
:1000D000F80000FFFF00000000000000FFFF00002C
:1000E000FEFF8383838383C7EE7C380000F8FC0E19
:1000F00007030303070EFCF800003F7FE0C0808089
:10010000C0E07F3FFFFF01010101010101FFFF008E
:1001100000FFFF0C0C0C0C1C3E77E3C100007FFFBE
:10012000C0C0C0C0C0E0703F1F00001F3F70E0C0F3
:10013000C0C0E0703F1F00007FFFC1C1C1C1C1E36B
:10014000773E1C00001F3F70E0C0C0C0E0703F1F42
:10015000000000000001FFFF01000000D5F08D1439
:10016000A1C881CFD9F1AF20004849474820534367
:100170004F524500040A090606090906020D090640
:10018000060A090F18264181824224181824444285
:100190004222221C3C4283818182621C265A814277
:1001A0004181413E0000C0300C02020202040404FE
:1001B00008F0000000000003041820202020101088
:1001C000080807000080601008040202020202040E
:1001D0000830C0000001020C1020404040402010B8
:1001E000080403000000C0300C0404020204040CE4
:1001F00030C00000000F1020202020404040201080
:100200000804030000C040404080806018040204DD
:100210000830C00000030C10202040404040242A39
:100220001201010045524541534520444F4E4500BF
:10023000574F524B494E472E2E2E00535441525485
:10024000203D205249474854202B2042004552452A
:10025000415345204849474853434F52453F00507A
:1002600041555345002000200003030201FFFEFD1D
:10027000FEFF01020303FDFEFF0102030201FFFE78
:10028000FD03030303030303FDFDFDFDFDFDFDFD74
:10029000FDFDFD0303030303030002030303040442
:1002A000040303030200FEFDFDFDFCFCFCFDFDFD5F
:1002B000FEFCFCFDFDFDFE00020303030404040339
:1002C00003030200FEFDFDFDFCFDFDFDFDFDFDFD4A
:1002D000FDFDFDFDFDFD0303030303030303030312
:1002E00003030201FFFEFDFD030201FFFEFDFEFF11
:1002F000010203FDFDFEFF010200000000CDCC4C19
:10030000BECDCC4C3D5C8F42BECDCCCC3D7B142EC3
:10031000BE295C0F3E295C0FBE7B142E3ECDCCCC9B
:10032000BD5C8F423ECDCC4CBDCDCC4C3E000000E0
:10033000005C8F423ECDCC4C3D7B142E3ECDCCCCD0
:100340003D295C0F3E295C0F3ECDCCCC3D7B142E6D
:100350003ECDCC4C3D5C8F423E00000000CDCC4CED
:100360003ECDCC4CBD5C8F423ECDCCCCBD7B142E63
:100370003E295C0FBE295C0F3E7B142EBECDCCCC3B
:100380003D5C8F42BECDCC4C3DCDCC4CBE00000080
:10039000005C8F42BECDCC4CBD7B142EBECDCCCCF0
:1003A000BD295C0FBE295C0FBECDCCCCBD7B142E0D
:1003B000BECDCC4CBD5C8F42BE41535445524F49DB
:1003C00044530000000000003E5B4F5B3E3E6B4F1D
:1003D0006B3E1C3E7C3E1C183C7E3C181C577D57D7
:1003E0001C1C5E7F5E1C00183C1800FFE7C3E7FF83
:1003F0000018241800FFE7DBE7FF30483A060E2616
:1004000029792926407F050507407F05253F5A3C6D
:10041000E73C5A7F3E1C1C08081C1C3E7F14227FB0
:1004200022145F5F005F5F06097F017F0066899588
:100430006A606060606094A2FFA29408047E040871
:1004400010207E201008082A1C08081C2A08081EF4
:10045000101010100C1E0C1E0C30383E3830060EDA
:100460003E0E06000000000000005F0000000700D4
:100470000700147F147F14242A7F2A122313086490
:100480006236495620500008070300001C22410034
:100490000041221C002A1C7F1C2A08083E08080074
:1004A0008070300008080808080000606000201014
:1004B0000804023E5149453E00427F4000724949CE
:1004C00049462141494D331814127F1027454545AF
:1004D000393C4A49493141211109073649494936D0
:1004E000464949291E000014000000403400000065
:1004F0000814224114141414140041221408020197
:100500005909063E415D594E7C1211127C7F4949C2
:1005100049363E414141227F4141413E7F4949495F
:10052000417F090909013E414151737F0808087F55
:1005300000417F41002040413F017F081422417F5C
:10054000404040407F021C027F7F0408107F3E41F4
:1005500041413E7F090909063E4151215E7F09194B
:100560002946264949493203017F01033F40404063
:100570003F1F2040201F3F4038403F631408146352
:1005800003047804036159494D43007F414141020E
:1005900004081020004141417F0402010204404050
:1005A000404040000307080020545478407F28440E
:1005B00044383844444428384444287F38545454F8
:1005C0001800087E090218A4A49C787F0804047807
:1005D00000447D40002040403D007F102844000042
:1005E000417F40007C047804787C08040478384417
:1005F000444438FC1824241818242418FC7C0804CB
:100600000408485454542404043F44243C404020EB
:100610007C1C2040201C3C4030403C442810284496
:100620004C9090907C4464544C4400083641000047
:1006300000770000004136080002010204023C2657
:1006400023263C1EA1A161123A4040207A3854541E
:1006500055592155557941215454784121555478A3
:100660004020545579400C1E527212395555555937
:10067000395454545939555454580000457C41005C
:1006800002457D420001457C40F0292429F0F028F4
:100690002528F07C545545002054547C547C0A098C
:1006A0007F4932494949323248484832324A4848FB
:1006B000303A4141217A3A42402078009DA0A07D05
:1006C00039444444393D4040403D3C24FF242448C3
:1006D0007E4943662B2FFC2F2BFF0929F620C0886B
:1006E0007E090320545479410000447D413048483C
:1006F0004A32384040227A007A0A0A727D0D193156
:100700007D2629292F28262929292630484D4020B1
:10071000380808080808080808382F10C8ACBA2F8D
:10072000102834FA00007B000008142A1422221436
:100730002A14089500220095AA005500AAAA55AAD5
:1007400055AA000000FF00101010FF00141414FF41
:10075000001010FF00FF1010F010F0141414FC0033
:100760001414F700FF0000FF00FF1414F404FC143D
:100770001417101F10101F101F1414141F00101036
:1007800010F0000000001F101010101F10101010AB
:10079000F010000000FF101010101010101010FFCB
:1007A00010000000FF140000FF00FF00001F1017E2
:1007B0000000FC04F414141710171414F404F400CB
:1007C00000FF00F714141414141414F700F7141491
:1007D00014171410101F101F141414F4141010F018
:1007E00010F000001F101F0000001F14000000FC8C
:1007F000140000F010F01010FF10FF141414FF1478
:100800001010101F00000000F010FFFFFFFFFFF0AE
:10081000F0F0F0F0FFFFFF0000000000FFFF0F0FFF
:100820000F0F0F38444438447C2A2A3E147E0202BB
:100830000606027E027E0263554941633844443C09
:1008400004407E201E2006027E020299A5E7A5999B
:100850001C2A492A1C4C7201724C304A4D4D3030D2
:1008600048784830BC625A463D3E494949007E01BD
:1008700001017E2A2A2A2A2A44445F444440514ADC
:10088000444040444A51400000FF0103E080FF0023
:100890000008086B6B083612362436060F090F065F
:1008A000000018180000001010003040FF01010087
:1008B0001F01011E00191D1712003C3C3C3C0000AA
:1008C0000000000102040810204080080B00020212
:1008D00002010009040000010202000005240010CA
:1008E0000105240101010424020605240600010774
:1008F00005810310004009040100020A00000007FE
:1009000005020240000007058302400000040309BD
:100910000412010002EF0201404123368000010170
:1009200002030141726475696E6F204C4C430041B3
:10093000726475696E6F204C656F6E6172646F00D2
:100940006E2B11241FBECFEFDAE0DEBFCDBF11E06A
:10095000A0E0B1E0EEEFFDE502C005900D92AA34F3
:10096000B107D9F72AE0AAE4B1E001C01D92AF3186
:10097000B207E1F714E0C1EAD4E004C02197FE0118
:100980000E94F22EC03AD107C9F70E94A7130C9417
:10099000FD2E0C940000CF92DF92EF92FF920F9306
:1009A0001F93CF93DF936C017A018B01C0E0D0E0FD
:1009B000CE15DF0589F0D8016D918D01D601ED913D
:1009C000FC910190F081E02DC6010995892B11F46D
:1009D0007E0102C02196ECCFC701DF91CF911F911C
:1009E0000F91FF90EF90DF90CF90089580917B055D
:1009F000E0917905F0917A05882349F0CF010296BC
:100A000090937A0580937905859194910895CF010B
:100A1000029690937A05809379058081918108955B
:100A2000CF92DF92EF92FF920F931F93CF93DF93BA
:100A30000E94F604811520E8920761F4809171000C
:100A40008D7F809371001092910046984798109284
:100A500078058BC021E020937805813020E892074B
:100A600051F4809176059091770590937A05809363
:100A700079050E94F60497FD05C020917505222393
:100A800009F43FC02091740521113BC021E020935F
:100A90007C05EC01DF77209769F481E080937D0588
:100AA00046983FE9C32E3FE0D32EE12CF12CCAEF4C
:100AB000D0E014C08E0120E030E060E472E48FE00A
:100AC00090E0A90198010E94622C69017A0181E0FD
:100AD000C81AD108E108F10810927D05E0919D093E
:100AE000F0919E090995811103C081E080937D05F5
:100AF00080917C058823B9F180917D05811133C0F7
:100B000003C010927C05C5CF46992DC0479A0E941C
:100B1000F604009771F09C01DE010E94B62CDC0106
:100B2000CB0129E0B595A795979587952A95D1F79B
:100B300003C08FEF9FEFDC01109290002AE020931A
:100B40009100D0929900C092980080937E05909376
:100B50007F05A0938005B09381058091710082602C
:100B60008093710002C04798D2CFDF91CF911F913F
:100B70000F91FF90EF90DF90CF90089580915201F8
:100B800008950895089580E090E008950E94F82E59
:100B9000CF93DF9300D000D0CDB7DEB761157105DC
:100BA0008105910579F09B01AC0169833A834B8300
:100BB0005C830E943E2C29813A814B815C810E949A
:100BC000622C03C060E070E0CB010F900F900F909B
:100BD0000F90DF91CF9108953FB7F89480918305EE
:100BE00090918405A0918505B091860526B5A89BB6
:100BF00005C02F3F19F00196A11DB11D3FBFBA2FAF
:100C0000A92F982F8827820F911DA11DB11DBC010E
:100C1000CD0142E0660F771F881F991F4A95D1F7D3
:100C200008958F929F92AF92BF92CF92DF92EF92F0
:100C3000FF926B017C010E94EC054B015C01C11429
:100C4000D104E104F104F1F00E94EC05DC01CB01D8
:100C500088199909AA09BB09883E9340A105B105E5
:100C600070F321E0C21AD108E108F10888EE880E7D
:100C700083E0981EA11CB11CC114D104E104F1044D
:100C800019F7DDCFFF90EF90DF90CF90BF90AF903E
:100C90009F908F9008951F920F920FB60F9211247C
:100CA0002F933F938F939F93AF93BF9380918B0527
:100CB00090918C05A0918D05B0918E0530918205A3
:100CC00023E0230F2D3720F40196A11DB11D05C08F
:100CD00026E8230F0296A11DB11D20938205809363
:100CE0008B0590938C05A0938D05B0938E05809114
:100CF000830590918405A0918505B09186050196A4
:100D0000A11DB11D8093830590938405A093850553
:100D1000B0938605BF91AF919F918F913F912F9195
:100D20000F900FBE0F901F9018951F920F920FB645
:100D30000F9211242F933F934F935F936F937F9361
:100D40008F939F93AF93BF93EF93FF9380917E0513
:100D500090917F05A0918005B0918105892B8A2B08
:100D60008B2B81F180917D0581110BC098B180E4BE
:100D7000892788B980917C05882319F088B180582B
:100D800088B980917E0590917F05A0918005B091F2
:100D90008105181619061A061B06B4F480917E0503
:100DA00090917F05A0918005B09181050197A109DF
:100DB000B10980937E0590937F05A0938005B09341
:100DC000810502C00E941005FF91EF91BF91AF9184
:100DD0009F918F917F916F915F914F913F912F9153
:100DE0000F900FBE0F901F9018959C01E1E7F0E067
:100DF00090819D7F908310927B05EFE8F9E0F0935E
:100E00007A05E0937905F0937705E09376053183D1
:100E100020837383628380E090E8958384830C94BD
:100E200010052D9A0895BC0180E090E00C94110605
:100E30008FB12CB193B130E02095309520743327D9
:100E4000A90123E0559547952A95E1F7292F30E030
:100E50002095309520713327359527953595279521
:100E6000242B8095807F822B089583B7817F83BF59
:100E700083B7816083BF889583B78E7F83BF0895D2
:100E80008EBD00000DB407FEFDCF089510925201F3
:100E90003E983F9808953E9A3F9A81E08093520190
:100EA0000895E3ECF8E090E1969FD001A07811243A
:100EB000A80F6770E60FF11D9491A157BA4F442314
:100EC00019F08C91982B03C090958C9198239C934A
:100ED0000895EFE8F5E080E0A0E0B8E000800EBC07
:100EE0008111012C1197A0FDFDCF0192B9F7089552
:100EF000CB01BA018038910530F44034510518F423
:100F0000422F0C94510708952F923F924F925F9277
:100F10006F927F928F929F92AF92BF92CF92DF9209
:100F2000EF92FF920F931F93CF93DF93CDB7DEB76E
:100F300029970FB6F894DEBF0FBECDBFFC016A3013
:100F400069F4248D808D918D38E0239F800D911D53
:100F50001124918F808F178A168AAAC06D3009F4E8
:100F6000A7C099878887F48C338C228C608C718C15
:100F70000689178900381105C4F0A885B9855C96E3
:100F80002C915C97422F50E056968D919C915797EB
:100F9000B6E02B9F800D911D1124E885F985978B74
:100FA000868B258D21116EC083C0F0E46F1671040D
:100FB00024F7C80125E0F29E800D911D112418161A
:100FC0001906DCF68F2D90E09C838B83C301A8E08B
:100FD000FA9E800D911D11241816190674F6B5E0BD
:100FE0006B9FB0011124FB01ED53FC4FFA83E983A1
:100FF00030E08885998504969E838D83E981FA8106
:10100000E490353009F4E12C430188E0482EE0FCFF
:1010100002C0532C01C0522C51100BC0321009C019
:10102000E6944A948B819C81880E991E4110EFCFE3
:101030001BC068018C2D801B8F1590F754018A2DE1
:1010400088198F1568F4252DA501B6018D819E8123
:101050003F830E9478079FEFA91AB90A3F81EFCF1B
:10106000AFEFCA1ADA0AE6CF3F5FEB81FC810E0FC1
:101070001F1F89819A8101969A838983363009F0EE
:10108000BDCF7BCF6AEF64039001659F300D1124C3
:1010900020583F4F281739075CF4A885B985ED9192
:1010A000FC9111970190F081E02D6AE0CD01099546
:1010B00081E090E029960FB6F894DEBF0FBECDBF59
:1010C000DF91CF911F910F91FF90EF90DF90CF9024
:1010D000BF90AF909F908F907F906F905F904F9058
:1010E0003F902F9008950F931F93CF93DF938C0120
:1010F000EB010E944C2C8883C80101960E944C2C65
:101100008983CE01DF91CF911F910F9108950C94A7
:101110004C2C1092530110924E0110924F011092DC
:101120005001109251011092B0011092B101109231
:10113000B2011092B30188E780934A011092AF0187
:1011400010924B0110924D0110924C01089580E0D5
:1011500090E0A8E4B2E48093570190935801A093E3
:101160005901B0935A0180E090E0A0E8B2E4809386
:101170005B0190935C01A0935D01B0935E010E94BE
:1011800089081092B50110925501109254010895EA
:1011900062E370E086E990E00E94F50680915601D6
:1011A00081508093560180E090E0A0E8B2E4809303
:1011B0005B0190935C01A0935D01B0935E0180E0C0
:1011C00090E0A0E0B2E48093570190935801A0937F
:1011D0005901B0935A011092B0011092B1011092CE
:1011E000B2011092B30110924E0110924F01109271
:1011F0005001109251010895EF92FF920F931F93A7
:10120000CF93DF93D0E0CAE04091AF01D41708F04C
:10121000ACC02D2F30E0C29FF001C39FF00D112410
:10122000E15AFE4F6081718182819381860F971F01
:1012300091838083A481B581668177816A0F7B1F4A
:10124000758364838B3F5FEF950724F486579F4F28
:1012500091838083C29FF001C39FF00D1124E15A56
:10126000FE4F808191818638910524F08A5891093A
:1012700091838083C29FF001C39FF00D1124E15A36
:10128000FE4F848195818B3F5FEF950724F4865B49
:101290009F4F95838483C29FF001C39FF00D11245B
:1012A000E15AFE4F848195818634910524F08A5459
:1012B000910995838483C29FF001C39FF00D11248F
:1012C000E15AFE4F8085918597FF36C011861086C2
:1012D00050E0642F70E08B0101501109852F90E0E0
:1012E00080179107ACF48AE0589FD001112480E068
:1012F00090E0FC01EA0FFB1FE15AFE4FE284F38409
:10130000F182E08202968A30910599F75F5FE6CF1D
:10131000C69FF001C79FF00D1124E15AFE4F1182C4
:10132000108213821282158214821782168211860D
:10133000108641504093AF01C29F8001C39F100DA2
:101340001124015A1E4FF801448155816081718139
:1013500021E083EA99E00E947807F8018085918571
:10136000049791878087DF5F4FCFDF91CF911F91E7
:101370000F91FF90EF9008954F925F926F927F923E
:101380008F929F92AF92BF92CF92DF92EF92FF9295
:101390000F931F93CF93DF93CDB7DEB72C970FB684
:1013A000F894DEBF0FBECDBF2091B0013091B101E6
:1013B0004091B2015091B30160915B0170915C0169
:1013C00080915D0190915E010E94C62C4B015C01F1
:1013D00060935B0170935C0180935D0190935E016B
:1013E00020914E0130914F01409150015091510197
:1013F00060915701709158018091590190915A0163
:101400000E94C62C6B017C016093570170935801B8
:101410008093590190935A0120E030E040EA50EC6B
:10142000C501B4010E94322D87FF10C020E030E0DA
:101430004AE053E4C501B4010E94C62C60935B01ED
:1014400070935C0180935D0190935E0180905B01DD
:1014500090905C01A0905D01B0905E0120E030E0D2
:1014600045E053E4C501B4010E941F2E181684F410
:1014700020E030E04AE053E4C501B4010E94C52CED
:1014800060935B0170935C0180935D0190935E01BA
:1014900020E030E040EA50ECC701B6010E94322D56
:1014A00087FF10C020E030E044E952E4C701B601F4
:1014B0000E94C62C60935701709358018093590184
:1014C00090935A01C0905701D0905801E090590173
:1014D000F0905A0120E030E04AE852E4C701B6013A
:1014E0000E941F2E181684F420E030E044E952E4F4
:1014F000C701B6010E94C52C609357017093580133
:101500008093590190935A0180905701909058010F
:10151000A0905901B0905A010091B401002E000C26
:10152000110BF801EF51FD4FE4916E2FEE0F770B89
:10153000880B990B0E946F2D9B01AC01C501B40172
:101540000E94C62C0E94372D69837A838B839C83EB
:10155000C0905B01D0905C01E0905D01F0905E0175
:10156000F801E753FD4FE4916E2FEE0F770B880BD8
:10157000990B0E946F2D9B01AC01C701B6010E941F
:10158000C62C0E94372D6D837E838F839887F80148
:10159000EF54FD4FE4916E2FEE0F770B880B990BF4
:1015A0000E946F2D9B01AC01C501B4010E94C62CA5
:1015B0000E94372D2B013C01F801E756FD4FE491C5
:1015C0006E2FEE0F770B880B990B0E946F2D9B01EE
:1015D000AC01C701B6010E94C62C0E94372D698755
:1015E0007A878B879C87F801EF57FD4FE4916E2F28
:1015F000EE0F770B880B990B0E946F2D9B01AC01AE
:10160000C501B4010E94C62C0E94372D4B015C011C
:10161000F801E759FD4FE4916E2FEE0F770B880B21
:10162000990B0E946F2D9B01AC01C701B6010E946E
:10163000C62C0E94372D6B017C01920149855A8589
:10164000B401C6010E946B0B29813A814D815E81F4
:10165000B20189859A850E946B0B9401A60169816C
:101660007A818D819E812C960FB6F894DEBF0FBED5
:10167000CDBFDF91CF911F910F91FF90EF90DF9041
:10168000CF90BF90AF909F908F907F906F905F9022
:101690004F900C946B0BEF92FF920F931F93CF938D
:1016A000DF931F92CDB7DEB77C01FC010081118171
:1016B000C80169830E944C2C6981681719F0C80120
:1016C0000E94542CC7010F90DF91CF911F910F9171
:1016D000FF90EF9008955F926F927F928F929F920A
:1016E000AF92BF92CF92DF92EF92FF920F931F9330
:1016F000CF93DF93EC018B017A01A901461B570BB5
:1017000057FF03C0519541955109C7018C1B9D0B93
:1017100097FF03C09195819591095524539484179F
:10172000950714F0512C0AC09E2D8F2D7901292F79
:10173000382F9C2F8D2FE801092F182FEC16FD064E
:1017400054F4902F812F8901292F382F9C2F8D2F12
:10175000E701E92EF82E37016C1A7D0A5901A01A0B
:10176000B10AB7FE03C0B194A194B108630177FE3A
:1017700003C08FEFC81AD80AD594C794021713076D
:1017800014F08FEF01C081E0882E880F9908EC16C5
:10179000FD06B4F021E0552019F0AE01B80102C0F9
:1017A000A801BE0183EA99E00E947807CA18DB0805
:1017B000D7FE04C0080D191DC60CD71C2196E7CF13
:1017C000DF91CF911F910F91FF90EF90DF90CF901D
:1017D000BF90AF909F908F907F906F905F90089593
:1017E0002F923F925F926F927F928F929F92AF92D1
:1017F000BF92CF92DF92EF92FF920F931F93CF93FE
:10180000DF9300D000D000D0CDB7DEB78C017B01D4
:10181000522E242F30E03E832D8381E090E05C0146
:10182000A21AB30AC901919581959109FC01EE0FA5
:10183000FF1FFA83E983A901460F571F252DB80121
:1018400083EA99E00E947807A7012D813E81421B1F
:10185000530B252DB80183EA99E00E9478076D812A
:101860007E81600F711F252DA70183EA99E00E94F8
:101870007807B8018D819E81681B790B252DA70102
:1018800083EA99E00E947807C12CD12CE1E0F0E0D6
:10189000FC83EB832D813E81C216D3060CF070C011
:1018A000B7FC0DC02D813E81215031093E832D832F
:1018B00089819A8102969A838983A80EB91E9FEF27
:1018C000C91AD90AEB81FC813296FC83EB83AE0EF8
:1018D000BF1E3601600E711E252D8D809E808E0CE0
:1018E0009F1CA401B30183EA99E00E9478071801C4
:1018F0002C183D08252DA401B10183EA99E00E942E
:101900007807252D47018D819E81881A990AA401A7
:10191000B30183EA99E00E947807252DA401B10163
:1019200083EA99E00E94780746018E0C9F1C252DC2
:10193000A4016D807E80600E711EB30183EA99E080
:101940000E947807252DA4011801ED81FE812E1A31
:101950003F0AB10183EA99E00E94780747018C1899
:101960009D08252DA401B30183EA99E00E94780720
:10197000252DA401B10183EA99E00E9478078ACF5E
:1019800026960FB6F894DEBF0FBECDBFDF91CF9184
:101990001F910F91FF90EF90DF90CF90BF90AF908D
:1019A0009F908F907F906F905F903F902F900895C1
:1019B0002F923F924F925F926F927F928F929F925F
:1019C000AF92BF92CF92DF92EF92FF920F931F934D
:1019D000CF93DF93CDB7DEB728970FB6F894DEBF6D
:1019E0000FBECDBF5A01822E912C9C01280D391DAE
:1019F00037FDC4C0803891050CF0C0C09B01200F9A
:101A0000311D37FDBBC0603471050CF0B7C0AB01B0
:101A100077FF04C044275527461B570B47705527AF
:101A20009B0177FF02C0295F3F4FE3E03595279583
:101A3000EA95E1F777FF08C02150310968E070E0CE
:101A4000DB01A41BB50BAD01602F6695669566950D
:101A500070E0077011F06F5F7F4FDB01A20FB31FC3
:101A6000BA83A98339017694762C66247794679497
:101A7000680E791EE12CF12C00E010E02301B0E8A3
:101A80004B0E511C68E070E0DB01A41BB50BBC835E
:101A9000AB8369817A812617370709F46FC0283034
:101AA000310509F46BC02F3FBFEF3B070CF45BC05F
:101AB000B201600F711FDB01A157BA4FBE83AD8326
:101AC000D801A60DB71DA157BA4F6C0160E070E0B8
:101AD000681579050CF047C0E0E8CE16D10409F48A
:101AE00042C0D7FC34C02F3FFFEF3F0709F442C08C
:101AF000FB01EE0DFF1DEA0DFB1DE491042E01C05C
:101B0000EE0F0A94EAF73C90E329EC934115510556
:101B1000F1F027303105D9F0FB01EE0DFF1DEA0D84
:101B2000FB1DE4912E2E312CF1010B8002C0F595A6
:101B3000E7950A94E2F7F887EF83ED81FE81308024
:101B4000EF81F885E3291F01ED81FE8120826F5F1F
:101B50007F4FED81FE813196FE83ED83FFEFCF1A3B
:101B6000DF0A1196B5CF2F5F3F4F00581F4FE80C8B
:101B7000F91C8FCF4115510579F6E9CF28960FB69C
:101B8000F894DEBF0FBECDBFDF91CF911F910F91B3
:101B9000FF90EF90DF90CF90BF90AF909F908F908D
:101BA0007F906F905F904F903F902F90089520917D
:101BB000A909282329F49091A809982381E009F420
:101BC00080E00895E0919F09F091A0090190F081D3
:101BD000E02D682F8FE999E009948F929F92AF9240
:101BE000BF920F931F93CF93DF93CDB7DEB7A1972B
:101BF0000FB6F894DEBF0FBECDBF19A2423008F475
:101C00004AE08E010F5D1F4F842E912CA12CB12C28
:101C1000A50194010E94942CE62FB901CA0101503C
:101C20001109EA3014F4E05D01C0E95CD801EC93DD
:101C3000232B242B252B61F70115110571F0F801D9
:101C400001900020E9F73197AF01401B510BB8011B
:101C50008FE999E00E94CB0402C080E090E0A19659
:101C60000FB6F894DEBF0FBECDBFDF91CF911F91AD
:101C70000F91BF90AF909F908F9008950F931F93F7
:101C8000CF93DF938C01C0E0D0E0F801EC0FFD1F93
:101C90006491662371F0E0919F09F091A009019091
:101CA000F081E02D8FE999E00995892B11F02196BB
:101CB000ECCFCE01DF91CF911F910F91089580E07D
:101CC000EFE8F5E081118FEF0024819381938193F8
:101CD00081930394D1F708950E945F0EEFE9F9E034
:101CE000118E108E178A168A08950F931F93CF9323
:101CF000DF931F92CDB7DEB78FB7F89440918B0575
:101D000050918C0560918D0570918E058FBF00916B
:101D1000AF091091B0092091B1093091B2098091B9
:101D2000B309882349F08091AB09481B4093B4095B
:101D30001092B30980E030C0401751076207730763
:101D400040F4041B023040F189830E9435078981E9
:101D500023C081E08093B3094093AB095093AC0951
:101D60006093AD097093AE098091AA09480F511D87
:101D7000611D711D4093AF095093B0096093B10983
:101D80007093B2098091A6099091A709019690934A
:101D9000A7098093A60981E00F90DF91CF911F9151
:101DA0000F910895809164008E7F809364008EE58A
:101DB00080937C0062E070E080E090E00E94110679
:101DC00080917A00806480937A0080917A0086FD09
:101DD000FCCF80917800909179000895CF92DF92A6
:101DE000EF92FF92CF93DF936C01990FEE08FF08FB
:101DF000F7FE17C08DE20E94E20DEC0166277727FF
:101E0000CB016C197D098E099F094AE00E94ED0DF6
:101E10008C0F9D1FDF91CF91FF90EF90DF90CF90BF
:101E200008954AE0C701B601DF91CF91FF90EF908E
:101E3000DF90CF900C94ED0DFC0180918A0581110B
:101E400003C08FEF9FEF08959FB7F89482E08093CF
:101E5000E9002091F20030E01216130614F421E09C
:101E600030E02115310559F0289884E680938905E2
:101E70008091F10080838091F200882319F09FBF48
:101E8000C90108958BE68093E800F9CF2FB7F89445
:101E900083E08093E9009091E800892F807295FF9C
:101EA00004C09091F20080E4891B2FBF08958F92A7
:101EB0009F92AF92BF92CF92DF92EF92FF920F93D9
:101EC0001F93CF93DF935C016B017A01809107012F
:101ED000882309F45BC080918A05882309F456C0E1
:101EE0008091880580FF05C08091E000826080932A
:101EF000E000E70110E00AEF83E0882E9AE3992ED4
:101F00002097D9F10E94460F81110AC0015009F4AF
:101F10003DC061E070E080E090E00E941106F0CFEB
:101F2000282F30E0C217D3070CF48C2F4FB7F8944A
:101F30008092E9009091E80095FF1DC0282F30E0C5
:101F4000C21BD30BF601982F915020F08191809302
:101F5000F100FACFC20ED31E112319F09092E800BF
:101F600009C08091E80085FD06C09092E80011E06C
:101F7000209709F010E04FBFC3CF1111C3CF5D9878
:101F800084E6809387051E141F0444F081E090E0EE
:101F9000F5019383828380E090E001C0C701DF9167
:101FA000CF911F910F91FF90EF90DF90CF90BF9056
:101FB000AF909F908F9008958091C10981110DC0BD
:101FC00082E08093BD0984E08093BE091092C0092D
:101FD0001092BF0981E08093C1098DEB99E00895CB
:101FE000CF93DF931F92CDB7DEB76983DC01ED910C
:101FF000FC910280F381E02D41E050E0BE016F5F73
:102000007F4F09950F90DF91CF91089583E08093E2
:10201000E9008091F200882319F08AE38093E800B8
:102020000895FC018485958597FD0BC09FB7F894B2
:1020300082E08093E9008091F2009FBF90E00196DA
:1020400008959FB7F89482E08093E9008091F200B0
:102050009FBF90E0089540911D0A50911E0A209163
:102060001B0A30911C0A42175307B4F49091E80000
:102070009570E1F39091E80092FD19C08093F10012
:1020800080911D0A90911E0A01968F739927892BC2
:1020900019F48EEF8093E80080911D0A90911E0A3A
:1020A000019690931E0A80931D0A81E0089580E0B6
:1020B0000895DF92EF92FF920F931F93CF93DF93D8
:1020C000D82E8A017B01E40EF51EEB01CE15DF054B
:1020D00071F0D7FE03C0FE01849101C088810E9487
:1020E0002B1021968111F2CF8FEF9FEF01C0C80115
:1020F000DF91CF911F910F91FF90EF90DF900895A6
:10210000615030F02091F100FC0120830196F8CF5E
:10211000289884E68093890508950E94460F90E0F0
:102120000895CF93DF931F92CDB7DEB7FC0184856E
:10213000958597FD05C02FEF3FEF358724870BC0AE
:10214000CE0101960E941C0F019719F4898190E03D
:1021500002C08FEF9FEF0F90DF91CF9108950F9303
:102160001F93CF93DF931F92CDB7DEB78C01FC0195
:102170008485958597FF0EC0CE0101960E941C0FA5
:10218000019719F4298130E002C02FEF3FEFF801E9
:1021900035872487F801848595850F90DF91CF914D
:1021A0001F910F9108950F931F93CF93DF931F9269
:1021B000CDB7DEB782E0898342E450E06BEC78E093
:1021C00080E80E9459100E94DC0FDC0112960D91EC
:1021D0001C9113970115110569F0D801ED91FC913F
:1021E0000280F381E02DBE016F5F7F4FC80109952A
:1021F00097FF07C089810F90DF91CF911F910F91B9
:102200000895F80100851185E5CF1F920F920FB652
:102210000F9211248F939F938091E1009091E100A0
:10222000937F9093E10083FF0FC01092E90091E04B
:102230009093EB001092EC0092E39093ED001092DB
:102240008A0598E09093F00082FF20C093E090937D
:10225000E9009091F200992319F09AE39093E80035
:1022600090918705992339F090918705915090932B
:102270008705992389F190918905992339F09091E7
:102280008905915090938905992341F184FF10C0ED
:102290008091E2008E7E81608093E2008091E10077
:1022A0008F7E8093E100809188058E7E806111C0D1
:1022B00080FF16C08091E2008E7E80618093E200F4
:1022C0008091E1008E7E8093E100809188058E7E72
:1022D00081608093880504C05D9ACDCF289AD6CFBF
:1022E0009F918F910F900FBE0F901F9018951F9286
:1022F0000F920FB60F921124CF92DF92EF92FF92BE
:102300000F931F932F933F934F935F936F937F93FD
:102310008F939F93AF93BF93EF93FF93CF93DF93ED
:10232000CDB7DEB76C97DEBFCDBF1092E9008091CC
:10233000E80083FFEDC168E0CE0145960E94801061
:1023400082EF8093E8008D8987FF05C09091E800B7
:1023500090FFFCCF03C09EEF9093E800982F9076FB
:1023600009F0C6C09E892F89188D91110CC0803844
:1023700029F480911A0A8093F10002C01092F100B2
:102380001092F10048C1422F50E0512B913051F48E
:10239000811141C14130510509F03DC180911A0AB6
:1023A0008D7F0BC0933061F4811135C141305105EF
:1023B00009F031C180911A0A826080931A0A2BC1F8
:1023C000953041F48091E80080FFFCCF2068209395
:1023D000E30021C1963009F05FC0EB8CFC8C1092B9
:1023E000E90010921E0A10921D0A123091F5109207
:1023F0001C0A10921B0A0E94D31099E0BE016F5F65
:102400007F4FDB01E92F1D92EA95E9F799831A8343
:1024100091E09E8390EA98879AEF998720911D0A10
:1024200030911E0A275F3F4F3C832B838D83109290
:10243000E90010921E0A10921D0AF0921C0AE09206
:102440001B0A49E050E080E00E9459100E94D3101E
:10245000E2C0F0921C0AE0921B0A0E94DC0FDC0131
:102460001296ED90FC901397E114F10409F4C0C0AA
:10247000D701ED91FC910480F581E02DBE016B5EEA
:102480007F4FC7010995009719F00CF0C4C0C7C071
:10249000F701E084F184E8CF973009F4C0C09830A8
:1024A00021F481E08093F100B6C0993009F0B3C007
:1024B000837009F0B4C0E7E3F1E081E021E036E3A6
:1024C0009081992361F08093E9002093EB00919132
:1024D0009093EC003093ED008F5F873089F78EE7A3
:1024E0008093EA001092EA008F8980938A0593C056
:1024F0008B8D9C8D1092E90010921E0A10921D0A7D
:1025000090931C0A80931B0A898D811156C08E8975
:102510009D89913A59F4813209F081C047E050E039
:1025200060E071E080E00E94591075C0913209F0BE
:1025300076C0833289F4888D90E0982F88272F8980
:10254000822BA0E0B0E08093080190930901A09352
:102550000A01B0930B015FC0803269F48091E800FA
:1025600082FFFCCF67E080E091E00E9480108BEF5B
:102570008093E80006C0823209F04DC08F898093B5
:1025800007018091190A882319F0EEEFFAE002C0E2
:10259000E0E0F8E08091000190910101A09102013A
:1025A000B0910301803B9440A105B10509F07BC0C7
:1025B0008091070180FF93C076C00E94DC0FDC0190
:1025C00012960D911C9113970115110541F1D80137
:1025D000ED91FC910190F081E02DBE016B5E7F4F8B
:1025E000C8010995811117C0F80100851185ECCF4C
:1025F000113009F44EC0133091F48F89882309F407
:1026000045C0823081F440E860E18FE299E00E94A9
:10261000B32B882321F08EEF8093E80079C081E20C
:102620008093EB0075C0813029F440E86BE083E2D1
:1026300099E0EDCF833099F70E94DC0FDC01129610
:10264000ED90FC9013978E010F5F1F4F6801E1140E
:10265000F10479F0D701ED91FC910680F781E02D2E
:10266000B801C7010995080F111DF701E084F18435
:10267000EECFD8011C92F60101900020E9F73197C6
:10268000BF016C197D0940E0C601C1CF6DE079E062
:1026900002C061E179E06115710509F2FB01449125
:1026A00050E080E840CF0FB6F894A8958091600084
:1026B000886180936000109260000FBEA895EE3F85
:1026C0002AE0F20739F08091FE0A9091FF0A918387
:1026D0008083A1CF1092FF0A1092FE0A9CCFEE3F9A
:1026E0008AE0F80731F0808191819093FF0A80930E
:1026F000FE0A87E797E7918380839BE088E10FB626
:10270000F894A895809360000FBE9093600083CFEB
:102710006C960FB6F894DEBF0FBECDBFDF91CF91A0
:10272000FF91EF91BF91AF919F918F917F916F91A9
:102730005F914F913F912F911F910F91FF90EF90DB
:10274000DF90CF900F900FBE0F901F901895CF93F2
:10275000DF93CDB7DEB72A970FB6F894DEBF0FBE72
:10276000CDBF789484B5826084BD84B5816084BD1A
:1027700085B5826085BD85B5816085BD80916E001F
:10278000816080936E001092810080918100826050
:10279000809381008091810081608093810080918D
:1027A000800081608093800080919100826080939E
:1027B00091008091910081608093910080919000C0
:1027C0008160809390008091C10084608093C100FB
:1027D0008091C10082608093C1008091C1008160BE
:1027E0008093C1008091C30081608093C300809179
:1027F000C00082608093C0008091C200816080939D
:10280000C20080917A00846080937A0080917A007F
:10281000826080937A0080917A00816080937A0050
:1028200080917A00806880937A0010928A051092D5
:102830001A0A109288058091D70081608093D70092
:1028400080EA8093D80089B5806189BD89B58260AE
:1028500089BD09B400FEFDCF61E070E080E090E04A
:102860000E9411068091D8008F7C80618093D800EF
:102870008091E000807F8093E0008091E1008E7E77
:102880008093E1008DE08093E200559A209AEEEF6C
:10289000FFE7859194918B3F9C4D19F481E08093E3
:1028A000190A81EC80937C0085B1806F85B92498EA
:1028B00084B1866E84B95E9A5F988AB1806D8AB958
:1028C000769A6E9881B3806F81BB899880B38D7042
:1028D00080BB80E58CBD81E08DBD85E090E00E94ED
:1028E00013075F9A85E090E00E9413075E985C985A
:1028F0000CE511E06DE0F62EF00EF80184910E94D7
:1029000040070F5F1F4FF012F8CF5C9A81E8809369
:10291000640081E08093650000E014E080E00E94A4
:10292000400701501109D1F70E94180787FF10C016
:102930005C9885EA0E9440075C9A2E982F982D9803
:10294000809164008062809364000E943507FDCF0F
:1029500002E010E00E94180782FF42C02D980E94FA
:10296000180784788438C9F00E941807847184316C
:1029700091F50E94110788EC90E00E9413072E98B1
:102980001A83098360E0CE0101960E944B0B84EF0D
:1029900091E00E9413072E9A19C00E94110788EC3B
:1029A00090E00E9413072F981A8309836FEFCE01DE
:1029B00001960E944B0B84EF91E00E9413072F9A1F
:1029C0000E94180784788438D9F3CECF0E94180764
:1029D00084718431D9F388EC90E00E941307BACF58
:1029E0000E94110782E090E00E944C2C882319F08D
:1029F0000E944B0702C00E9446072E985EEEE52E0D
:102A0000FF24FA940E94180786FF04C02E9A2F9A7A
:102A10002D9A41C0FCEFEF16FFEFFF0619F42E9A36
:102A20002F9806C028E1E216F10411F42F9A2D9890
:102A30000E945F0E00E128E54CEA50E0B70184E116
:102A400090E00E94D80C83EA99E00E9469078BE12C
:102A500090E00E94130730EFE3163FEFF30621F4F6
:102A60008AEF90E00E9413074FEFE41AF40A59E14D
:102A7000E516F10439F68CEB92E00E9413070E94F0
:102A80001107E091A309F091A4090190F081E02DD4
:102A900083EA99E0099582E390E00E9413070E947F
:102AA00018078111F8CF809164008E7F80936400B5
:102AB00080917A00806480937A0080917A0086FD0C
:102AC000FCCF00917800109179000E94EC0520E085
:102AD00030E0980111270027600F711F821F931F9C
:102AE000611571058105910511F00E94432C8091BB
:102AF000640081608093640081E28093AA090E944F
:102B00006C0E0E94A70880915201882319F00E9440
:102B10004B0702C00E9446071091B501113011F415
:102B200081E205C0111102C082E301C082E48093FA
:102B3000AA090E94750E882311F40C94B0290E94F2
:102B40006C0E123011F40C94192638F4112391F004
:102B5000113009F4C7C00C946029143011F40C949E
:102B60007A2810F40C94D527153011F40C94E82829
:102B70000C9460290AE010E01093B6090093B5099F
:102B80001093B8090093B70982E08093BB0989EBE1
:102B900093E00E943E0E8091A6099091A709B8018A
:102BA0000E94DE2E892B79F462E070E080E090E0F4
:102BB0000E94C80521E0613071058105910509F089
:102BC00020E0209373058091A6099091A70963E006
:102BD00070E00E94DE2E892B59F49091730580914C
:102BE000B401992311F08F5F01C081508093B4012B
:102BF0008091B40188311CF088518093B401809198
:102C0000B40187FF03C0885E8093B40180E090E048
:102C1000A0E8BFE38093B0019093B101A093B2010B
:102C2000B093B3010E94BC098091A6099091A709B5
:102C300065E070E00E94DE2E892B39F49090AF01A0
:102C400087E0891510F00C94BA290E94FC0884E0F2
:102C50000E94D70D882301F183E08093560180E024
:102C600090E0A0E8B2E480935B0190935C01A093B4
:102C70005D01B0935E0180E090E0A0E0B2E480935B
:102C8000570190935801A0935901B0935A010E94A3
:102C9000890881E08093B50180E80E94D70D8111F9
:102CA00005C080E10E94D70D882391F080915201E8
:102CB000882311F40C94362A0E9446076091520131
:102CC00082E090E09A838983CE0101960E944B0BAB
:102CD00088E00E94D70D882311F40C94602983E0CA
:102CE0000C94162680915601181614F00C940D269B
:102CF0008091A60980FD5CC00E94180785FF05C071
:102D00008091B40181508093B4010E94180786FF1E
:102D100005C08091B4018F5F8093B4018091B401AC
:102D200088311CF088518093B4018091B40187FFF1
:102D300003C0885E8093B4010E94180787FF38C0E3
:102D40000091B40198E0090280011124F801E750D4
:102D5000FD4F25913591459154916091B00170914D
:102D6000B1018091B2019091B3010E94C62C609391
:102D7000B0017093B1018093B2019093B301F80157
:102D8000E350FD4F259135914591549160914E014D
:102D900070914F0180915001909151010E94C62C79
:102DA00060934E0170934F018093500190935101B5
:102DB00080E10E94D70D882309F44AC06CE271E0DB
:102DC00080E090E00E94110663E070E080E090E017
:102DD0000E94C805623071058105910549F468ECCF
:102DE00070E080E090E00E9411060E94C80830C0A8
:102DF00010924E0110924F01109250011092510109
:102E00001092B0011092B1011092B2011092B30170
:102E100060E870E080E090E00E94C8050E946F2D9D
:102E200060935B0170935C0180935D0190935E0100
:102E300060E470E080E090E00E94C8050E946F2D81
:102E400060935701709358018093590190935A01F0
:102E5000C0904E01D0904F01E0905001F090510190
:102E600020E030E0A901C701B6010E941F2E18160C
:102E700084F42AE037ED43EA5BE3C701B6010E9420
:102E8000C52C60934E0170934F0180935001909335
:102E90005101C0904E01D0904F01E0905001F09050
:102EA000510120E030E0A901C701B6010E94322D96
:102EB00087FF10C02AE037ED43EA5BE3C701B601A4
:102EC0000E94C62C60934E0170934F018093500175
:102ED00090935101C090B001D090B101E090B20147
:102EE000F090B30120E030E0A901C701B6010E94D3
:102EF0001F2E181684F42AE037ED43EA5BE3C7017E
:102F0000B6010E94C52C6093B0017093B10180930B
:102F1000B2019093B301C090B001D090B101E090A4
:102F2000B201F090B30120E030E0A901C701B60181
:102F30000E94322D87FF10C02AE037ED43EA5BE3A1
:102F4000C701B6010E94C62C6093B0017093B10115
:102F50008093B2019093B301C090B001D090B101C1
:102F6000E090B201F090B30120E030E0A901C70188
:102F7000B6010E941F2E18165CF42FE832EC45EFC4
:102F80005CE3C701B6010E94322D87FF13C00AC05F
:102F90002FE832EC45EF5CEBC701B6010E941F2E13
:102FA000181644F41092B0011092B1011092B201BF
:102FB0001092B301C0904E01D0904F01E0905001AB
:102FC000F090510120E030E0A901C701B6010E9454
:102FD0001F2E18165CF42FE832EC45EF5CE3C701B6
:102FE000B6010E94322D87FF13C00AC02FE832ECD1
:102FF00045EF5CEBC701B6010E941F2E181644F482
:1030000010924E0110924F011092500110925101F6
:1030100020E030E040E450E460914E0170914F01B7
:1030200080915001909151010E941F2E181664F456
:1030300080E090E0A0E4B0E480934E0190934F01D3
:10304000A0935001B093510120E030E040E450ECF7
:1030500060914E0170914F0180915001909151010A
:103060000E94322D87FF0CC080E090E0A0E4B0EC1D
:1030700080934E0190934F01A0935001B093510162
:1030800020E030E040E450E46091B0017091B10183
:103090008091B2019091B3010E941F2E181664F422
:1030A00080E090E0A0E4B0E48093B0019093B1019F
:1030B000A093B201B093B30120E030E040E450ECC3
:1030C0006091B0017091B1018091B2019091B30112
:1030D0000E94322D87FF0CC080E090E0A0E4B0ECAD
:1030E0008093B0019093B101A093B201B093B3016A
:1030F0000E94BC0984E00E94D70D882339F090908B
:10310000AF01E7E0E91510F00C943A2A0E94FC08A0
:10311000312CBAE08B2E80914C01381608F0B8C3E0
:10312000232D30E03A8729878901A4E0000F111F81
:10313000AA95E1F7A80142515B4F7A01FA01248177
:1031400035814681578160817181828193810E949E
:10315000C62CA62EB72E6C01462F572FBC01F701A7
:1031600040835183628373832485358546855785E3
:1031700060857185828593850E94C62CF7016087E2
:1031800071878287938720E030E040EA50ECB501F8
:10319000C6010E94322D87FF0DC020E030E04AE0DA
:1031A00053E4B501C6010E94C62CF7016083718308
:1031B00082839383980122513B4F7901F90140802A
:1031C00051806280738020E030E045E053E4C30129
:1031D000B2010E941F2E18166CF420E030E04AE085
:1031E00053E4C301B2010E94C52CF70160837183CF
:1031F00082839383980122513B4F7901F9014084E6
:1032000051846284738420E030E040EA50ECC301D2
:10321000B2010E94322D87FF0DC020E030E044E96A
:1032200052E4C301B2010E94C62CF7016087718786
:1032300082879387980122513B4F7901F90140849D
:1032400051846284738420E030E04AE852E4C30190
:10325000B2010E941F2E18166CF420E030E044E901
:1032600052E4C301B2010E94C52CF7016087718747
:1032700082879387912C980122513B4F3E832D8367
:10328000285F3F4F38872F832090AF01921408F0BA
:103290003EC2A92CB12C8A9CF0018B9CF00D11240C
:1032A000E15AFE4F60817181072E000C880B990B4B
:1032B0000E946F2DED81FE812081318142815381F9
:1032C0000E94C52C6B017C0120E030E0A9010E9426
:1032D0001F2E18165CF420E030E040EA50E4C701ED
:1032E000B6010E94322D18165CF44EC020E030E08A
:1032F00040EA50ECC701B6010E941F2E87FD37C07F
:103300008A9CF0018B9CF00D1124E15AFE4F6481E0
:103310007581072E000C880B990B0E946F2DEF8191
:10332000F88520813181428153810E94C52C2B0177
:103330003C0120E030E0A9010E941F2E18166CF419
:1033400020E030E040EA50E4C301B2010E94322D97
:1033500018160CF04BC00C94132B20E030E040EA20
:1033600050ECC301B2010E941F2E87FF3FC020E036
:1033700030E0A901C701B6010E941F2E181624F0E3
:10338000F7FAF094F7F8F0948A9CF0018B9CF00D1A
:103390001124E15AFE4F64817581072E000C880BC1
:1033A000990B0E946F2DEF81F88520813181428138
:1033B00053810E94C52C2B013C0120E030E0A90183
:1033C0000E941F2E181624F077FA709477F87094E4
:1033D000A3019201C701B6010E94C62C20E030E093
:1033E00040EE50E40E94322D87FF8FC1F92C422D10
:1033F00050E0BA01615071092F2D30E026173707D0
:1034000084F5C9010196889EF001899EF00D112472
:10341000E15AFE4FC080D180829EC001839E900DF4
:103420001124DC01A15ABE4F1196DC92CE9222816A
:10343000338113963C932E931297248135811596F0
:103440003C932E9314972681378117963C932E93A5
:1034500016972085318519963C932E931897F394EF
:10346000CBCF849EF001859EF00D1124E15AFE4FD2
:1034700011821082829CD0011124A15ABE4F139652
:103480001C921E9212971582148217821682118640
:1034900010862A942092AF016BE470E086E990E0F8
:1034A0000E94F506809154019091550102969093E7
:1034B000550180935401E0904D01F0E1EF9EC00171
:1034C00011249C0122513C4F7901ED81FE818081C4
:1034D0009181A281B381F90180839183A283B38317
:1034E000EF81F88580819181A281B381F901808784
:1034F0009187A287B38764E170E080E090E00E944A
:10350000C8056A507109810991090E946F2D2DEC3F
:103510003CEC4CE45DE30E94242EF7016483758348
:1035200086839783E0904D01F12C64E170E080E0A8
:1035300090E00E94C8059701E4E0220F331FEA954E
:10354000E1F7A90142515C4F7A016A507109810982
:1035500091090E946F2D2DEC3CEC4CE45DE30E9440
:10356000242EF7016487758786879787E0904D0141
:10357000F12C64E070E080E090E00E94C805F70163
:10358000E252FC4F6083E0904D01E394E0924D01E4
:10359000F0E1EF9EC00111249C0122513C4F7901C2
:1035A000ED81FE8180819181A281B381F9018083C7
:1035B0009183A283B383EF81F88580819181A28179
:1035C000B381F90180879187A287B38764E170E0B6
:1035D00080E090E00E94C8056A5071098109910954
:1035E0000E946F2D2DEC3CEC4CE45DE30E94242EF8
:1035F000F7016483758386839783E0904D01F12CF6
:1036000064E170E080E090E00E94C8059701F4E07A
:10361000220F331FFA95E1F7A90142515C4F7A015D
:103620006A507109810991090E946F2D2DEC3CECC3
:103630004CE45DE30E94242EF7016487758786873A
:103640009787E0904D01F12C64E070E080E090E01D
:103650000E94C805F701E252FC4F608380914D0142
:103660008F5F80934D0120914C01422F50E04150DB
:103670005109332D832F90E0841795070CF042C039
:10368000DC011196FD01EA52FC4F6081FC01EA5217
:10369000FC4F608364E0AA0FBB1F6A95E1F7A2515B
:1036A000BB4FCD90DD90ED90FC90139774E0880FA8
:1036B000991F7A95E1F7FC01E251FB4FC082D1825C
:1036C000E282F3821496CD90DD90ED90FC901797F6
:1036D000C482D582E682F7821896CD90DD90ED9077
:1036E000FC901B97C086D186E286F3861C968D914E
:1036F0009D910D90BC91A02D84879587A687B78753
:103700003F5FB8CF215020934C019394BDCDE98504
:10371000FA85EA52FC4F8081813009F451C058F19A
:10372000823009F475C0833009F097C002511B4FF5
:1037300020E030E040E051E4F80160857185828549
:1037400093850E94C52C0E94372D6B017C0120E0DF
:1037500030E040E051E4F801608171818281938121
:103760000E94C52C0E94372DDC01CB0100E120E135
:1037700044EA51E049C002511B4F20E030E040E0F4
:1037800051E4F80160857185828593850E94C52C7E
:103790000E94372D6B017C0120E030E040E051E4D5
:1037A000F80160817181828193810E94C52C0E9401
:1037B000372DDC01CB0100E120E144E052E024C0E0
:1037C00002511B4F20E030E040E051E4F8016085F9
:1037D0007185828593850E94C52C0E94372D6B01CF
:1037E0007C0120E030E040E051E4F801608171812B
:1037F000828193810E94C52C0E94372DDC01CB0170
:1038000000E120E144EE51E0B6010E94D80C3EC038
:1038100002511B4F20E030E040E051E4F8016085A8
:103820007185828593850E94C52C0E94372D6B017E
:103830007C0120E030E040E051E4F80160817181DA
:10384000828193810E94C52C0E94372DDC01CB011F
:1038500000E120E144EC51E0D7CF02511B4FF801C9
:1038600060857185828593850E94372D6B017C016F
:10387000F80160817181828193810E94372DDC0182
:10388000CB0125E045E0B6010E94F00B339443CC18
:10389000312CBAE08B2E80914D01381608F0B8C358
:1038A000232D30E03A8729878901A4E0000F111FFA
:1038B000AA95E1F7A80142515C4F7A01FA012481EF
:1038C00035814681578160817181828193810E9417
:1038D000C62CA62EB72E6C01462F572FBC01F70120
:1038E000408351836283738324853585468557855C
:1038F00060857185828593850E94C62CF70160875B
:1039000071878287938720E030E040EA50ECB50170
:10391000C6010E94322D87FF0DC020E030E04AE052
:1039200053E4B501C6010E94C62CF7016083718380
:1039300082839383980122513C4F7901F9014080A1
:1039400051806280738020E030E045E053E4C301A1
:10395000B2010E941F2E18166CF420E030E04AE0FD
:1039600053E4C301B2010E94C52CF7016083718347
:1039700082839383980122513C4F7901F90140845D
:1039800051846284738420E030E040EA50ECC3014B
:10399000B2010E94322D87FF0DC020E030E044E9E3
:1039A00052E4C301B2010E94C62CF70160877187FF
:1039B00082879387980122513C4F7901F901408415
:1039C00051846284738420E030E04AE852E4C30109
:1039D000B2010E941F2E18166CF420E030E044E97A
:1039E00052E4C301B2010E94C52CF70160877187C0
:1039F00082879387912C980122513C4F3E832D83DF
:103A0000285F3F4F38872F832090AF01921408F032
:103A10003EC2A92CB12C8A9CF0018B9CF00D112484
:103A2000E15AFE4F60817181072E000C880B990BC3
:103A30000E946F2DED81FE81208131814281538171
:103A40000E94C52C6B017C0120E030E0A9010E949E
:103A50001F2E18165CF420E030E040E850E4C70167
:103A6000B6010E94322D18165CF44EC020E030E002
:103A700040E850ECC701B6010E941F2E87FD37C0F9
:103A80008A9CF0018B9CF00D1124E15AFE4F648159
:103A90007581072E000C880B990B0E946F2DEF810A
:103AA000F88520813181428153810E94C52C2B01F0
:103AB0003C0120E030E0A9010E941F2E18166CF492
:103AC00020E030E040E850E4C301B2010E94322D12
:103AD00018160CF04BC00C94202B20E030E040E88E
:103AE00050ECC301B2010E941F2E87FF3FC020E0AF
:103AF00030E0A901C701B6010E941F2E181624F05C
:103B0000F7FAF094F7F8F0948A9CF0018B9CF00D92
:103B10001124E15AFE4F64817581072E000C880B39
:103B2000990B0E946F2DEF81F885208131814281B0
:103B300053810E94C52C2B013C0120E030E0A901FB
:103B40000E941F2E181624F077FA709477F870945C
:103B5000A3019201C701B6010E94C62C20E030E00B
:103B600040EC50E40E94322D87FF8FC1F92C422D8A
:103B700050E0BA01615071092F2D30E02617370748
:103B800084F5C9010196889EF001899EF00D1124EB
:103B9000E15AFE4FC080D180829EC001839E900D6D
:103BA0001124DC01A15ABE4F1196DC92CE922281E3
:103BB000338113963C932E93129724813581159669
:103BC0003C932E9314972681378117963C932E931E
:103BD00016972085318519963C932E931897F39468
:103BE000CBCF849EF001859EF00D1124E15AFE4F4B
:103BF00011821082829CD0011124A15ABE4F1396CB
:103C00001C921E92129715821482178216821186B8
:103C100010862A942092AF016BE470E086E990E070
:103C20000E94F5068091540190915501049690935D
:103C3000550180935401E0904B01F0E1EF9EC001EB
:103C400011249C012A523E4F7901ED81FE81808131
:103C50009181A281B381F90180839183A283B3838F
:103C6000EF81F88580819181A281B381F9018087FC
:103C70009187A287B38764E170E080E090E00E94C2
:103C8000C8056A507109810991090E946F2D2DECB8
:103C90003CEC4CE45DE30E94242EF70164837583C1
:103CA00086839783E0904B01F12C64E170E080E023
:103CB00090E00E94C8059701E4E0220F331FEA95C7
:103CC000E1F7A9014A525E4F7A016A5071098109F0
:103CD00091090E946F2D2DEC3CEC4CE45DE30E94B9
:103CE000242EF7016487758786879787E0904B01BC
:103CF000F12C64E070E080E090E00E94C805F701DC
:103D0000EA54FE4F6083E0904B01E394E0924B0154
:103D1000F0E1EF9EC00111249C012A523E4F79012F
:103D2000ED81FE8180819181A281B381F90180833F
:103D30009183A283B383EF81F88580819181A281F1
:103D4000B381F90180879187A287B38764E170E02E
:103D500080E090E00E94C8056A50710981099109CC
:103D60000E946F2D2DEC3CEC4CE45DE30E94242E70
:103D7000F7016483758386839783E0904B01F12C70
:103D800064E170E080E090E00E94C8059701F4E0F3
:103D9000220F331FFA95E1F7A9014A525E4F7A01CB
:103DA0006A507109810991090E946F2D2DEC3CEC3C
:103DB0004CE45DE30E94242EF701648775878687B3
:103DC0009787E0904B01F12C64E070E080E090E098
:103DD0000E94C805F701EA54FE4F608380914B01B1
:103DE0008F5F80934B0120914D01422F50E0415055
:103DF0005109332D832F90E0841795070CF042C0B2
:103E0000DC011196FD01E252FC4F6081FC01E2529F
:103E1000FC4F608364E0AA0FBB1F6A95E1F7A251D3
:103E2000BC4FCD90DD90ED90FC90139774E0880F1F
:103E3000991F7A95E1F7FC01E251FC4FC082D182D3
:103E4000E282F3821496CD90DD90ED90FC9017976E
:103E5000C482D582E682F7821896CD90DD90ED90EF
:103E6000FC901B97C086D186E286F3861C968D91C6
:103E70009D910D90BC91A02D84879587A687B787CB
:103E80003F5FB8CF215020934D019394BDCDE9857C
:103E9000FA85E252FC4F8081813009F451C058F11B
:103EA000823009F475C0833009F097C002511C4F6D
:103EB00020E030E040E850E4F801608571858285BB
:103EC00093850E94C52C0E94372D6B017C0120E058
:103ED00030E040E850E4F801608171818281938193
:103EE0000E94C52C0E94372DDC01CB0108E028E0A0
:103EF00044E851E049C002511C4F20E030E040E866
:103F000050E4F80160857185828593850E94C52CF7
:103F10000E94372D6B017C0120E030E040E850E446
:103F2000F80160817181828193810E94C52C0E9479
:103F3000372DDC01CB0108E028E04CE951E024C03A
:103F400002511C4F20E030E040E850E4F801608569
:103F50007185828593850E94C52C0E94372D6B0147
:103F60007C0120E030E040E850E4F801608171819C
:103F7000828193810E94C52C0E94372DDC01CB01E8
:103F800008E028E044E951E0B6010E94D80C3EC0A8
:103F900002511C4F20E030E040E850E4F801608519
:103FA0007185828593850E94C52C0E94372D6B01F7
:103FB0007C0120E030E040E850E4F801608171814C
:103FC000828193810E94C52C0E94372DDC01CB0198
:103FD00008E028E04CE851E0D7CF02511C4FF8012F
:103FE00060857185828593850E94372D6B017C01E8
:103FF000F80160817181828193810E94372DDC01FB
:10400000CB0124E044E0B6010E94F00B339443CC92
:10401000F12CFAE0AF2E80914B01F81608F086C221
:104020002F2C312C8101E4E0000F111FEA95E1F7FC
:1040300098012A523E4F6901F90124813581468158
:10404000578160817181828193810E94C62C862E66
:10405000972EB82EE92E462F572FBC01F60140832C
:1040600051836283738324853585468557856085B2
:104070007185828593850E94C62CF60160877187C1
:104080008287938720E030E040EA50ECB4018B2D2A
:104090009E2D0E94322D87FF0EC020E030E04AE0C6
:1040A00053E4B4018B2D9E2D0E94C62CF601608333
:1040B00071838283938398012A523E4F6901F901EB
:1040C000408051806280738020E030E045E053E41E
:1040D000C301B2010E941F2E18166CF420E030E0DC
:1040E0004AE053E4C301B2010E94C52CF60160838B
:1040F00071838283938398012A523E4F6901F901AB
:10410000408451846284738420E030E040EA50ECC3
:10411000C301B2010E94322D87FF0DC020E030E0C4
:1041200044E952E4C301B2010E94C62CF601608743
:1041300071878287938798012A523E4F6901F9015E
:10414000408451846284738420E030E04AE852E481
:10415000C301B2010E941F2E18166CF420E030E05B
:1041600044E952E4C301B2010E94C52CF601608704
:10417000718782879387B12C98012A523E4F69013B
:10418000A901485F5F4F5E834D83E090AF01BE148D
:1041900008F00CC18B2C912CA89CF001A99CF00D6F
:1041A0001124E15AFE4F60817181072E000C880BAB
:1041B000990B0E946F2DF60120813181428153813C
:1041C0000E94C52C2B013C0120E030E0A9010E9497
:1041D0001F2E181664F420E030E040E050E4C301E4
:1041E000B2010E94322D18160CF4DEC00AC020E085
:1041F00030E040E050ECC301B2010E941F2E87FD69
:10420000D3C0A89CF001A99CF00D1124E15AFE4FE7
:1042100064817581072E000C880B990B0E946F2D0D
:10422000ED81FE8120813181428153810E94C52C24
:104230002B013C0120E030E0A9010E941F2E18163E
:1042400064F420E030E040E050E4C301B2010E9499
:10425000322D18160CF4A8C00AC020E030E040E06F
:1042600050ECC301B2010E941F2E87FD9DC06B2D33
:104270008E2D90E00197462F50E04817590784F59E
:104280009A012F5F3F4FA29ED001A39EB00D112433
:10429000A15ABE4F2D913C911197A49EF001A59E6D
:1042A000F00D1124E15AFE4F3183208312962D9197
:1042B0003C9113973383228314962D913C9115974B
:1042C0003583248316962D913C9117973783268347
:1042D00018962D913C911997318720876F5FCBCF2E
:1042E000EA94E092AF016BE470E086E990E00E940E
:1042F000F5068091540190915501089690935501CF
:104300008093540120914B01422F50E041505109BC
:104310003F2D832F90E0841795070CF042C0DC01FD
:104320001196FD01EA54FE4F6081FC01EA54FE4FF4
:10433000608364E0AA0FBB1F6A95E1F7AA52BE4FE3
:104340004D905D906D907C90139774E0880F991F4D
:104350007A95E1F7FC01EA52FE4F40825182628277
:10436000738214964D905D906D907C901797448267
:1043700055826682778218964D905D906D907C9004
:104380001B9740865186628673861C968D919D91FF
:104390000D90BC91A02D84879587A687B7873F5F36
:1043A000B8CF215020934B01B394EFCEF101EA54E2
:1043B000FE4F8081813009F451C058F1823009F4F8
:1043C00075C0833009F097C00A521E4F20E030E0DC
:1043D00040E050E4F80160857185828593850E94F4
:1043E000C52C0E94372D2B013C0120E030E040E03D
:1043F00050E4F80160817181828193810E94C52C13
:104400000E94372DDC01CB0104E024E044E751E0B9
:1044100049C00A521E4F20E030E040E050E4F8016D
:1044200060857185828593850E94C52C0E94372DF9
:104430002B013C0120E030E040E050E4F8016081D5
:104440007181828193810E94C52C0E94372DDC01ED
:10445000CB0104E024E040E851E024C00A521E4FA2
:1044600020E030E040E050E4F8016085718582850D
:1044700093850E94C52C0E94372D2B013C0120E022
:1044800030E040E050E4F8016081718182819381E5
:104490000E94C52C0E94372DDC01CB0104E024E0F2
:1044A0004CE751E0B2010E94D80C3EC00A521E4FA8
:1044B00020E030E040E050E4F801608571858285BD
:1044C00093850E94C52C0E94372D2B013C0120E0D2
:1044D00030E040E050E4F801608171818281938195
:1044E0000E94C52C0E94372DDC01CB0104E024E0A2
:1044F00048E751E0D7CF0A521E4FF8016085718519
:10450000828593850E94372D2B013C01F801608143
:104510007181828193810E94372DDC01CB0122E0E1
:1045200042E0B2010E94F00BF39475CD312C8091E2
:104530004C01381608F0E8C0F0E13F9E80011124DC
:10454000F801E251FB4F20915B0130915C014091F9
:104550005D0150915E0160817181828193810E9431
:10456000C52C6B017C0120E030E0A9010E941F2EC8
:1045700018165CF420E030E040EE50E4C701B601CC
:104580000E94322D87FFBEC00BC020E030E040EE1D
:1045900050ECC701B6010E941F2E18160CF0B2C0D5
:1045A00020915701309158014091590150915A0181
:1045B000F801E251FB4F60857185828593850E94E9
:1045C000C52C6B017C0120E030E0A9010E941F2E68
:1045D00018165CF420E030E040EE50E4C701B6016C
:1045E0000E94322D87FF8EC00BC020E030E040EEED
:1045F00050ECC701B6010E941F2E18160CF082C0A5
:1046000062E370E086E990E00E94F5060E94C80827
:10461000E0904D01F12C02511B4FF80184809580F0
:10462000A680B780C701A4E0880F991FAA95E1F77B
:104630009C0122513C4F6901A50194016081718167
:10464000828193810E94C62CF601608371838283EC
:104650009383F8014484558466847784A30192018E
:1046600060857185828593850E94C62CF6016087DE
:10467000718782879387D501C401B058848395835D
:10468000A683B78377FA709477F87094448655863A
:104690006686778664E070E080E090E00E94C8055E
:1046A000F701E252FC4F608380914D018F5F809350
:1046B0004D0160914C01462F50E041505109732D3E
:1046C000272F30E024173507D4F4E4E0220F331FFE
:1046D000EA95E1F780E090E0FC01E20FF31FE25180
:1046E000FB4FC088D188E288F388C082D182E28201
:1046F000F38204968031910579F77F5FE1CF6150B5
:1047000060934C01339413CF312C80914D013816B6
:1047100008F0E8C0F0E13F9E80011124F801E25169
:10472000FC4F20915B0130915C0140915D01509103
:104730005E0160817181828193810E94C52C6B0131
:104740007C0120E030E0A9010E941F2E18165CF4C5
:1047500020E030E040EA50E4C701B6010E94322D6B
:1047600087FFBEC00BC020E030E040EA50ECC7013C
:10477000B6010E941F2E18160CF0B2C020915701EE
:10478000309158014091590150915A01F801E2517C
:10479000FC4F60857185828593850E94C52C6B01D5
:1047A0007C0120E030E0A9010E941F2E18165CF465
:1047B00020E030E040EA50E4C701B6010E94322D0B
:1047C00087FF8EC00BC020E030E040EA50ECC7010C
:1047D000B6010E941F2E18160CF082C062E370E032
:1047E00086E990E00E94F5060E94C808E0904B011F
:1047F000F12C02511C4FF80184809580A680B7806F
:10480000C70124E0880F991F2A95E1F79C012A52DD
:104810003E4F6901A501940160817181828193817C
:104820000E94C62CF6016083718382839383F80112
:104830004484558466847784A301920160857185E0
:10484000828593850E94C62CF601608771878287D6
:104850009387D501C401B05884839583A683B78319
:1048600077FA709477F870944486558666867786D2
:1048700064E070E080E090E00E94C805F701EA542F
:10488000FE4F608380914B018F5F80934B0160915D
:104890004D01462F50E041505109732D272F30E034
:1048A00024173507D4F4B4E0220F331FBA95E1F78B
:1048B00080E090E0FC01E20FF31FE251FC4FC08862
:1048C000D188E288F388C082D182E282F3820496A2
:1048D0008031910579F77F5FE1CF615060934D01A1
:1048E000339413CFF12C80914B01F81608F096C049
:1048F000F0E1FF9E80011124F801EA52FE4F209161
:104900005B0130915C0140915D0150915E016081DD
:104910007181828193810E94C52C4B015C0120E052
:1049200030E0A9010E941F2E18165CF420E030E050
:1049300040E450E4C501B4010E94322D87FF6CC0F1
:104940000BC020E030E040E450ECC501B4010E940F
:104950001F2E18160CF060C0F801EA52FE4F20918D
:104960005701309158014091590150915A01608589
:104970007185828593850E94C52C4B015C0120E0E6
:1049800030E0A9010E941F2E18165CF420E030E0F0
:1049900040E450E4C501B4010E94322D87FF3CC0C1
:1049A0000AC020E030E040E450ECC501B4010E94B0
:1049B0001F2E18168CF568EC70E080E090E00E94E5
:1049C00011060E94C80860914B01462F50E04150EB
:1049D00051097F2D272F30E024173507D4F4A4E0A8
:1049E000220F331FAA95E1F780E090E0FC01E20F6F
:1049F000F31FEA52FE4F80889188A288B388808294
:104A00009182A282B38204968031910579F77F5F0B
:104A1000E1CF615060934B01F39465CF90914C01CD
:104A2000992309F442C081E08093BB0982E090E0C1
:104A30009093B6098093B5090AE010E01093B80985
:104A40000093B709609154017091550180E090E0A6
:104A50004AE00E94ED0D80E290E09093B6098093C9
:104A6000B5091093B8090093B7096091530170E03C
:104A700080E090E04AE00E94ED0D88E790E090939E
:104A8000B6098093B5091093B8090093B7098091CE
:104A90005601082E000C990B0E94EE0E80915601D3
:104AA0008111B3C00E948908B0C090914D0191114D
:104AB000BACF8111B8CF80914A01815080934A01C9
:104AC00018160CF4B0CF88E780934A018091530107
:104AD000883018F48F5F80935301F12C809153013B
:104AE00090E02F2D0F2C000C330B281739070CF0FA
:104AF0009ACF00914C0110E06AE470E080E090E011
:104B00000E94C80544E0000F111F4A95E1F70251C9
:104B10001B4F605A7F4F8F4F9F4F0E946F2DF801A0
:104B2000608371838283938300914C0110E06AE279
:104B300070E080E090E00E94C80554E0000F111F73
:104B40005A95E1F702511B4F605D7F4F8F4F9F4F8A
:104B50000E946F2DF801608771878287938700918B
:104B60004C0110E064E170E080E090E00E94C80534
:104B7000E4E0000F111FEA95E1F702511B4F6A5064
:104B80007109810991090E946F2D2DEC3CEC4CE4D8
:104B90005DE30E94242EF8016483758386839783E6
:104BA00000914C0110E064E170E080E090E00E9430
:104BB000C805F4E0000F111FFA95E1F702511B4FF1
:104BC0006A507109810991090E946F2D2DEC3CEC0E
:104BD0004CE45DE30E94242EF80164877587868784
:104BE000978700914C0110E064E070E080E090E075
:104BF0000E94C805F801EA52FC4F608380914C0185
:104C00008F5F80934C01F39469CF88E00E94D70DA9
:104C1000882309F455C384E009C068EB7BE080E099
:104C200090E00E9411060E94890882E08093B501FD
:104C300047C334E6E32EF12C00E0BE016D5F7F4FE9
:104C4000C7010E9473088B819C81019611F41C821C
:104C50001B8220915401309155018B819C818217D8
:104C6000930708F098C180E28093700580937105E6
:104C70008093720510E0E0E4EE2EF12CF8E4CF2EE4
:104C8000D12CA1E2BA2EB0E3AB2E81E4982E9FE2A4
:104C9000892E2AE5722E13300CF017C10E94750E72
:104CA0008823C9F30E946C0E20E130E03093B609EE
:104CB0002093B5091092B8091092B70989E691E0DE
:104CC0000E943E0E48E550E05093B6094093B50966
:104CD0001092B8091092B709609154017091550172
:104CE00080E090E04AE00E94ED0D88E390E0909330
:104CF000B6098093B509E4E1F0E0F093B809E093D8
:104D0000B709809170050E94E20DF092B609E09219
:104D1000B50924E130E03093B8092093B7098091B8
:104D200071050E94E20DD092B609C092B50944E126
:104D300050E05093B8094093B709809172050E94E2
:104D4000E20D2BE130E04EE350E06BE170E088E3F0
:104D500090E00E946B0B2BE130E046E450E06BE109
:104D600070E080E490E00E946B0B2BE130E04EE4B9
:104D700050E06BE170E088E490E00E946B0B812FC3
:104D8000012E000C990B079673E0880F991F7A95F6
:104D9000E1F7AC014A5F5F4F2CE130E06CE170E07D
:104DA0000E946B0B66E970E080E090E00E941106C3
:104DB00080E20E94D70D882349F068EC70E086E11C
:104DC00094E00E94F506115017FD10E080E40E9467
:104DD000D70D882351F01F5F13300CF012E068EC00
:104DE00070E086E194E00E94F5060E94180784FFB7
:104DF00026C0812F012E000C990BFC01E059FA4FBF
:104E00002F0180818F5F808366E970E08BE092E004
:104E10000E94F506F2018081803311F480E28083E4
:104E2000F2018081813209F49082F20180818B3518
:104E300009F4A082F2018081803409F4B0820E94DA
:104E4000180787FF28C0812F012E000C990B9C01A9
:104E500020593A4F2901F90180818150808366E908
:104E600070E08BE092E00E94F506F20180818032D2
:104E700011F48FE38083F20180818F3209F4708214
:104E8000F20180818F3109F48082F20180818034C7
:104E900011F480E280830E94180783FF09C012305A
:104EA0003CF01F5F68EC70E086E194E00E94F5063C
:104EB0008091A8098093A9090E9418078093A809E6
:104EC00083EA99E00E946907E6CE702EF5E07F9EA6
:104ED00080011124480124E6820E911CBE016D5F01
:104EE0007F4FC4010E9473088B819C81019611F44D
:104EF0001C821B82580146E6A40EB11CC5010E940B
:104F00008708482E680157E6C50ED11CC6010E94CD
:104F10008708582E780188E6E80EF11CC7010E9428
:104F20008708682E609154019A828982CE01019689
:104F30000E944B0B609155010B591F4F1A83098337
:104F4000CE0101960E944B0B60917005C5010E9435
:104F5000542C60917105C6010E94542C6091720519
:104F6000C7010E94542C8B819C81909355018093A2
:104F700054014092700550927105609272057394CD
:104F800097E07912A3CF80E280937005809371053A
:104F90008093720507C00F5FE5E0EE0EF11C07304D
:104FA00009F04BCE0E94A7088BC180E290E090935D
:104FB000B6098093B5091092B8091092B70981E03B
:104FC0008093BB094BE050E06DE371E08FE999E01D
:104FD0000E94CB0459E0C52ED12C04E610E0E12C50
:104FE000F12C6EE1A62EB12C64E571E0C8010E949F
:104FF00073088091540190915501019621F410920B
:10500000550110925401C80102960E9487088093AE
:105010007005C80103960E94870880937105C80136
:1050200004960E94870880937205B092B609A092F8
:10503000B509D092B809C092B7092FEFE21AF20A67
:10504000C7010E94EE0E87E692E00E943E0E80911C
:1050500070050E94E20D809171050E94E20D809121
:1050600072050E94E20D85E692E00E943E0E60917C
:1050700054017091550180E090E04AE00E94ED0DEE
:1050800010925501109254010B5F1F4F38E0C30E70
:10509000D11C47E0E416F10409F0A6CF88E00E9495
:1050A000D70D81111092B5018091A6099091A709A1
:1050B0006FE070E00E94DE2E892B79F40E94D20E00
:1050C0009C0140E050E060E070E381E190E00E94EC
:1050D000622C30936F0520936E0584E690E09093E8
:1050E000B6098093B50982E390E09093B809809364
:1050F000B70964C080E290E09093B6098093B50947
:105100008EE190E09093B8098093B70982E0809394
:10511000BB098FE592E00E943E0E84E00E94D70D0D
:10512000882319F081E08093B50188E00E94D70DB3
:1051300081110E94A70880E80E94D70D811105C047
:1051400080E10E94D70D882389F080915201882345
:1051500009F466C20E9446076091520182E090E025
:105160009A838983CE0101960E944B0B8091A609F8
:105170009091A70964E170E00E94DE2E892B79F4FA
:105180000E94D20E9C0140E050E060E070E381E1BB
:1051900090E00E94622C30936F0520936E0584E6A8
:1051A00090E09093B6098093B50982E390E09093E4
:1051B000B8098093B70981E08093BB0960916E05BF
:1051C00070916F0580E090E04AE00E94ED0D78C09C
:1051D0000EE010E01093B6090093B50980E290E06C
:1051E0009093B8098093B70981E08093BB098DE45F
:1051F00092E00E943E0E1093B6090093B50988E232
:1052000090E09093B8098093B7098BE392E00E94F5
:105210003E0E0E9418078474843409F04BC024E6C3
:10522000A22EB12C34E2C32ED12C40E2E42EF12C7C
:105230000E946C0ED092B609C092B50900E210E04F
:10524000F092B809E092B70980E392E00E943E0E26
:1052500083EA99E00E946907BA82A9826FEFCE01C2
:1052600001960E944B0B5FEFA51AB50A87E8A816B6
:10527000B104F1F664EF71E080E090E00E94110665
:105280001093B6090093B5091093B8090093B709B4
:105290000E946C0E84E292E00E943E0E83EA99E046
:1052A0000E94690768EE73E080E090E00E941106BA
:1052B0001092B50188E00E94D70D81111092B501BE
:1052C00080915201882309F43FC080918D0990910B
:1052D0008C09906C90938C09806C80938D0921E0EF
:1052E0004EE350E06DE770E083EA99E00E947807B2
:1052F00021E04FE350E06DE770E083EA99E00E941F
:10530000780721E04EE350E06EE770E083EA99E031
:105310000E94780721E04FE350E06EE770E083EAF7
:1053200099E00E9478072FE330E04EE750E06BE30E
:1053300070E08EE790E00E946B0B41E06CE370E060
:105340008FE790E00E94510783EA99E00E94690785
:105350008091A8098093A9090E9418078093A80941
:1053600080E090E0892B11F40C948C150E940000D1
:105370000C948C15A92CB12C0091B401002E000CBA
:10538000110B780193E0EE0CFF1C9A95E1F7F70101
:10539000E750FD4F659175918591949120E030E043
:1053A00040EA51E40E94242E0E94912E4AE04A9D38
:1053B00090014B9D300D1124F901E15AFE4F6F0110
:1053C0000E94372DF60173836283F701E350FD4F8E
:1053D000659175918591949120E030E040EA51E427
:1053E0000E94242E0E94912E0E94372DF601778371
:1053F0006683F801E756FD4FE4916E2FEE0F770BB1
:10540000880B990B0E946F2D20915B0130915C01FC
:1054100040915D0150915E010E94C62C0E94372D83
:10542000F60171836083F801EF54FD4FE4916E2F14
:10543000EE0F770B880B990B0E946F2D209157016F
:10544000309158014091590150915A010E94C62C47
:105450000E94372DF6017583648384E690E091877E
:10546000808793949092AF010C9425160E944B076D
:105470000C945E16A92CB12C0091B401002E000CE6
:10548000110B780183E0EE0CFF1C8A95E1F7F70120
:10549000E750FD4F659175918591949120E030E042
:1054A00040EA51E40E94242E0E94912E4AE04A9D37
:1054B00090014B9D300D1124A901415A5E4F6A01A4
:1054C0000E94372DF60173836283F701E350FD4F8D
:1054D000659175918591949120E030E040EA51E426
:1054E0000E94242E0E94912E0E94372DF601778370
:1054F0006683F801E756FD4FE4916E2FEE0F770BB0
:10550000880B990B0E946F2D20915B0130915C01FB
:1055100040915D0150915E010E94C62C0E94372D82
:10552000F60171836083F801EF54FD4FE4916E2F13
:10553000EE0F770B880B990B0E946F2D209157016E
:10554000309158014091590150915A010E94C62C46
:105550000E94372DF6017583648384E690E091877D
:10556000808793949092AF0164E070E08CE494E0C3
:105570000E94F50664E070E080E090E00E94110671
:1055800064E070E088EE93E00E94F50664E070E06D
:1055900080E090E00E94110664E070E084E893E00F
:1055A0000E94F50664E070E080E090E00E94110641
:1055B00064E070E080E293E00E94F50664E070E051
:1055C00080E090E00E94110664E070E08CEB92E0D5
:1055D0000E94F50664E070E080E090E00E94110611
:1055E00064E070E088E592E00E94F50664E070E017
:1055F00080E090E00E94110664E070E084EF91E0AA
:105600000E94F50664E070E080E090E00E941106E0
:1056100064E070E080E991E00E94F5060C94861841
:105620000E944B0799CD20E030E0A901C701B601E7
:105630000E941F2E181614F00C94C0190C94E8192F
:1056400020E030E0A901C701B6010E941F2E181604
:1056500014F00C94801D0C94A81D0F931F93CF93EE
:10566000DF93EC0181E090E00E944C2C80FF2EC083
:105670008AE090E00E944C2C9FEF980F9E3F30F5FF
:1056800022E330E03F8B2E8B28E330E0398F288FE8
:105690000BE010E0E881F9810190F081E02D682FA6
:1056A000CE010995C8010E944C2C0F5F1F4F01319C
:1056B000110581F7CE0104960E94690788EE93E0F8
:1056C000DF91CF911F910F910C941307DF91CF9130
:1056D0001F910F91089504970C942D2BE9ECF9E09C
:1056E0001382128288EE93E0A0E0B0E08483958379
:1056F000A683B78384E191E0918380838FEF9FEF4E
:1057000095878487EFE9F9E0138212821186128669
:1057100020E1238790878783108A118A128A138A4F
:10572000148A86E291E09183808384E391E09583FB
:105730008483178A168A118E108E81E0828F138ED1
:10574000848F158E8EEB95E090939E0980939D0932
:1057500080E090E890939C0980939B0946983E9A3C
:1057600047983F9A0895CF92DF92EF92FF920F935E
:105770001F93CF93DF931F92CDB7DEB7182F062F5D
:10578000E42E862F880F8E5F99830E942B1083E072
:105790000E942B10F12EC12E9981D92E8C2D8F199C
:1057A000801798F4F601E7FE02C0849101C0808161
:1057B0000E942B10182F80E00E942B108123FFEFF6
:1057C000CF1ADF0A8111EACF01C081E00F90DF918B
:1057D000CF911F910F91FF90EF90DF90CF900895A0
:1057E0008F929F92AF92BF92CF92DF92EF92FF92F1
:1057F000CF93DF93EC01688179818A819B81611568
:1058000071058105910521F464E279ED8BE597E05E
:105810002DE133EF41E050E00E94622C49015A0132
:105820009B01AC01A7EAB1E40E94812C6B017C01D1
:10583000ACEEB4EFA50194010E948F2CDC01CB01EA
:105840008C0D9D1DAE1DBF1DB7FF03C00197A109A3
:10585000B04888839983AA83BB83BC01CD019F771D
:10586000DF91CF91FF90EF90DF90CF90BF90AF90FE
:105870009F908F9008950E94F02B08958CE091E006
:105880000E94F02B089560930C0170930D0180939A
:105890000E0190930F010895F999FECF92BD81BD3D
:1058A000F89A992780B50895262FF999FECF1FBA47
:1058B00092BD81BD20BD0FB6F894FA9AF99A0FBE39
:1058C00001960895052E97FB1EF400940E94792CF2
:1058D00057FD07D00E94942C07FC03D04EF40C9483
:1058E000792C50954095309521953F4F4F4F5F4F04
:1058F000089590958095709561957F4F8F4F9F4F3C
:1059000008950E94B62CA59F900DB49F900DA49F62
:10591000800D911D11240895B7FF0C94812C0E94D5
:10592000812C821B930B0895A1E21A2EAA1BBB1B8C
:10593000FD010DC0AA1FBB1FEE1FFF1FA217B3075B
:10594000E407F50720F0A21BB30BE40BF50B661F71
:10595000771F881F991F1A9469F760957095809535
:1059600090959B01AC01BD01CF010895A29FB001AC
:10597000B39FC001A39F700D811D1124911DB29F83
:10598000700D811D1124911D08955058BB27AA2721
:105990000E94DD2C0C94E52D0E94D72D38F00E943A
:1059A000DE2D20F039F49F3F19F426F40C94D42D09
:1059B0000EF4E095E7FB0C94CE2DE92F0E94F62D16
:1059C00058F3BA17620773078407950720F079F434
:1059D000A6F50C94182E0EF4E0950B2EBA2FA02DE0
:1059E0000B01B90190010C01CA01A0011124FF278C
:1059F000591B99F0593F50F4503E68F11A16F04087
:105A0000A22F232F342F4427585FF3CF4695379585
:105A10002795A795F0405395C9F77EF41F16BA0B4A
:105A2000620B730B840BBAF09150A1F0FF0FBB1FF8
:105A3000661F771F881FC2F70EC0BA0F621F731F41
:105A4000841F48F4879577956795B795F7959E3F9E
:105A500008F0B0CF9395880F08F09927EE0F97952F
:105A6000879508950E94AA2D08F481E008950E9468
:105A70003E2D6894B1110C94192E08950E94FE2DAC
:105A800088F09F5798F0B92F9927B751B0F0E1F0FF
:105A9000660F771F881F991F1AF0BA95C9F714C0AF
:105AA000B13091F00E94182EB1E008950C94182E98
:105AB000672F782F8827B85F39F0B93FCCF38695E8
:105AC00077956795B395D9F73EF490958095709545
:105AD00061957F4F8F4F9F4F0895E89409C097FBC2
