:100000000C9459040C9481040C9481040C94810484
:100010000C9481040C9481040C9481040C9481044C
:100020000C9481040C9481040C9454130C94C61306
:100030000C9481040C9481040C9481040C9481042C
:100040000C9481040C9481040C9481040C9481041C
:100050000C9481040C9481040C9481040C94DA16A1
:100060000C9481040C9481040C9481040C948104FC
:100070000C9481040C9481040C9481040C948104EC
:100080000C9424170C9481040C9481040C94810426
:100090000C9481040C9481040C9481040C948104CC
:1000A0000C9481040C9481040C948104F0F89C8ECF
:1000B0008783878E9CF8F00000FEFF030303030391
:1000C000070EFCF80000FEFF0303030303070EFC0A
:1000D000F80000FFFF00000000000000FFFF00002C
:1000E000FEFF8383838383C7EE7C380000F8FC0E19
:1000F00007030303070EFCF800003F7FE0C0808089
:10010000C0E07F3FFFFF01010101010101FFFF008E
:1001100000FFFF0C0C0C0C1C3E77E3C100007FFFBE
:10012000C0C0C0C0C0E0703F1F00001F3F70E0C0F3
:10013000C0C0E0703F1F00007FFFC1C1C1C1C1E36B
:10014000773E1C00001F3F70E0C0C0C0E0703F1F42
:10015000000000000001FFFF01000000D5F08D1439
:10016000A1C881CFD9F1AF20004849474820534367
:100170004F524500040A090606090906020D090640
:10018000060A090F18264181824224181824444285
:100190004222221C3C4283818182621C265A814277
:1001A0004181413E0000C0300C02020202040404FE
:1001B00008F0000000000003041820202020101088
:1001C000080807000080601008040202020202040E
:1001D0000830C0000001020C1020404040402010B8
:1001E000080403000000C0300C0404020204040CE4
:1001F00030C00000000F1020202020404040201080
:100200000804030000C040404080806018040204DD
:100210000830C00000030C10202040404040242A39
:100220001201010045524541534520444F4E4500BF
:10023000574F524B494E472E2E2E00535441525485
:10024000203D205249474854202B2042004552452A
:10025000415345204849474853434F52453F00507A
:1002600041555345002000200003030201FFFEFD1D
:10027000FEFF01020303FDFEFF0102030201FFFE78
:10028000FD03030303030303FDFDFDFDFDFDFDFD74
:10029000FDFDFD0303030303030002030303040442
:1002A000040303030200FEFDFDFDFCFCFCFDFDFD5F
:1002B000FEFCFCFDFDFDFE00020303030404040339
:1002C00003030200FEFDFDFDFCFDFDFDFDFDFDFD4A
:1002D000FDFDFDFDFDFD0303030303030303030312
:1002E00003030201FFFEFDFD030201FFFEFDFEFF11
:1002F000010203FDFDFEFF010200EC05ED0AEF0E19
:10030000F211F613FB14001305110A0E0E0A110563
:10031000130014FB13F611F20EEF0AED05EC00EDDD
:10032000FBEFF6F2F2F6EFFBED41535445524F4925
:1003300044530000000000003E5B4F5B3E3E6B4FAD
:100340006B3E1C3E7C3E1C183C7E3C181C577D5767
:100350001C1C5E7F5E1C00183C1800FFE7C3E7FF13
:100360000018241800FFE7DBE7FF30483A060E26A6
:1003700029792926407F050507407F05253F5A3CFE
:10038000E73C5A7F3E1C1C08081C1C3E7F14227F41
:1003900022145F5F005F5F06097F017F0066899519
:1003A0006A606060606094A2FFA29408047E040802
:1003B00010207E201008082A1C08081C2A08081E85
:1003C000101010100C1E0C1E0C30383E3830060E6B
:1003D0003E0E06000000000000005F000000070065
:1003E0000700147F147F14242A7F2A122313086421
:1003F0006236495620500008070300001C224100C5
:100400000041221C002A1C7F1C2A08083E08080004
:1004100080703000080808080800006060002010A4
:100420000804023E5149453E00427F40007249495E
:1004300049462141494D331814127F10274545453F
:10044000393C4A4949314121110907364949493660
:10045000464949291E0000140000004034000000F5
:100460000814224114141414140041221408020127
:100470005909063E415D594E7C1211127C7F494953
:1004800049363E414141227F4141413E7F494949F0
:10049000417F090909013E414151737F0808087FE6
:1004A00000417F41002040413F017F081422417FED
:1004B000404040407F021C027F7F0408107F3E4185
:1004C00041413E7F090909063E4151215E7F0919DC
:1004D0002946264949493203017F01033F404040F4
:1004E0003F1F2040201F3F4038403F6314081463E3
:1004F00003047804036159494D43007F414141029F
:1005000004081020004141417F04020102044040E0
:10051000404040000307080020545478407F28449E
:1005200044383844444428384444287F3854545488
:100530001800087E090218A4A49C787F0804047897
:1005400000447D40002040403D007F1028440000D2
:10055000417F40007C047804787C080404783844A7
:10056000444438FC1824241818242418FC7C08045B
:100570000408485454542404043F44243C4040207C
:100580007C1C2040201C3C4030403C442810284427
:100590004C9090907C4464544C44000836410000D8
:1005A00000770000004136080002010204023C26E8
:1005B00023263C1EA1A161123A4040207A385454AF
:1005C0005559215555794121545478412155547834
:1005D0004020545579400C1E5272123955555559C8
:1005E000395454545939555454580000457C4100ED
:1005F00002457D420001457C40F0292429F0F02885
:100600002528F07C545545002054547C547C0A091C
:100610007F4932494949323248484832324A48488B
:10062000303A4141217A3A42402078009DA0A07D95
:1006300039444444393D4040403D3C24FF24244853
:100640007E4943662B2FFC2F2BFF0929F620C088FB
:100650007E090320545479410000447D41304848CC
:100660004A32384040227A007A0A0A727D0D1931E6
:100670007D2629292F28262929292630484D402042
:10068000380808080808080808382F10C8ACBA2F1E
:10069000102834FA00007B000008142A14222214C7
:1006A0002A14089500220095AA005500AAAA55AA66
:1006B00055AA000000FF00101010FF00141414FFD2
:1006C000001010FF00FF1010F010F0141414FC00C4
:1006D0001414F700FF0000FF00FF1414F404FC14CE
:1006E0001417101F10101F101F1414141F001010C7
:1006F00010F0000000001F101010101F101010103C
:10070000F010000000FF101010101010101010FF5B
:1007100010000000FF140000FF00FF00001F101772
:100720000000FC04F414141710171414F404F4005B
:1007300000FF00F714141414141414F700F7141421
:1007400014171410101F101F141414F4141010F0A8
:1007500010F000001F101F0000001F14000000FC1C
:10076000140000F010F01010FF10FF141414FF1408
:100770001010101F00000000F010FFFFFFFFFFF03F
:10078000F0F0F0F0FFFFFF0000000000FFFF0F0F90
:100790000F0F0F38444438447C2A2A3E147E02024C
:1007A0000606027E027E0263554941633844443C9A
:1007B00004407E201E2006027E020299A5E7A5992C
:1007C0001C2A492A1C4C7201724C304A4D4D303063
:1007D00048784830BC625A463D3E494949007E014E
:1007E00001017E2A2A2A2A2A44445F444440514A6D
:1007F000444040444A51400000FF0103E080FF00B4
:100800000008086B6B083612362436060F090F06EF
:10081000000018180000001010003040FF01010017
:100820001F01011E00191D1712003C3C3C3C00003A
:100830000000000102040810204080080B000202A2
:10084000020100090400000102020000052400105A
:100850000105240101010424020605240600010704
:1008600005810310004009040100020A000000078E
:10087000050202400000070583024000000403094E
:100880000412010002EF0201404123368000010101
:1008900002030141726475696E6F204C4C43004144
:1008A000726475696E6F204C656F6E6172646F0063
:1008B000C72E11241FBECFEFDAE0DEBFCDBF11E09F
:1008C000A0E0B1E0E8E6F3E602C005900D92AA349C
:1008D000B107D9F728E0AAE4B1E001C01D92A8351C
:1008E000B207E1F714E0C9E5D4E004C02197FE01A6
:1008F0000E94A731C835D107C9F70E94331C0C9458
:10090000B2310C9400000895089580E090E00895BD
:10091000EEECF3E080E0A0E0B8E000800EBC8111D6
:10092000012C1197A0FDFDCF0192B9F70895CB01DD
:10093000BA018038910530F44034510518F4422F43
:100940000C94E01708952F923F924F925F926F920E
:100950007F928F929F92AF92BF92CF92DF92EF924F
:10096000FF920F931F93CF93DF93CDB7DEB72997F5
:100970000FB6F894DEBF0FBECDBFFC016A3069F43C
:10098000248D808D918D38E0239F800D911D112441
:10099000918F808F178A168AAAC06D3009F4A7C07C
:1009A00099878887F48C338C228C608C718C0689B3
:1009B000178900381105C4F0A885B9855C962C917B
:1009C0005C97422F50E056968D919C915797B6E0D8
:1009D0002B9F800D911D1124E885F985978B868BBF
:1009E000258D21116EC083C0F0E46F16710424F7C9
:1009F000C80125E0F29E800D911D112418161906DC
:100A0000DCF68F2D90E09C838B83C301A8E0FA9ED7
:100A1000800D911D11241816190674F6B5E06B9F10
:100A2000B0011124FB01ED5CFC4FFA83E98330E057
:100A30008885998504969E838D83E981FA81E49067
:100A4000353009F4E12C430188E0482EE0FC02C077
:100A5000532C01C0522C51100BC0321009C0E69427
:100A60004A948B819C81880E991E4110EFCF1BC048
:100A700068018C2D801B8F1590F754018A2D8819E1
:100A80008F1568F4252DA501B6018D819E813F83C8
:100A90000E9497049FEFA91AB90A3F81EFCFAFEFE9
:100AA000CA1ADA0AE6CF3F5FEB81FC810E0F1F1FE7
:100AB00089819A8101969A838983363009F0BDCF66
:100AC0007BCF6AEF64039001659F300D112420589D
:100AD0003F4F281739075CF4A885B985ED91FC9143
:100AE00011970190F081E02D6AE0CD01099581E038
:100AF00090E029960FB6F894DEBF0FBECDBFDF9110
:100B0000CF911F910F91FF90EF90DF90CF90BF900A
:100B1000AF909F908F907F906F905F904F903F909D
:100B20002F9008950F931F93CF93DF938C01EB01C8
:100B30000E94682F8883C80101960E94682F8983CC
:100B4000CE01DF91CF911F910F9108950C94682FE2
:100B500010924B0310924703109246031092A70382
:100B60001092A60388E790E090934F0380934E0382
:100B70001092A503109248031092490310924A0361
:100B8000089588E893E1909352038093510380E0A5
:100B900099E190935403809353030E94A805109207
:100BA000A90310924D0310924C03089580E19FEF2A
:100BB00090934F0380934E0362E370E086E990E0E8
:100BC0000E9484178091500381508093500380E0ED
:100BD00099E1909354038093530380E89CE09093B1
:100BE0005203809351031092A7031092A603109210
:100BF00047031092460308952F923F924F925F92BF
:100C00006F927F928F929F92AF92BF92CF92DF921C
:100C1000EF92FF920F931F93CF93DF93CDB7DEB781
:100C200029970FB6F894DEBF0FBECDBF80914E035B
:100C300090914F0397FFFAC4312C232D30E080911F
:100C40004A03082E000C990B281739070CF0DEC157
:100C50002901F3E0440C551CFA95E1F75B824A82C6
:100C6000F201EB5FFC4F0081118120915303309121
:100C70005403A801421B530BA091A8030A2E000C99
:100C8000BB0BBD0167597D4FFB0184917A01E80ED2
:100C9000F11C87FDFA948091510390915203FD015C
:100CA00078964F01FB011E141F043CF4F4902A01B6
:100CB0004F0C511CF7FC5A9409C0F490F901E01B49
:100CC000F10B2F014F185108F7FC5394E4EF4E1627
:100CD000E1E05E067CF5EA81FB81EB5FFC4FA480DE
:100CE000B5807501E81AF90AF401E759FD4FD4906F
:100CF00027014D0C511CD7FC5A941414150464F4AC
:100D0000E491EE0EF11CE7FDFA94E4EFEE16E1E05B
:100D1000FE060CF42FC50EC0E4917C01EA18FB0816
:100D2000EE1AF108E7FDF394F4EFEF16F1E0FF0699
:100D30000CF420C5FB01F490FA01EF0DF11DF7FC56
:100D4000FA951E161F0644F4FB0164915A01A60E83
:100D5000B11C67FDBA9409C0FB0164915901A01A46
:100D6000B10AA61AB10867FDB394EA81FB81EB5F73
:100D7000FC4FC280D3807601E81AF90AF401E759E2
:100D8000FD4F64912701460E511C67FD5A941414BF
:100D900015043CF4E491B7016E0F711DE7FD7A95DF
:100DA00008C0E491BC016C197D096E1B7109E7FD57
:100DB0007395A60EB71E6CEBA61662E0B6060CF491
:100DC000D9C4BD0167567D4FFB01B4904A018B0C1D
:100DD000911CB7FC9A94FD01E85BFF4F2F01FB01CA
:100DE000181419043CF4B4903A016B0C711CB7FC54
:100DF0007A9409C0B490F901E01BF10B3F016B1824
:100E00007108B7FC7394E4EF6E16E1E07E0664F5BA
:100E1000EA81FB81EB5FFC4F648075804301881A97
:100E2000990AF201E759FD4F5F012490F401E20DA8
:100E3000F11D27FCFA951E161F063CF4F501A4903F
:100E40008A0C911CA7FC9A9409C0F501A4904C014E
:100E5000861897088A189108A7FC9394F4EF8F16C8
:100E6000F1E09F060CF486C4FB01B490FA01EB0D8F
:100E7000F11DB7FCFA951E161F0644F4FB016491A0
:100E80005A01A60EB11C67FDBA9409C0FB0164911A
:100E90005901A01AB10AA61AB10867FDB394F2016C
:100EA000E759FD4F64912701460E511C67FD5A9486
:100EB000141415043CF4E491B7016E0F711DE7FDA5
:100EC0007A9508C0E491BC016C197D096E1B71090B
:100ED000E7FD7395A60EB71E6CEBA61662E0B6068C
:100EE0000CF448C4BD0167537D4FFB01B4904A0127
:100EF0008B0C911CB7FC9A94FD01E858FF4F3F0101
:100F0000FB01181419043CF4A491FA01EA0FF11D35
:100F1000A7FDFA9508C0A491F901E01BF10BEA1BAB
:100F2000F109A7FDF395E43FF14074F5EA81FB81F7
:100F3000EB5FFC4F848095805401A81AB90AF30135
:100F4000E759FD4FA49125014A0E511CA7FD5A9463
:100F5000D2011A161B0664F4E491AE0EB11CE7FD33
:100F6000BA94A4EFAA16A1E0BA060CF403C40CC00C
:100F7000E491DC01A819B909AE1BB109E7FDB395ED
:100F8000A43FB1400CF4F6C3FB01A491FA01EA0FAF
:100F9000F11DA7FDFA951E161F063CF4FB01649196
:100FA000460F511D67FD5A9509C0FB016491A901C7
:100FB000401B510B461B510967FD5395F301E7593F
:100FC000FD4F24912701420E511C27FD5A94141401
:100FD000150434F4E491EE0EF11CE7FDFA9408C018
:100FE000E4918C199D097C01EE1AF108E7FDF39458
:100FF000E40EF51E0CEBE01602E0F0060CF4BAC3AA
:1010000003C0815080934A03339417CE19824981DB
:10101000242F30E080914903082E000C990B2817EB
:1010200039070CF0EAC1A90133E0440F551F3A9586
:10103000E1F75D834C83FA01EB57FD4F60807180CF
:101040004091530350915403D301A41BB50B8091DD
:10105000A803082E000C990BBC0167597D4FFB01BA
:101060002491FD01E20FF11D27FDFA952091510316
:10107000309152031E161F0644F4FB011491FD012A
:10108000E10FF11D17FDFA9509C0FB011491FA015A
:10109000E619F709E11BF10917FDF395E039F14075
:1010A00074F5EC81FD81EB57FD4FE480F5808701FD
:1010B000021B130BFC01EF57FD4FD49028014D0C80
:1010C000511CD7FC5A941414150454F4E4910E0FD7
:1010D000111DE7FD1A95003911400CF438C40FC0FA
:1010E000E49189010E191F0928014E1A5108E7FDE4
:1010F000539400E9401601E050060CF428C4EC813A
:10110000FD81E359FE4F408051806201C41AD50A27
:10111000FB011491F601E10FF11D17FDFA951E1662
:101120001F0644F4FB0164914601860E911C67FD85
:101130009A940AC0FB017491FA01E419F5094F0170
:10114000871A910877FD9394B401EC81FD81E359EE
:10115000FE4F228033804101821A930AFC01EF572F
:10116000FD4F14915401A10EB11C17FDBA941A142D
:101170001B0444F4E4917401EE0EF11CE7FDFA94B3
:10118000F70108C01491F901E219F309E11BF10913
:1011900017FDF3956E0F7F1F683572400CF4D7C3AF
:1011A000BC0167567D4FFB0114917D01E10EF11CDE
:1011B00017FDFA948C01085B1F4F1B830A831E14D2
:1011C0001F043CF41491FD01E10FF11D17FDFA9588
:1011D00009C0FB011491FA01E619F709E11BF109B5
:1011E00017FDF395E039F14094F5EC81FD81EB5763
:1011F000FD4FA480B5807501E21AF30AF986E886EE
:101200000A811B8107591D4FF801E490E885F98593
:10121000EE0DF11DE7FCFA951E161F064CF4F801C1
:101220000491E884F984E00EF11C07FDFA9409C0EA
:10123000F80104917901EA18FB08E01AF10807FDAA
:10124000F394F0E9EF16F1E0FF060CF480C3FB0124
:101250001491F601E10FF11D17FDFA951E161F06F8
:101260004CF4FB0164915601A60EB11C67FDBA94C3
:10127000B50109C0FB011491BA0164197509611B1C
:10128000710917FD73950A811B8107591D4F78015C
:10129000F80114915401A10EB11C17FDBA941A144F
:1012A0001B043CF4E490F401EE0DF11DE7FCFA950B
:1012B00009C0F7011491F901E219F309E11BF109E1
:1012C00017FDF3956E0F7F1F683572400CF43FC316
:1012D000BC0167537D4FFB011491FD01E10FF11D2E
:1012E00017FDFA9588589F4F1E161F0654F4FB01F0
:1012F0001491A10FB11D17FDBA95A039B1406CF042
:1013000037C0FB01A491FA01E619F709EA1BF109BC
:10131000A7FDF395E039F1405CF5EC81FD81EB57D9
:10132000FD4F04811581D801A21BB30BFC01E759C5
:10133000FD4FF4903D016F0C711CF7FC7A9416146C
:10134000170454F4E491AE0FB11DE7FDBA95A0392E
:10135000B1400CF4FCC20CC0E491D901A01BB10B4C
:10136000AE1BB109E7FDB395A039B1400CF4EFC253
:10137000FB01A491F601EA0FF11DA7FDFA951E16D7
:101380001F063CF4FB016491C60ED11C67FDDA9484
:1013900009C0FB0164916A01C418D508C61AD108B6
:1013A00067FDD394FC01E759FD4F84912401480E59
:1013B000511C87FD5A94C2011816190634F4849101
:1013C000880E911C87FD9A9408C0849122193309D4
:1013D0004901881A910887FD93948C0C9D1C08E59F
:1013E000801602E090060CF4B2C203C081508093D4
:1013F000490319811F5F19830ACEB12C2B2D30E0D0
:1014000080914803082E000C990B281739070CF01F
:1014100007C103E0220F331F0A95E1F7F901E359F1
:10142000FE4F608071804091530350915403B3018B
:10143000641B750B8091A803082E000C990BFC010E
:10144000E759FD4FA4912B014A0E511CA7FD5A9458
:10145000D2011A161B0644F4E4914B018E0E911C26
:10146000E7FD9A94F4010AC0E491DA01A619B709DC
:101470002D014E1A5108E7FD5394F201E039F14075
:101480006CF5F901E359FE4FE480F580A09151031A
:10149000B091520387010A1B1B0BFC01EF57FD4F54
:1014A000D49028014D0C511CD7FC5A9414141504E7
:1014B00054F4E4910E0F111DE7FD1A950039114007
:1014C0000CF432C30BC0E491AE19BF09AE1BB109D5
:1014D000E7FDB395A039B1400CF426C3FC01E756F3
:1014E000FD4FA4912B014A0E511CA7FD5A94D20125
:1014F0001A161B0644F4E4914B018E0E911CE7FD75
:101500009A94F4010AC0E491DA01A619B7092D01F1
:101510004E1A5108E7FD5394F201E039F1406CF5A1
:10152000F901E359FE4FE480F580A0915103B09199
:10153000520387010A1B1B0BFC01EF54FD4FD49093
:1015400028014D0C511CD7FC5A941414150454F462
:10155000E4910E0F111DE7FD1A95003911400CF4AE
:10156000E3C20BC0E491AE19BF09AE1BB109E7FDA0
:10157000B395A039B1400CF4D7C2FC01E753FD4F3D
:10158000A4912B014A0E511CA7FD5A94D2011A16A0
:101590001B064CF4E4916E0F711DE7FD7A956039DE
:1015A00071405CF03BC0E491461957094E1B51094C
:1015B000E7FD5395403951408CF5F901E359FE4F51
:1015C000648175812091510330915203AB01421B1C
:1015D000530BFC01EF51FD4F8491DA01A80FB11DAF
:1015E00087FDBA951A161B0654F4E4914E0F511D4F
:1015F000E7FD5A95403951400CF496C20FC0E49172
:10160000261B370B2E1B3109E7FD3395203931405E
:101610000CF48AC203C0815080934803B394EECE89
:1016200080914E0390914F03019610C020914A0380
:101630002111A9C2209149032111A5C2209148037B
:101640002111A1C20197181619062CF490934F038B
:1016500080934E0398C288E790E090934F03809365
:101660004E0380914B0388301CF48F5F80934B03B3
:1016700010E080914B0318170CF085C2E0904A03EC
:101680000E2C000CFF0868EE7CE180E090E00E94E8
:1016900030139701E3E0220F331FEA95E1F72B5F48
:1016A0003C4F60587A4DD9016D937C93E0904A038A
:1016B0000E2C000CFF0868E670E180E090E00E94CC
:1016C00030139701F3E0220F331FFA95E1F72B5FF8
:1016D0003C4F60547D4EF90175836483E0904A036A
:1016E0000E2C000CFF0864E670E080E090E00E94A1
:1016F00030139701A3E0220F331FAA95E1F72B5F68
:101700003C4FDC01CB01C297A109B109F9019383D8
:101710008283E0904A030E2C000CFF0864E670E020
:1017200080E090E00E9430139701B3E0220F331F56
:10173000BA95E1F72B5F3C4FDC01CB01C297A109C1
:10174000B109F90197838683E0904A030E2C000CBF
:10175000FF0864E070E080E090E00E943013F70141
:10176000E359FD4F608380914A038F5F80934A0362
:101770001F5F7FCF62E370E086E990E00E948417EC
:101780000E94D60500914903F8E00F028001112460
:101790000B571D4F4A815B814B5F5C4F7A01DA0129
:1017A0002D913C91119712968D919C911397820FD8
:1017B000931FF8019183808314962D913C91159786
:1017C00016968D919C911797820F931F9583848312
:1017D00064E670E080E090E00E943013DC01CB0111
:1017E000C297A109B109F80193838283009149034B
:1017F000002E000C110B64E670E080E090E00E9487
:10180000301343E0000F111F4A95E1F7F801EB5741
:10181000FD4FDC01CB01C297A109B10997838683F3
:1018200000914903002E000C110B64E070E080E091
:1018300090E00E943013F801EB58FD4F60839091C7
:1018400049039F5F90934903F8E09F0290011124A0
:1018500089010B571D4FD7012D913C91119712967D
:101860008D919C911397820F931FF8019183808330
:1018700014962D913C91159716968D919C911797E2
:10188000820F931F9583848364E670E080E090E08C
:101890000E943013DC01CB01C297A109B109F80104
:1018A0009383828300914903002E000C110B64E6A0
:1018B00070E080E090E00E94301353E0000F111FB1
:1018C0005A95E1F7F801EB57FD4FDC01CB01C297C8
:1018D000A109B1099783868300914903002E000C6A
:1018E000110B64E070E080E090E00E943013F8019A
:1018F000EB58FD4F6083809149038F5F80934903CC
:1019000080914A03682F082E000C770B61507109F3
:10191000932D292F30E0261737070CF072CBA90141
:10192000E3E0440F551FEA95E1F720E030E0F901CC
:10193000E40FF51FEB5FFC4FA085B185B183A08359
:101940002E5F3F4F2830310591F79F5FE2CF62E372
:1019500070E086E990E00E9484170E94D60500910D
:101960004803F8E00F028001112403591E4F4C81F7
:101970005D814B575D4F7A01DA012D913C911197B2
:1019800012968D919C911397820F931FF80191836A
:10199000808314962D913C91159716968D919C916C
:1019A0001797820F931F9583848364E670E080E02D
:1019B00090E00E943013DC01CB01C297A109B1096C
:1019C000F8019383828300914803002E000C110BD1
:1019D00064E670E080E090E00E94301323E0000FA6
:1019E000111F2A95E1F7F801E359FE4FDC01CB0105
:1019F000C297A109B1099783868300914803002EFD
:101A0000000C110B64E070E080E090E00E94301365
:101A1000F801E35BFE4F6083809148038F5F809302
:101A20004803F8E08F02C00111248C0103591E4FB6
:101A3000D7012D913C91119712968D919C911397FE
:101A4000820F931FF8019183808314962D913C910E
:101A5000159716968D919C911797820F931F9583DA
:101A6000848364E670E080E090E00E943013DC0143
:101A7000CB01C297A109B109F80193838283009138
:101A80004803002E000C110B64E670E080E090E04B
:101A90000E94301333E0000F111F3A95E1F7F8016F
:101AA000E359FE4FDC01CB01C297A109B10997832D
:101AB000868300914803002E000C110B64E070E057
:101AC00080E090E00E943013F801E35BFE4F6083FA
:101AD000809148038F5F8093480380914903682F6A
:101AE000082E000C770B615071099981292F30E085
:101AF000261737070CF07ACCA90123E0440F551FB5
:101B00002A95E1F720E030E0F901E40FF51FEB57EB
:101B1000FD4FA085B185B183A0832E5F3F4F283054
:101B2000310591F79F5FE2CF68EC70E080E090E0D4
:101B30000E941B160E94D60580914803682F082E2C
:101B4000000C770B615071099B2D292F30E026176F
:101B500037070CF060CDA90113E0440F551F1A950B
:101B6000E1F720E030E0F901E40FF51FE359FE4F03
:101B7000A085B185B183A0832E5F3F4F283031050A
:101B800091F79F5FE2CF29960FB6F894DEBF0FBEA4
:101B9000CDBFDF91CF911F910F91FF90EF90DF901C
:101BA000CF90BF90AF909F908F907F906F905F90FD
:101BB0004F903F902F900895CF92DF92EF92FF9237
:101BC0000F931F93CF93DF9300E01AE0C4E6D0E0B9
:101BD000202F30E06091A503462F062E000C550BF8
:101BE000241735070CF0B8C0129FF001139FF00DB9
:101BF0001124EB5AFC4FA081B181828193818A0F1D
:101C00009B1F91838083E480F580A681B781AE0D10
:101C1000BF1DB583A4838C307EEF970724F48851D1
:101C20009A4C91838083129FF001139FF00D112431
:101C3000EB5AFC4F80819181853FA3E39A0724F002
:101C4000885E954391838083129FF001139FF00D6E
:101C50001124EB5AFC4F848195818C30BEEF9B0799
:101C600024F48851934E95838483129FF001139F2F
:101C7000F00D1124EB5AFC4F84819581853F7AE168
:101C8000970724F0885E9C4195838483129FF0011E
:101C9000139FF00D1124EB5AFC4F8085918597FF1F
:101CA00035C01186108670E07A0181E0E81AF108EB
:101CB000872F90E08E159F05ACF4EAE07E9FD0015F
:101CC000112480E090E0FC01EA0FFB1FEB5AFC4F6F
:101CD000C284D384D182C08202968A30910599F75A
:101CE0007F5FE6CF149FF001159FF00D1124EB5A92
:101CF000FC4F118210821382128215821482178285
:101D000016821186108661506093A503129FC00150
:101D1000139F900D11249C012B5A3C4F7901D9013E
:101D200014968D919C911597BE010E949331FB01F1
:101D3000D9018D919C91BE010E94933121E0AF01A8
:101D400082E398E00E949704F701808591850497CB
:101D5000918780870F5F3CCFDF91CF911F910F91CB
:101D6000FF90EF90DF90CF9008952F923F924F9287
:101D70005F926F927F928F929F92AF92BF92CF921B
:101D8000DF92EF92FF920F931F93CF93DF93CDB724
:101D9000DEB72E970FB6F894DEBF0FBECDBF2091F1
:101DA0005303309154038091A6039091A703280F09
:101DB000391F3093540320935303409151035091A2
:101DC00052038091460390914703840F951F90938F
:101DD0005203809351032C304EEF340734F42851D2
:101DE0003A4C309354032093530320915303309182
:101DF0005403253F53E3350734F0285E35433093D1
:101E00005403209353038C302EEF920734F48851FF
:101E1000934E90935203809351038091510390917C
:101E20005203853F3AE1930734F0885E9C419093DA
:101E300052038093510320914E0330914F038090C1
:101E40005303909054038091510390915203E09179
:101E5000A803121613060CF06CC024E630E0B9019A
:101E60000E9493318E2FEE0F990BFC01EF51FD4F25
:101E7000E4917B01EE0EF11CE7FDFA94FC01E753BF
:101E8000FD4FE4918B010E0F111DE7FD1A95FC012A
:101E9000EF54FD4FE4915B01AE0EB11CE7FDBA9427
:101EA000FC01E756FD4FE4916B01CE0ED11CE7FD1E
:101EB000DA94FC01EF57FD4FE4913B016E0E711C6B
:101EC000E7FD7A94FC01E759FD4FE491C401B901A3
:101ED0000E9493314B018E0E911CE7FD9A9495015F
:101EE000A601B301C4010E942D189701A801B501F4
:101EF000C6010E942D189301A401B701C8012E96B6
:101F00000FB6F894DEBF0FBECDBFDF91CF911F910A
:101F10000F91FF90EF90DF90CF90BF90AF909F9088
:101F20008F907F906F905F904F903F902F900C9488
:101F30002D1824E6622E712CB3010E9493318E2F4E
:101F4000EE0F990BFC01EF51FD4FE4919B012E0F19
:101F5000311DE7FD3A95FC01E753FD4FE4915B012C
:101F6000AE0EB11CE7FDBA94FC01EF54FD4FE491B5
:101F70006B01CE0ED11CE7FDDA94FC01E756FD4F54
:101F8000E4917B01EE0EF11CE7FDFA94FC01EF57A2
:101F9000FD4FE4918B010E0F111DE7FD1A95FC0119
:101FA000E759FD4FE491C401B3010E949331AB01A5
:101FB0004E0F511DE7FD5A955E874D87C016D1061D
:101FC00064F4201731071CF43801CA010FC039012D
:101FD000C5019801AD84BE8409C02C153D050CF0E7
:101FE000F6C036016801C701ED84FE842C153D055D
:101FF00024F48901BE86AD8605C086016901FE868E
:10200000ED8675010615170509F03FC02D853E8543
:10201000E216F3066CF03D852E854D855E854E15E6
:102020005F0514F43E2D2F2DED84FE843D872E8711
:102030008E159F0544F02D853E852817390714F429
:102040009E878D87C7010034110508F0C3C04D85F8
:102050004F5F481BB8012E960FB6F894DEBF0FBE37
:10206000CDBFDF91CF911F910F91FF90EF90DF9047
:10207000CF90BF90AF909F908F907F906F905F9028
:102080004F903F902F900C94F81797014D855E85E7
:10209000241B350B3E832D839601201B310B388783
:1020A0002F834C01841A950A9301201B310B3A832C
:1020B00029839C012E193F093C832B8393012C1902
:1020C0003D093A8729879601C614D70411F021509B
:1020D00031095801412C512C212C312C2A153B055A
:1020E0008CF1C1016F8178850E949331ED85FE8569
:1020F000E60FF71FC20169817A810E9493314D85F5
:102100005E85640F751F8D819E81280E391E480CD7
:10211000591C6E177F071CF49E2FFB01692F90E45A
:10212000A916B10458F46F5F462F4E1BB501CF01BD
:102130002B873C870E94F8173C852B854FEFA41A0C
:10214000B40ACCCFC5018C199D092B813C81289FF5
:102150006001299FD00C389FD00C1124C501801B31
:10216000910B889E8001899E100D989E100D112460
:102170006A147B047CF1C60169857A850E949331DB
:102180009701260F371FC80169817A810E94933118
:102190004D855E85640F751F8B819C81C80ED91E8D
:1021A000080D191D621773071CF4922F9B01692FEC
:1021B00090E4A916B10438F46F5F462F421BB501B5
:1021C000C9010E94F8172FEFA21AB20AD1CFC50198
:1021D000390118CF2E960FB6F894DEBF0FBECDBFD3
:1021E000DF91CF911F910F91FF90EF90DF90CF90F3
:1021F000BF90AF909F908F907F906F905F904F9027
:102200003F902F900895EF92FF920F931F93CF93DB
:10221000DF931F92CDB7DEB77C01FC0100811181F5
:10222000C80169830E94682F6981681719F0C80185
:102230000E94702FC7010F90DF91CF911F910F91D6
:10224000FF90EF9008954091C5035091C6032091EF
:10225000C3033091C40342175307B4F49091E800CC
:102260009570E1F39091E80092FD19C08093F10020
:102270008091C5039091C60301968F739927892B8E
:1022800019F48EEF8093E8008091C5039091C60306
:1022900001969093C6038093C50381E0089580E082
:1022A0000895DF92EF92FF920F931F93CF93DF93E6
:1022B000D82E8A017B01E40EF51EEB01CE15DF0559
:1022C00071F0D7FE03C0FE01849101C088810E9495
:1022D000231121968111F2CF8FEF9FEF01C0C8012A
:1022E000DF91CF911F910F91FF90EF90DF900895B4
:1022F000615030F02091F100FC0120830196F8CF6D
:10230000289884E68093C8030895CF92DF92EF92D5
:10231000FF920F931F93CF93DF936C017A018B0190
:10232000C0E0D0E0CE15DF0589F0D8016D918D01B8
:10233000D601ED91FC910190F081E02DC601099547
:10234000892B11F47E0102C02196ECCFC701DF91E9
:10235000CF911F910F91FF90EF90DF90CF90089554
:10236000CF93DF931F92CDB7DEB76983DC01ED9188
:10237000FC910280F381E02D41E050E0BE016F5FEF
:102380007F4F09950F90DF91CF91089583E080935F
:10239000E9008091F200882319F08AE38093E80035
:1023A0000895FC018485958597FD0BC09FB7F8942F
:1023B00082E08093E9008091F2009FBF90E0019657
:1023C00008959FB7F89482E08093E9008091F2002D
:1023D0009FBF90E008958091B703E091B503F0911D
:1023E000B603882349F0CF0102969093B6038093F9
:1023F000B503859194910895CF0102969093B60309
:102400008093B503808191810895CF92DF92EF92FE
:10241000FF920F931F93CF93DF930E94EB118115CF
:1024200020E8920761F4809171008D7F80937100A4
:1024300010929100469847981092B4038BC021E007
:102440002093B403813020E8920751F48091B203C5
:102450009091B3039093B6038093B5030E94EB1160
:1024600097FD05C02091B103222309F43FC02091BC
:10247000B00321113BC021E02093B803EC01DF77CA
:10248000209769F481E08093B90346983FE9C32E11
:102490003FE0D32EE12CF12CCAEFD0E014C08E0126
:1024A00020E030E060E472E48FE090E0A901980160
:1024B0000E947E2F69017A0181E0C81AD108E108E3
:1024C000F1081092B903E0912C08F0912D080995BC
:1024D000811103C081E08093B9038091B803882300
:1024E000B9F18091B903811133C003C01092B803D0
:1024F000C5CF46992DC0479A0E94EB11009771F005
:102500009C01DE010E94D22FDC01CB0129E0B595B0
:10251000A795979587952A95D1F703C08FEF9FEFE1
:10252000DC01109290002AE020939100D092990053
:10253000C09298008093BA039093BB03A093BC030E
:10254000B093BD038091710082608093710002C0DE
:102550004798D2CFDF91CF911F910F91FF90EF90CD
:10256000DF90CF9008958091450308950E94AD318A
:102570000F931F93CF93DF931F92CDB7DEB782E007
:10258000898342E450E06BE378E080E80E945111D7
:102590000E941F1CDC0112960D911C9113970115CE
:1025A000110569F0D801ED91FC910280F381E02DD5
:1025B000BE016F5F7F4FC801099597FF07C08981F2
:1025C0000F90DF91CF911F910F910895F801008531
:1025D0001185E5CF0E94E41B90E008950F931F93AF
:1025E000CF93DF931F92CDB7DEB78C01FC018485BA
:1025F000958597FF0EC0CE0101960E94F51B0197AD
:1026000019F4298130E002C02FEF3FEFF801358740
:102610002487F801848595850F90DF91CF911F91D4
:102620000F910895CF93DF931F92CDB7DEB7FC01D2
:102630008485958597FD05C02FEF3FEF358724876B
:102640000BC0CE0101960E94F51B019719F48981F8
:1026500090E002C08FEF9FEF0F90DF91CF91089530
:10266000CF93DF9300D000D0CDB7DEB761157105F1
:102670008105910579F09B01AC0169833A834B8315
:102680005C830E945A2F29813A814B815C810E9490
:102690007E2F03C060E070E0CB010F900F900F9091
:1026A0000F90DF91CF9108951F920F920FB60F9266
:1026B00011248F939F938091E1009091E100937F8B
:1026C0009093E10083FF0FC01092E90091E0909396
:1026D000EB001092EC0092E39093ED001092C9038E
:1026E00098E09093F00082FF20C093E09093E9007F
:1026F0009091F200992319F09AE39093E800909159
:10270000C703992339F09091C70391509093C70361
:10271000992389F19091C803992339F09091C803C6
:1027200091509093C803992341F184FF10C0809188
:10273000E2008E7E81608093E2008091E1008F7ED6
:102740008093E10080914B018E7E806111C080FFFB
:1027500016C08091E2008E7E80618093E2008091BD
:10276000E1008E7E8093E10080914B018E7E81603E
:1027700080934B0104C05D9ACDCF289AD6CF9F910C
:102780008F910F900FBE0F901F9018951F920F9270
:102790000FB60F921124CF92DF92EF92FF920F9318
:1027A0001F932F933F934F935F936F937F938F93D9
:1027B0009F93AF93BF93EF93FF93CF93DF93CDB7E7
:1027C000DEB76C97DEBFCDBF1092E9008091E800C4
:1027D00083FFEDC168E0CE0145960E94781182EF3B
:1027E0008093E8008D8987FF05C09091E80090FFF5
:1027F000FCCF03C09EEF9093E800982F907609F0ED
:10280000C6C09E892F89188D91110CC0803829F47B
:1028100080914C018093F10002C01092F10010925F
:10282000F10048C1422F50E0512B913051F48111F9
:1028300041C14130510509F03DC180914C018D7F6E
:102840000BC0933061F4811135C14130510509F05D
:1028500031C180914C01826080934C012BC1953035
:1028600041F48091E80080FFFCCF20682093E300D2
:1028700021C1963009F05FC0EB8CFC8C1092E9000E
:102880001092C6031092C503123091F51092C40342
:102890001092C3030E94B81299E0BE016F5F7F4F90
:1028A000DB01E92F1D92EA95E9F799831A8391E0FC
:1028B0009E8390EA98879AEF99872091C50330917B
:1028C000C603275F3F4F3C832B838D831092E90023
:1028D0001092C6031092C503F092C403E092C303A2
:1028E00049E050E080E00E9451110E94B812E2C01D
:1028F000F092C403E092C3030E941F1CDC011296F5
:10290000ED90FC901397E114F10409F4C0C0D701D5
:10291000ED91FC910480F581E02DBE016B5E7F4F4F
:10292000C7010995009719F00CF0C4C0C7C0F701A2
:10293000E084F184E8CF973009F4C0C0983021F4E6
:1029400081E08093F100B6C0993009F0B3C0837084
:1029500009F0B4C0E1E1F1E081E021E036E39081EB
:10296000992361F08093E9002093EB00919190937B
:10297000EC003093ED008F5F873089F78EE780930E
:10298000EA001092EA008F898093C90393C08B8D6F
:102990009C8D1092E9001092C6031092C50390938B
:1029A000C4038093C303898D811156C08E899D898C
:1029B000913A59F4813209F081C047E050E064E077
:1029C00071E080E00E94511175C0913209F076C02B
:1029D000833289F4888D90E0982F88272F89822B65
:1029E000A0E0B0E08093000190930101A093020168
:1029F000B09303015FC0803269F48091E80082FFE8
:102A0000FCCF67E084E091E00E9478118BEF809327
:102A1000E80006C0823209F04DC08F8980930B0117
:102A200080914A01882319F0EEEFFAE002C0E0E05D
:102A3000F8E08091040190910501A0910601B09108
:102A40000701803B9440A105B10509F07BC080914E
:102A50000B0180FF93C076C00E941F1CDC01129600
:102A60000D911C9113970115110541F1D801ED91BC
:102A7000FC910190F081E02DBE016B5E7F4FC8019B
:102A80000995811117C0F80100851185ECCF11302F
:102A900009F44EC0133091F48F89882309F445C09E
:102AA000823081F440E860E18FE998E00E948A2E4C
:102AB000882321F08EEF8093E80079C081E2809333
:102AC000EB0075C0813029F440E86BE083E998E0C1
:102AD000EDCF833099F70E941F1CDC011296ED9018
:102AE000FC9013978E010F5F1F4F6801E114F104F2
:102AF00079F0D701ED91FC910680F781E02DB801C6
:102B0000C7010995080F111DF701E084F184EECF8C
:102B1000D8011C92F60101900020E9F73197BF011E
:102B20006C197D0940E0C601C1CF6DE778E002C0B5
:102B300061E878E06115710509F2FB01449150E00C
:102B400080E840CF0FB6F894A89580916000886126
:102B500080936000109260000FBEA895EE3F2AE0BF
:102B6000F20739F08091FE0A9091FF0A91838083E9
:102B7000A1CF1092FF0A1092FE0A9CCFEE3F8AE08E
:102B8000F80731F0808191819093FF0A8093FE0ACB
:102B900087E797E7918380839BE088E10FB6F894FD
:102BA000A895809360000FBE9093600083CF6C96D1
:102BB0000FB6F894DEBF0FBECDBFDF91CF91FF916E
:102BC000EF91BF91AF919F918F917F916F915F91A5
:102BD0004F913F912F911F910F91FF90EF90DF90B8
:102BE000CF900F900FBE0F901F9018953FB7F8949D
:102BF0008091BF039091C003A091C103B091C20323
:102C000026B5A89B05C02F3F19F00196A11DB11D47
:102C10003FBFBA2FA92F982F8827820F911DA11D82
:102C2000B11DBC01CD0142E0660F771F881F991FBF
:102C30004A95D1F708958F929F92AF92BF92CF920B
:102C4000DF92EF92FF926B017C010E94F6154B011F
:102C50005C01C114D104E104F104F1F00E94F61505
:102C6000DC01CB0188199909AA09BB09883E934068
:102C7000A105B10570F321E0C21AD108E108F108FD
:102C800088EE880E83E0981EA11CB11CC114D104EB
:102C9000E104F10419F7DDCFFF90EF90DF90CF90C2
:102CA000BF90AF909F908F9008958F929F92AF9218
:102CB000BF92CF92DF92EF92FF920F931F93CF9329
:102CC000DF935C016B017A0180910B01882309F489
:102CD0005BC08091C903882309F456C080914B01E1
:102CE00080FF05C08091E00082608093E000E701F2
:102CF00010E00AEF83E0882E9AE3992E2097D9F10D
:102D00000E94E41B81110AC0015009F43DC061E03A
:102D100070E080E090E00E941B16F0CF282F30E09A
:102D2000C217D3070CF48C2F4FB7F8948092E900A8
:102D30009091E80095FF1DC0282F30E0C21BD30BF7
:102D4000F601982F915020F081918093F100FACFF5
:102D5000C20ED31E112319F09092E80009C0809191
:102D6000E80085FD06C09092E80011E0209709F088
:102D700010E04FBFC3CF1111C3CF5D9884E680939D
:102D8000C7031E141F0444F081E090E0F501938313
:102D9000828380E090E001C0C701DF91CF911F9155
:102DA0000F91FF90EF90DF90CF90BF90AF909F90EA
:102DB0008F9008951F920F920FB60F9211242F93A8
:102DC0003F938F939F93AF93BF938091CA0390914A
:102DD000CB03A091CC03B091CD033091BE0323E08F
:102DE000230F2D3720F40196A11DB11D05C026E843
:102DF000230F0296A11DB11D2093BE038093CA0329
:102E00009093CB03A093CC03B093CD038091BF03E9
:102E10009091C003A091C103B091C2030196A11D7E
:102E2000B11D8093BF039093C003A093C103B093DF
:102E3000C203BF91AF919F918F913F912F910F90BE
:102E40000FBE0F901F9018951F920F920FB60F9202
:102E500011242F933F934F935F936F937F938F939F
:102E60009F93AF93BF93EF93FF938091BA03909199
:102E7000BB03A091BC03B091BD03892B8A2B8B2B84
:102E800081F18091B90381110BC098B180E4892749
:102E900088B98091B803882319F088B1805888B91F
:102EA0008091BA039091BB03A091BC03B091BD0384
:102EB000181619061A061B06B4F48091BA039091ED
:102EC000BB03A091BC03B091BD030197A109B10957
:102ED0008093BA039093BB03A093BC03B093BD034C
:102EE00002C00E940512FF91EF91BF91AF919F9197
:102EF0008F917F916F915F914F913F912F910F90A3
:102F00000FBE0F901F9018959C01E1E7F0E09081B3
:102F10009D7F90831092B703EEE1F8E0F093B60343
:102F2000E093B503F093B303E093B20331832083BE
:102F30007383628380E090E8958384830C94051208
:102F40002D9A0895BC0180E090E00C941B168FB17F
:102F50002CB193B130E02095309520743327A9012E
:102F600023E0559547952A95E1F7292F30E02095E4
:102F70003095207133273595279535952795242B46
:102F80008095807F822B089583B7817F83BF83B72D
:102F9000816083BF889583B78E7F83BF08958EBD80
:102FA00000000DB407FEFDCF0895109245033E9832
:102FB0003F9808953E9A3F9A81E080934503089593
:102FC000E3E3F8E090E1969FD001A0781124A80FE8
:102FD0006770E60FF11D9491A253BC4F442319F082
:102FE0008C91982B03C090958C9198239C93089575
:102FF0009C01240F311D1216130674F580389105BB
:103000005CF5FC0197FF02C0E0E0F0E021383105FB
:1030100014F020E830E02E1BAB014770552781E00B
:1030200001C0880F4A95EAF777FF02C0695F7F4FBA
:1030300093E0759567959A95E1F77695762F6627D3
:1030400077956795E60FF71FE253FC4F215020F06C
:103050009081982B9193FACF08955F926F927F920F
:103060008F929F92AF92BF92CF92DF92EF92FF9298
:103070000F931F93CF93DF93EC018B017A01A9018A
:10308000461B570B57FF03C0519541955109C70186
:103090008C1B9D0B97FF03C0919581959109552439
:1030A00053948417950714F0512C0AC09E2D8F2D30
:1030B0007901292F382F9C2F8D2FE801092F182FE8
:1030C000EC16FD0654F4902F812F8901292F382FFB
:1030D0009C2F8D2FE701E92EF82E37016C1A7D0AFF
:1030E0005901A01AB10AB7FE03C0B194A194B10866
:1030F000630177FE03C08FEFC81AD80AD594C7942E
:103100000217130714F08FEF01C081E0882E880F9B
:103110009908EC16FD06B4F021E0552019F0AE0137
:10312000B80102C0A801BE0182E398E00E949704A2
:10313000CA18DB08D7FE04C0080D191DC60CD71C21
:103140002196E7CFDF91CF911F910F91FF90EF90E4
:10315000DF90CF90BF90AF909F908F907F906F90B7
:103160005F9008952F923F925F926F927F928F921D
:103170009F92AF92BF92CF92DF92EF92FF920F9306
:103180001F93CF93DF9300D000D000D0CDB7DEB730
:103190008C017B01522E242F30E03E832D8381E071
:1031A00090E05C01A21AB30AC90191958195910939
:1031B000FC01EE0FFF1FFA83E983A901460F571F99
:1031C000252DB80182E398E00E949704A7012D8184
:1031D0003E81421B530B252DB80182E398E00E94EB
:1031E00097046D817E81600F711F252DA70182E3F9
:1031F00098E00E949704B8018D819E81681B790B2D
:10320000252DA70182E398E00E949704C12CD12CC0
:10321000E1E0F0E0FC83EB832D813E81C216D30612
:103220000CF070C0B7FC0DC02D813E8121503109DA
:103230003E832D8389819A8102969A838983A80E81
:10324000B91E9FEFC91AD90AEB81FC813296FC8323
:10325000EB83AE0EBF1E3601600E711E252D8D80D4
:103260009E808E0C9F1CA401B30182E398E00E9413
:10327000970418012C183D08252DA401B10182E303
:1032800098E00E949704252D47018D819E81881A20
:10329000990AA401B30182E398E00E949704252DC6
:1032A000A401B10182E398E00E94970446018E0CCC
:1032B0009F1C252DA4016D807E80600E711EB301C0
:1032C00082E398E00E949704252DA4011801ED8166
:1032D000FE812E1A3F0AB10182E398E00E94970412
:1032E00047018C189D08252DA401B30182E398E0C5
:1032F0000E949704252DA401B10182E398E00E9469
:1033000097048ACF26960FB6F894DEBF0FBECDBFC6
:10331000DF91CF911F910F91FF90EF90DF90CF90B1
:10332000BF90AF909F908F907F906F905F903F90F5
:103330002F9008952F923F924F925F926F927F92BB
:103340008F929F92AF92BF92CF92DF92EF92FF92B5
:103350000F931F93CF93DF93CDB7DEB728970FB6A8
:10336000F894DEBF0FBECDBF5A01822E912C9C0176
:10337000280D391D37FDC4C0803891050CF0C0C040
:103380009B01200F311D37FDBBC0603471050CF06F
:10339000B7C0AB0177FF04C044275527461B570B26
:1033A000477055279B0177FF02C0295F3F4FE3E03D
:1033B00035952795EA95E1F777FF08C02150310947
:1033C00068E070E0DB01A41BB50BAD01602F6695D2
:1033D0006695669570E0077011F06F5F7F4FDB01B7
:1033E000A20FB31FBA83A98339017694762C662481
:1033F00077946794680E791EE12CF12C00E010E0C0
:103400002301B0E84B0E511C68E070E0DB01A41B07
:10341000B50BBC83AB8369817A812617370709F422
:103420006FC02830310509F46BC02F3FBFEF3B0759
:103430000CF45BC0B201600F711FDB01A253BC4FE3
:10344000BE83AD83D801A60DB71DA253BC4F6C013E
:1034500060E070E0681579050CF047C0E0E8CE1632
:10346000D10409F442C0D7FC34C02F3FFFEF3F071F
:1034700009F442C0FB01EE0DFF1DEA0DFB1DE491B6
:10348000042E01C0EE0F0A94EAF73C90E329EC9376
:1034900041155105F1F027303105D9F0FB01EE0D52
:1034A000FF1DEA0DFB1DE4912E2E312CF1010B8046
:1034B00002C0F595E7950A94E2F7F887EF83ED816E
:1034C000FE813080EF81F885E3291F01ED81FE81C7
:1034D00020826F5F7F4FED81FE813196FE83ED8309
:1034E000FFEFCF1ADF0A1196B5CF2F5F3F4F00587D
:1034F0001F4FE80CF91C8FCF4115510579F6E9CF24
:1035000028960FB6F894DEBF0FBECDBFDF91CF91E6
:103510001F910F91FF90EF90DF90CF90BF90AF90F1
:103520009F908F907F906F905F904F903F902F90E3
:10353000089520913808282329F49091370898237A
:1035400081E009F480E00895E0912E08F0912F08C1
:103550000190F081E02D682F8EE298E009948F921F
:103560009F92AF92BF920F931F93CF93DF93CDB7EC
:10357000DEB7A1970FB6F894DEBF0FBECDBF19A27C
:10358000423008F44AE08E010F5D1F4F842E912CCB
:10359000A12CB12CA50194010E94B02FE62FB901F6
:1035A000CA0101501109EA3014F4E05D01C0E95C80
:1035B000D801EC93232B242B252B61F70115110542
:1035C00071F0F80101900020E9F73197AF01401B3D
:1035D000510BB8018EE298E00E94851102C080E094
:1035E00090E0A1960FB6F894DEBF0FBECDBFDF917D
:1035F000CF911F910F91BF90AF909F908F900895A2
:103600000F931F93CF93DF938C01C0E0D0E0F801BC
:10361000EC0FFD1F6491662371F0E0912E08F0918C
:103620002F080190F081E02D8EE298E00995892B1A
:1036300011F02196ECCFCE01DF91CF911F910F9128
:10364000089580E0EEECF3E081118FEF0024819388
:103650008193819381930394D1F708950E94211B54
:10366000EEE2F8E0118E108E178A168A08950F93F5
:103670001F93CF93DF931F92CDB7DEB78FB7F89428
:103680004091CA035091CB036091CC037091CD035C
:103690008FBF00913E0810913F0820914008309163
:1036A000410880914208882349F080913A08481BDC
:1036B000409343081092420880E030C04017510701
:1036C0006207730740F4041B023040F189830E94B3
:1036D000C417898123C081E08093420840933A084F
:1036E00050933B0860933C0870933D0880913908E3
:1036F000480F511D611D711D40933E0850933F08B6
:103700006093400870934108809135089091360885
:103710000196909336088093350881E00F90DF91F1
:10372000CF911F910F910895809164008E7F8093B7
:1037300064008EE580937C0062E070E080E090E0C1
:103740000E941B1680917A00806480937A00809199
:103750007A0086FDFCCF209178003091790090911D
:103760006400916090936400C9010895CF92DF9244
:10377000EF92FF92CF93DF936C01990FEE08FF0851
:10378000F7FE17C08DE20E94A41AEC016627772786
:10379000CB016C197D098E099F094AE00E94AF1A7E
:1037A0008C0F9D1FDF91CF91FF90EF90DF90CF9016
:1037B00008954AE0C701B601DF91CF91FF90EF90E5
:1037C000DF90CF900C94AF1A2FB7F89483E08093DA
:1037D000E9009091E800892F807295FF04C09091D4
:1037E000F20080E4891B2FBF0895FC018091C9037A
:1037F000811103C08FEF9FEF08959FB7F89482E087
:103800008093E9002091F20030E01216130614F4C0
:1038100021E030E02115310559F0289884E68093A5
:10382000C8038091F10080838091F200882319F011
:103830009FBFC90108958BE68093E800F9CF80917E
:10384000500881110DC082E080934C0884E0809381
:103850004D0810924F0810924E0881E08093500856
:103860008CE498E00895CF93DF9300D000D0CDB7DB
:10387000DEB7789484B5826084BD84B5816084BDF0
:1038800085B5826085BD85B5816085BD80916E00FE
:10389000816080936E00109281008091810082602F
:1038A000809381008091810081608093810080916C
:1038B000800081608093800080919100826080937D
:1038C000910080919100816080939100809190009F
:1038D0008160809390008091C10084608093C100DA
:1038E0008091C10082608093C1008091C10081609D
:1038F0008093C1008091C30081608093C300809158
:10390000C00082608093C0008091C200816080937B
:10391000C20080917A00846080937A0080917A005E
:10392000826080937A0080917A00816080937A002F
:1039300080917A00806880937A001092C903109277
:103940004C0110924B018091D70081608093D70089
:1039500080EA8093D80089B5806189BD89B582608D
:1039600089BD09B400FEFDCF61E070E080E090E029
:103970000E941B168091D8008F7C80618093D800B4
:103980008091E000807F8093E0008091E1008E7E56
:103990008093E1008DE08093E200559A209AEEEF4B
:1039A000FFE7859194918B3F9C4D19F481E08093C2
:1039B0004A0181EC80937C0085B1806F85B92498A1
:1039C00084B1866E84B95E9A5F988AB1806D8AB937
:1039D000769A6E9881B3806F81BB899880B38D7021
:1039E00080BB80E58CBD81E08DBD85E090E00E94CC
:1039F000A2175F9A85E090E00E94A2175E985C98FB
:103A00000CE511E06DE0F62EF00EF80184910E94B5
:103A1000CF170F5F1F4FF012F8CF5C9A81E88093A9
:103A2000640081E08093650000E014E080E00E9483
:103A3000CF1701501109D1F70E94A71787FF10C0B7
:103A40005C9885EA0E94CF175C9A2E982F982D9843
:103A5000809164008062809364000E94C417FDCF4F
:103A600002E010E00E94A71782FF42C02D980E943A
:103A7000A71784788438C9F00E94A717847184310D
:103A800091F50E94A01788EC90E00E94A2172E9852
:103A90001A83098360E0CE0101960E94031184EF2E
:103AA00091E00E94A2172E9A19C00E94A01788ECDC
:103AB00090E00E94A2172F981A8309836FEFCE011E
:103AC00001960E94031184EF91E00E94A2172F9AA1
:103AD0000E94A71784788438D9F3CECF0E94A71705
:103AE00084718431D9F388EC90E00E94A217BACF98
:103AF0000E94A01782E090E00E94682F882319F0AE
:103B00000E94DA1702C00E94D5172E985EEEE52EAD
:103B1000FF24FA940E94A71786FF04C02E9A2F9ABA
:103B20002D9A41C0FCEFEF16FFEFFF0619F42E9A15
:103B30002F9806C028E1E216F10411F42F9A2D986F
:103B40000E94211B00E128E54CEA50E0B70184E126
:103B500090E00E949A1982E398E00E9488048BE129
:103B600090E00E94A21730EFE3163FEFF30621F436
:103B70008AEF90E00E94A2174FEFE41AF40A59E18D
:103B8000E516F10439F68CEB92E00E94A2170E9430
:103B9000A017E0913208F09133080190F081E02DF8
:103BA00082E398E0099582E390E00E94A2170E94C8
:103BB000A7178111F8CF809164008E7F80936400F5
:103BC00080917A00806480937A0080917A0086FDEB
:103BD000FCCF00917800109179000E94F61520E04A
:103BE00030E0980111270027600F711F821F931F7B
:103BF000611571058105910511F00E945F2F80917B
:103C0000640081608093640081E2809339080E949F
:103C10002E1B0E94C10580914503882319F00E9444
:103C2000DA1702C00E94D5178FEF9FEF9093DB0742
:103C30008093DA0724E1222E312C1091A903113050
:103C400011F481E205C0111102C082E301C082E4D7
:103C5000809339080E94371B882311F40C948E2D11
:103C60000E942E1B123011F40C94F02838F411230A
:103C700091F0113009F4AAC00C94382C143011F4CE
:103C80000C94522B10F40C94A52A153011F40C94BA
:103C9000C02B0C94382C0AE010E0109345080093D8
:103CA0004408109347080093460882E080934A082E
:103CB00089E293E00E94001B8091350890913608BC
:103CC000B8010E947F31892B79F462E070E080E0D6
:103CD00090E00E94301321E061307105810591056B
:103CE00009F020E02093AF038091350890913608C9
:103CF00063E070E00E947F31892B59F49091AF030B
:103D00008091A803992311F08F5F01C081508093A7
:103D1000A8038091A80388311CF088518093A803E0
:103D20008091A80387FF03C0885E8093A80304E600
:103D300010E01093A7030093A6030E94B50E809194
:103D400035089091360865E070E00E947F31892B3C
:103D500031F46091A503683014F40C94982D0E94FE
:103D6000DC0D84E00E94991A8823A1F083E08093FF
:103D7000500380E099E1909354038093530380E8CB
:103D80009CE090935203809351030E94A80581E028
:103D90008093A90380E80E94991A811105C080E1EF
:103DA0000E94991A882341F080914503882311F4D9
:103DB0000C94EC2D0E94D51788E00E94991A882354
:103DC00011F40C94382C83E00C94E3288091500378
:103DD000181614F00C94E62880914E0390914F032E
:103DE00089389F4F0CF40EC18091350880FD48C082
:103DF0000E94A71785FF05C08091A803815080937A
:103E0000A8030E94A71786FF05C08091A8038F5FB3
:103E10008093A8038091A80388311CF08851809377
:103E2000A8038091A80387FF03C0885E8093A8033E
:103E30000E94A71787FF24C08091A803880F990BC1
:103E4000FC01E750FD4FE4912091A6033091A703B8
:103E50002E0F311DE7FD3A953093A7032093A6035B
:103E6000FC01E650FD4FE491809146039091470399
:103E70008E0F911DE7FD9A9590934703809346031B
:103E800080E10E94991A8823B1F16CE271E080E030
:103E900090E00E941B1663E070E080E090E00E94DA
:103EA0003013623071058105910549F468EC70E0CA
:103EB00080E090E00E941B160E94D6051CC0109264
:103EC0004703109246031092A7031092A60360E0E6
:103ED00072E380E090E00E9430137093540360938B
:103EE000530360E079E180E090E00E94301370932A
:103EF0005203609351038091460390914703181633
:103F000019062CF401979093470380934603809100
:103F100046039091470397FF05C00196909347038E
:103F2000809346038091A6039091A7031816190663
:103F30002CF401979093A7038093A6038091A60386
:103F40009091A70397FF05C001969093A7038093D4
:103F5000A6038091A6039091A7030496099720F4E5
:103F60001092A7031092A6038091460390914703F5
:103F70000496099720F4109247031092460380910B
:103F80004603909147038D32914034F08CE291E0EA
:103F90009093470380934603809146039091470393
:103FA000843D9E4F34F484ED9EEF909347038093BD
:103FB00046038091A6039091A7038D32914034F07F
:103FC0008CE291E09093A7038093A6038091A603CF
:103FD0009091A703843D9E4F34F484ED9EEF90931F
:103FE000A7038093A6030E94B50E84E00E94991A4D
:103FF000882331F04091A503483014F40C94F02D3F
:104000000E94DC0DD12C9AE0E92EAD2CB12C8091D0
:104010004A03082E000C990BA816B9060CF019C318
:10402000850183E0000F111F8A95E1F7F801EB5F2E
:10403000FC4F2081318182819381820F931F918374
:1040400080834481558126813781240F351F358334
:1040500024838C303EEF930724F488519A4C91834B
:104060008083F801EB5FFC4F80819181853F43E3C2
:10407000940724F0885E954391838083F801EB5F79
:10408000FC4F848195818C305EEF950724F4885134
:10409000934E95838483F801EB5FFC4F8481958177
:1040A000853FAAE19A0724F0885E9C41958384832A
:1040B000F12CF801EB5FFC4F3F012F01F4E04F0EB4
:1040C000511CAF2DB0E02091A503822F022E000CD1
:1040D000990BA817B9070CF08CC1EA9EF001EB9E72
:1040E000F00D1124AF014B5A5C4F4A01FA01408197
:1040F0005181F30160817181461B570BBA016C50ED
:104100007E4F693E734068F4F40164817581F20169
:1041100080809180681979096C507E4F693E7340A8
:10412000F8F057FF03C0519541955109EA9EB0013F
:10413000EB9E700D1124FB01EB5AFC4F64817581DD
:10414000D201ED91FC916E1B7F0B77FF03C071953F
:1041500061957109460F571F4C3B52400CF047C107
:104160003F2DAC0141505109832E912C84169506A8
:1041700084F5B4016F5F7F4FE69ED001E79EB00DDE
:104180001124AB5ABC4F6D917C911197E89CF001C2
:10419000E99CF00D1124EB5AFC4F71836083129659
:1041A0006D917C9113977383628314966D917C91CA
:1041B00015977583648316966D917C911797778315
:1041C000668318966D917C911997718760873F5F20
:1041D000CBCFE89EF001E99EF00D1124EB5AFC4F85
:1041E000118210823E2D2303D0011124AB5ABC4F03
:1041F00013961C921E9212971582148217821682B1
:104200001186108621502093A5036BE470E086E9A7
:1042100090E00E94841780914C0390914D03029688
:1042200090934D0380934C038091490348E08402AE
:10423000C0011124DC01AB57BD4F4D01F30180815A
:1042400091818D939C93D2018D919C91F4019583E2
:10425000848364E670E080E090E00E943013DC012B
:10426000CB01C297A109B109F401938382838090A5
:104270004903082C000C990864E670E080E090E0A7
:104280000E943013F401A3E0EE0FFF1FAA95E1F79F
:10429000EB57FD4FDC01CB01C297A109B109978310
:1042A000868380904903082C000C990864E070E034
:1042B00080E090E00E943013F401EB58FD4F6083E2
:1042C000809149038F5F80934903F8E08F02C0011A
:1042D00011249C012B573D4F4901D3018D919C9195
:1042E000F90191838083D2018D919C919583848380
:1042F00064E670E080E090E00E943013DC01CB01C6
:10430000C297A109B109F401938382838090490384
:10431000082C000C990864E670E080E090E00E94B0
:104320003013F401B3E0EE0FFF1FBA95E1F7EB573E
:10433000FD4FDC01CB01C297A109B10997838683A8
:1043400080904903082C000C990864E070E080E03C
:1043500090E00E943013F401EB58FD4F6083809190
:1043600049038F5F8093490320914A03422F022E15
:10437000000C550B415051093D2D832F90E08417BF
:10438000950794F5DC011196FD01E359FD4F60811D
:10439000FC01E359FD4F608363E0AA0FBB1F6A95E0
:1043A000E1F7AB5FBC4F6D917C911197E3E0880F13
:1043B000991FEA95E1F7FC01EB5FFC4F7183608385
:1043C00012968D919C9113979383828314968D916D
:1043D0009C9115979583848316968D919C91179740
:1043E000978386833F5FC9CF215020934A03F3947C
:1043F00068CEF501E359FD4F8081813009F47FC01B
:10440000ECF58111F5C00B5F1C4FD80114966D912E
:104410007C911597072E000C880B990B0E94863013
:104420002AE037ED43E25CE30E94123120E030E005
:1044300040E051E40E94E12F0E944E304B015C01AC
:10444000F80160817181072E000C880B990B0E9486
:1044500086302AE037ED43E25CE30E94123120E02F
:1044600030E040E051E40E94E12F0E944E30DC0138
:10447000CB0100E120E144E052E07BC0823009F44E
:104480007CC0833009F0B4C00B5F1C4FD801149678
:104490006D917C911597072E000C880B990B0E944B
:1044A00086302AE037ED43E25CE30E94123120E0DF
:1044B00030E040E051E40E94E12F0E944E304B0179
:1044C0005C01F80160817181072E000C880B990B4B
:1044D0000E9486302AE037ED43E25CE30E9412310D
:1044E00020E030E040E051E40E94E12F0E944E3095
:1044F000DC01CB0100E120E144EA51E03AC00B5F6E
:104500001C4FD80114966D917C911597072E000CC5
:10451000880B990B0E9486302AE037ED43E25CE37A
:104520000E94123120E030E040E051E40E94E12F8F
:104530000E944E304B015C01F80160817181072EB1
:10454000000C880B990B0E9486302AE037ED43E27D
:104550005CE30E94123120E030E040E051E40E9430
:10456000E12F0E944E30DC01CB0100E120E144EE5E
:1045700051E0B4010E949A196AC00B5F1C4FD80128
:1045800014966D917C911597072E000C880B990B52
:104590000E9486302AE037ED43E25CE30E9412314C
:1045A00020E030E040E051E40E94E12F0E944E30D4
:1045B0004B015C01F80160817181072E000C880BB2
:1045C000990B0E9486302AE037ED43E25CE30E94BB
:1045D000123120E030E040E051E40E94E12F0E94DF
:1045E0004E30DC01CB0100E120E144EC51E0C1CFD1
:1045F0000B5F1C4FD80114966D917C911597072E77
:10460000000C880B990B0E9486302AE037ED43E2BC
:104610005CE30E9412310E944E304B015C01F801B4
:1046200060817181072E000C880B990B0E948630E7
:104630002AE037ED43E25CE30E9412310E944E30E3
:10464000DC01CB0125E045E0B4010E94B218D3940F
:10465000DCCCD12C9AE0E92E8D2C912C8091490351
:10466000082E000C990B881699060CF019C38401CA
:1046700083E0000F111F8A95E1F7F801EB57FD4F1A
:104680002081318182819381820F931F9183808366
:104690004481558126813781240F351F358324833A
:1046A0008C302EEF920724F488519A4C91838083AA
:1046B000F801EB57FD4F80819181853F33E39307EC
:1046C00024F0885E954391838083F801EB57FD4F7A
:1046D000848195818C304EEF940724F48851934E59
:1046E00095838483F801EB57FD4F84819581853F45
:1046F0005AE1950724F0885E9C4195838483F12CD0
:10470000C8018B579D4F3C012C0194E0490E511C70
:10471000AF2DB0E02091A503822F022E000C990B43
:10472000A817B9070CF08CC1EA9EF001EB9EF00DC2
:104730001124AF014B5A5C4F5A01FA01408151815B
:10474000F30160817181461B570BBA0160577E4FA0
:104750006132734068F4F50164817581F201A080D3
:10476000B1806A197B0960577E4F61327340F8F05F
:1047700057FF03C0519541955109EA9EB001EB9E48
:10478000700D1124FB01EB5AFC4F64817581D2013D
:10479000ED91FC916E1B7F0B77FF03C071956195C6
:1047A0007109460F571F483552400CF047C13F2D45
:1047B000AC0141505109A32EB12CA416B50684F5C5
:1047C000B5016F5F7F4FE69ED001E79EB00D1124CB
:1047D000AB5ABC4F6D917C911197EA9CF001EB9C18
:1047E000F00D1124EB5AFC4F7183608312966D918A
:1047F0007C9113977383628314966D917C911597C6
:104800007583648316966D917C9117977783668381
:1048100018966D917C911997718760873F5FCBCF18
:10482000E89EF001E99EF00D1124EB5AFC4F118235
:1048300010823E2D2303D0011124AB5ABC4F139696
:104840001C921E921297158214821782168211866C
:10485000108621502093A5036BE470E086E990E078
:104860000E94841780914C0390914D03049690937D
:104870004D0380934C038091480348E08402C001BB
:104880001124DC01A359BE4F5D01F30180819181A8
:104890008D939C93D2018D919C91F5019583848396
:1048A00064E670E080E090E00E943013DC01CB0110
:1048B000C297A109B109F50193838283A0904803AF
:1048C0000A2C000CBB0864E670E080E090E00E94D7
:1048D0003013F501A3E0EE0FFF1FAA95E1F7E359AE
:1048E000FE4FDC01CB01C297A109B10997838683F2
:1048F000A09048030A2C000CBB0864E070E080E044
:1049000090E00E943013F501E35BFE4F60838091DD
:1049100048038F5F80934803F8E08F02C0011124A1
:104920009C0123593E4F5901D3018D919C91F9016E
:1049300091838083D2018D919C919583848364E6D9
:1049400070E080E090E00E943013DC01CB01C29760
:10495000A109B109F50193838283A09048030A2C31
:10496000000CBB0864E670E080E090E00E94301329
:10497000F501B3E0EE0FFF1FBA95E1F7E359FE4FE3
:10498000DC01CB01C297A109B10997838683A0906E
:1049900048030A2C000CBB0864E070E080E090E063
:1049A0000E943013F501E35BFE4F60838091480362
:1049B0008F5F8093480320914903422F022E000C01
:1049C000550B415051093D2D832F90E084179507D9
:1049D00094F5DC011196FD01EB58FD4F6081FC015F
:1049E000EB58FD4F608363E0AA0FBB1F6A95E1F7A8
:1049F000AB57BD4F6D917C911197E3E0880F991FE4
:104A0000EA95E1F7FC01EB57FD4F71836083129645
:104A10008D919C9113979383828314968D919C9191
:104A200015979583848316968D919C9117979783FC
:104A300086833F5FC9CF215020934903F39468CE0A
:104A4000F401EB58FD4F8081813009F47FC0ECF513
:104A50008111F5C00B571D4FD80114966D917C91B3
:104A60001597072E000C880B990B0E9486302AE0C0
:104A700037ED43E25CE30E94123120E030E040E891
:104A800050E40E94E12F0E944E304B015C01F8017E
:104A900060817181072E000C880B990B0E94863073
:104AA0002AE037ED43E25CE30E94123120E030E07F
:104AB00040E850E40E94E12F0E944E30DC01CB011F
:104AC00008E028E04CE951E07BC0823009F47CC06A
:104AD000833009F0B4C00B571D4FD80114966D9167
:104AE0007C911597072E000C880B990B0E9486303D
:104AF0002AE037ED43E25CE30E94123120E030E02F
:104B000040E850E40E94E12F0E944E304B015C01CE
:104B1000F80160817181072E000C880B990B0E94AF
:104B200086302AE037ED43E25CE30E94123120E058
:104B300030E040E850E40E94E12F0E944E30DC015A
:104B4000CB0108E028E044E851E03AC00B571D4F84
:104B5000D80114966D917C911597072E000C880B47
:104B6000990B0E9486302AE037ED43E25CE30E9415
:104B7000123120E030E040E850E40E94E12F0E9432
:104B80004E304B015C01F80160817181072E000CF1
:104B9000880B990B0E9486302AE037ED43E25CE3F4
:104BA0000E94123120E030E040E850E40E94E12F02
:104BB0000E944E30DC01CB0108E028E044E951E0DE
:104BC000B4010E949A196AC00B571D4FD801149660
:104BD0006D917C911597072E000C880B990B0E9404
:104BE00086302AE037ED43E25CE30E94123120E098
:104BF00030E040E850E40E94E12F0E944E304B012B
:104C00005C01F80160817181072E000C880B990B03
:104C10000E9486302AE037ED43E25CE30E941231C5
:104C200020E030E040E850E40E94E12F0E944E3046
:104C3000DC01CB0108E028E04CE851E0C1CF0B5784
:104C40001D4FD80114966D917C911597072E000C7D
:104C5000880B990B0E9486302AE037ED43E25CE333
:104C60000E9412310E944E304B015C01F8016081BC
:104C70007181072E000C880B990B0E9486302AE068
:104C800037ED43E25CE30E9412310E944E30DC01BA
:104C9000CB0124E044E0B4010E94B218D394DCCCF0
:104CA000D12CAAE0CA2EED2CF12C80914803082EBD
:104CB000000C990BE816F9060CF03CC28701F3E0F2
:104CC000000F111FFA95E1F7F801E359FE4F20811B
:104CD000318182819381820F931F918380834481EC
:104CE000558126813781240F351F358324838C30ED
:104CF0002EEF920724F488519A4C91838083F80117
:104D0000E359FE4F80819181853F33E3930724F07F
:104D1000885E954391838083F801E359FE4F848137
:104D200095818C304EEF940724F48851934E9583EF
:104D30008483F801E359FE4F84819581853F5AE1D0
:104D4000950724F0885E9C4195838483B12CC8012B
:104D500083599E4F4C013C0194E0690E711C4B2D10
:104D600050E02091A503822F022E000C990B4817CA
:104D700059070CF0AFC0C49EF001C59EF00D112480
:104D8000EB5AFC4F40815181D4016D917C91461BBF
:104D9000570B48535F4F4139514008F099C0448147
:104DA0005581F30160817181461B570B48535F4F5A
:104DB0004139514008F08CC03B2D0197632F70E0C2
:104DC0006817790784F5AB014F5F5F4FC49ED00130
:104DD000C59EB00D1124AB5ABC4F4D915C911197FB
:104DE000C69EF001C79EF00D1124EB5AFC4F518373
:104DF000408312964D915C9113975383428314968E
:104E00004D915C9115975583448316964D915C9115
:104E100017975783468318964D915C911997518740
:104E200040873F5FCBCF21502093A5036BE470E018
:104E300086E990E00E94841780914C0390914D0385
:104E4000089690934D0380934C0320914803422F82
:104E5000022E000C550B415051093D2D832F90E03F
:104E60008417950794F5DC011196FD01E35BFE4F75
:104E70006081FC01E35BFE4F608363E0AA0FBB1F10
:104E80006A95E1F7A359BE4F6D917C911197E3E0CC
:104E9000880F991FEA95E1F7FC01E359FE4F7183F2
:104EA000608312968D919C911397938382831496BD
:104EB0008D919C9115979583848316968D919C91E5
:104EC0001797978386833F5FC9CF2150209348036C
:104ED000B39445CFF701E35BFE4F8081813009F445
:104EE0007FC0ECF58111F5C003591E4FD80114960F
:104EF0006D917C911597072E000C880B990B0E94E1
:104F000086302AE037ED43E25CE30E94123120E074
:104F100030E040E050E40E94E12F0E944E304B010F
:104F20005C01F80160817181072E000C880B990BE0
:104F30000E9486302AE037ED43E25CE30E941231A2
:104F400020E030E040E050E40E94E12F0E944E302B
:104F5000DC01CB0104E024E040E851E07BC082307A
:104F600009F47CC0833009F0B4C003591E4FD80146
:104F700014966D917C911597072E000C880B990B58
:104F80000E9486302AE037ED43E25CE30E94123152
:104F900020E030E040E050E40E94E12F0E944E30DB
:104FA0004B015C01F80160817181072E000C880BB8
:104FB000990B0E9486302AE037ED43E25CE30E94C1
:104FC000123120E030E040E050E40E94E12F0E94E6
:104FD0004E30DC01CB0104E024E044E751E03AC06C
:104FE00003591E4FD80114966D917C911597072E89
:104FF000000C880B990B0E9486302AE037ED43E2C3
:105000005CE30E94123120E030E040E050E40E9476
:10501000E12F0E944E304B015C01F80160817181EB
:10502000072E000C880B990B0E9486302AE037ED82
:1050300043E25CE30E94123120E030E040E050E4C3
:105040000E94E12F0E944E30DC01CB0104E024E0FD
:105050004CE751E0B4010E949A196AC003591E4FEF
:10506000D80114966D917C911597072E000C880B32
:10507000990B0E9486302AE037ED43E25CE30E9400
:10508000123120E030E040E050E40E94E12F0E9425
:105090004E304B015C01F80160817181072E000CDC
:1050A000880B990B0E9486302AE037ED43E25CE3DF
:1050B0000E94123120E030E040E050E40E94E12FF5
:1050C0000E944E30DC01CB0104E024E048E751E0CF
:1050D000C1CF03591E4FD80114966D917C9115973D
:1050E000072E000C880B990B0E9486302AE037EDC2
:1050F00043E25CE30E9412310E944E304B015C019E
:10510000F80160817181072E000C880B990B0E94B9
:1051100086302AE037ED43E25CE30E9412310E94C0
:105120004E30DC01CB0122E042E0B4010E94B21813
:10513000D394B9CD0E94FC0581E080934A0882E0B7
:1051400090E090934508809344080AE010E01093A3
:1051500047080093460860914C0370914D0380E02E
:1051600090E04AE00E94AF1A80E290E090934508F8
:1051700080934408109347080093460880914B039E
:10518000082E000C990B0E94B61B88E790E09093C4
:10519000450880934408109347080093460880917F
:1051A0005003082E000C990B0E94B61B80915003EF
:1051B000811102C00E94A80588E00E94991A8823E4
:1051C00009F456C384E08093A90352C368EB7BE0E3
:1051D00080E090E00E941B160E94A80582E0F3CFB9
:1051E000A4E6EA2EF12C00E0BE016D5F7F4FC701FF
:1051F0000E9492058B819C81019611F41C821B8276
:1052000020914C0330914D038B819C818217930731
:1052100008F091C180E28093AC038093AD0380934A
:10522000AE0310E030E4E32EF12C48E4C42ED12C80
:1052300051E2B52E60E3A62E71E4972EEFE28E2E9A
:10524000FAE57F2E13300CF010C10E94371B882323
:10525000C9F30E942E1B20E130E0309345082093D3
:105260004408109247081092460889E691E00E948F
:10527000001B48E550E050934508409344081092C5
:1052800047081092460860914C0370914D0380E0EE
:1052900090E04AE00E94AF1A88E390E090934508BE
:1052A0008093440830924708209246088091AC03CE
:1052B0000E94A41AF0924508E092440830924708F0
:1052C000209246088091AD030E94A41AD09245080E
:1052D000C092440830924708209246088091AE035D
:1052E0000E94A41A2BE130E04EE350E06BE170E045
:1052F00088E390E00E942D182BE130E046E450E076
:105300006BE170E080E490E00E942D182BE130E02A
:105310004EE450E06BE170E088E490E00E942D18CC
:10532000812F012E000C990B079623E0880F991FFF
:105330002A95E1F7AC014A5F5F4F2CE130E06CE168
:1053400070E00E942D1866E970E080E090E00E9415
:105350001B1680E20E94991A882349F068EC70E0DD
:1053600086E194E00E948417115017FD10E080E45C
:105370000E94991A882351F01F5F13300CF012E03D
:1053800068EC70E086E194E00E9484170E94A71701
:1053900084FF26C0812F012E000C990BDC01A4553F
:1053A000BC4F2D018C918F5F8C9366E970E08BE090
:1053B00092E00E948417F2018081803311F480E230
:1053C0008083D2018C91813209F49C92F201808118
:1053D0008B3509F4A082D2018C91803409F4BC92FF
:1053E0000E94A71787FF27C0812F012E000C990B61
:1053F000FC01E455FC4F2F0180818150808366E9D8
:1054000070E08BE092E00E948417D2018C91803290
:1054100011F48FE38C93F20180818F3209F4708252
:10542000D2018C918F3109F48C92F2018081803409
:1054300011F480E280830E94A71783FF09C0123015
:105440003CF01F5F68EC70E086E194E00E948417F6
:1054500080913708809338080E94A71780933708F7
:1054600082E398E00E948804EDCE702EF5E07F9EE6
:1054700080011124480124E6820E911CBE016D5F5B
:105480007F4FC4010E9492058B819C81019611F48B
:105490001C821B82580146E6A40EB11CC5010E9465
:1054A000A605482E680157E6C50ED11CC6010E940C
:1054B000A605582E780188E6E80EF11CC7010E9467
:1054C000A605682E60914C039A828982CE010196CE
:1054D0000E94031160914D030B591F4F1A830983DA
:1054E000CE0101960E9403116091AC03C5010E9498
:1054F000702F6091AD03C6010E94702F6091AE03C2
:10550000C7010E94702F8B819C8190934D038093E3
:105510004C034092AC035092AD036092AE0373947F
:1055200097E07912A3CF80E28093AC038093AD0320
:105530008093AE0307C00F5FA5E0EA0EF11C0730B1
:1055400009F052CE0E94C10593C180E290E0909391
:10555000450880934408109247081092460881E05D
:1055600080934A084BE050E06DE371E08EE298E0F2
:105570000E94851119E0C12ED12C04E610E0E12C27
:10558000F12C8EE1A82EB12C6CE473E0C8010E94CE
:10559000920580914C0390914D03019621F4109255
:1055A0004D0310924C03C80102960E94A6058093F9
:1055B000AC03C80103960E94A6058093AD03C80101
:1055C00004960E94A6058093AE03B0924508A0926F
:1055D0004408D0924708C0924608EFEFEE1AFE0A40
:1055E000C7010E94B61B87E692E00E94001B8091D3
:1055F000AC030E94A41A8091AD030E94A41A80916A
:10560000AE030E94A41A85E692E00E94001B6091FE
:105610004C0370914D0380E090E04AE00E94AF1A85
:1056200010924D0310924C030B5F1F4FF8E0CF0E0A
:10563000D11C27E0E216F10409F0A6CF88E00E9411
:10564000991A81111092A90380E20E94991A882365
:1056500019F085E08093A903809135089091360870
:105660006FE070E00E947F31892B79F40E94941BD7
:105670009C0140E050E060E070E381E190E00E9436
:105680007E2F3093AB032093AA0384E690E090939F
:1056900045088093440882E390E090934708809304
:1056A000460864C080E290E09093450880934408E7
:1056B0008EE190E0909347088093460882E08093C3
:1056C0004A088FE592E00E94001B84E00E94991A2C
:1056D000882319F081E08093A90388E00E94991A39
:1056E00081110E94C10580E80E94991A811105C0AC
:1056F00080E10E94991A882389F0809145038823CC
:1057000009F4C4C20E94D5176091450382E090E07D
:105710009A838983CE0101960E94031180913508F6
:105720009091360864E170E00E947F31892B79F412
:105730000E94941B9C0140E050E060E070E381E136
:1057400090E00E947E2F3093AB032093AA0384E65F
:1057500090E0909345088093440882E390E0909312
:1057600047088093460881E080934A086091AA0325
:105770007091AB0380E090E04AE00E94AF1A78C0DD
:105780000EE010E0109345080093440880E290E09A
:10579000909347088093460881E080934A088DE4FF
:1057A00092E00E94001B109345080093440888E291
:1057B00090E090934708809346088BE392E00E9424
:1057C000001B0E94A7178474843409F04BC0F4E6D0
:1057D000AF2EB12CA4E2CA2ED12CB0E2EB2EF12CCC
:1057E0000E942E1BD0924508C092440800E210E0AF
:1057F000F0924708E092460880E392E00E94001B86
:1058000082E398E00E948804BA82A9826FEFCE01F9
:1058100001960E9403113FEFA31AB30A47E8A416AA
:10582000B104F1F664EF71E080E090E00E941B1695
:1058300010934508009344081093470800934608C6
:105840000E942E1B84E292E00E94001B82E398E0FB
:105850000E94880468EE73E080E090E00E941B16CE
:105860001092A90388E00E94991A81111092A9034D
:1058700081E080934A0882E090E09093450880930D
:105880004408EAE0EE2EF12CF0924708E092460838
:1058900060914C0370914D0380E090E04AE00E94DB
:1058A000AF1A80E290E09093450880934408F0920C
:1058B0004708E092460880914B03082E000C990B94
:1058C0000E94B61B88E790E09093450880934408B7
:1058D000F0924708E092460880915003082E000C91
:1058E000990B0E94B61B8CE290E090934508809340
:1058F0004408F0924708E09246088091A803082ED9
:10590000000C990B0E94B61B8CE390E09093450825
:1059100080934408F0924708E092460880914A0339
:10592000082E000C990B0E94B61B8EE490E0909319
:10593000450880934408F0924708E0924608809119
:105940004903082E000C990B0E94B61B80E690E0DC
:105950009093450880934408F0924708E0924608E7
:1059600080914803082E000C990B0E94B61B8EE60E
:1059700090E09093450880934408F0924708E092A5
:1059800046088091A503082E000C990B0E94B61BB7
:1059900004E610E0109345080093440889E190E084
:1059A0009093470880934608809153039091540345
:1059B0000E94B61B109345080093440883E290E0D0
:1059C0009093470880934608809151039091520329
:1059D0000E94B61B10934508009344088DE290E0A6
:1059E00090934708809346088091A6039091A7035F
:1059F0000E94B61B109345080093440887E390E08B
:105A000090934708809346088091460390914703FE
:105A10000E94B61BF0924508E092440882E390E0B1
:105A2000909347088093460880914E0390914F03CE
:105A30000E94B61BF0924508E09244088EE190E087
:105A400090934708809346088091430854E6859FC9
:105A5000C00111246091390870E00E949331CB019C
:105A60000E94B61B80914503882309F443C042E09D
:105A70006EE370E08DE790E00E94F81742E06FE37C
:105A800070E08DE790E00E94F81721E04EE350E0CF
:105A90006DE770E082E398E00E94970421E04FE315
:105AA00050E06DE770E082E398E00E94970421E007
:105AB0004EE350E06EE770E082E398E00E949704C6
:105AC00021E04FE350E06EE770E082E398E00E944F
:105AD00097042FE330E04EE750E06BE370E08EE791
