:100000000C945D040C9485040C9485040C94850474
:100010000C9485040C9485040C9485040C9485043C
:100020000C9485040C9485040C9450100C94C2100C
:100030000C9485040C9485040C9485040C9485041C
:100040000C9485040C9485040C9485040C9485040C
:100050000C9485040C9485040C9485040C94D6139C
:100060000C9485040C9485040C9485040C948504EC
:100070000C9485040C9485040C9485040C948504DC
:100080000C9420140C9485040C9485040C94850421
:100090000C9485040C9485040C9485040C948504BC
:1000A0000C9485040C9485040C948504F0F89C8EC3
:1000B0008783878E9CF8F00000FEFF030303030391
:1000C000070EFCF80000FEFF0303030303070EFC0A
:1000D000F80000FFFF00000000000000FFFF00002C
:1000E000FEFF8383838383C7EE7C380000F8FC0E19
:1000F00007030303070EFCF800003F7FE0C0808089
:10010000C0E07F3FFFFF01010101010101FFFF008E
:1001100000FFFF0C0C0C0C1C3E77E3C100007FFFBE
:10012000C0C0C0C0C0E0703F1F00001F3F70E0C0F3
:10013000C0C0E0703F1F00007FFFC1C1C1C1C1E36B
:10014000773E1C00001F3F70E0C0C0C0E0703F1F42
:10015000000000000001FFFF01000000D5F08D1439
:10016000A1C881CFD9F1AF20004849474820534367
:100170004F524500040A090606090906020D090640
:10018000060A090F18264181824224181824444285
:100190004222221C3C4283818182621C265A814277
:1001A0004181413E0000C0300C02020202040404FE
:1001B00008F0000000000003041820202020101088
:1001C000080807000080601008040202020202040E
:1001D0000830C0000001020C1020404040402010B8
:1001E000080403000000C0300C0404020204040CE4
:1001F00030C00000000F1020202020404040201080
:100200000804030000C040404080806018040204DD
:100210000830C00000030C10202040404040242A39
:100220001201010003030201FFFEFDFEFF010203B4
:1002300003FDFEFF0102030201FFFEFD03030303B2
:10024000030303FDFDFDFDFDFDFDFDFDFDFD0303C0
:100250000303030300020303030404040303030270
:1002600000FEFDFDFDFCFCFCFDFDFDFEFCFCFDFDBE
:10027000FDFE00020303030404040303030200FE63
:10028000FDFDFDFCFDFDFDFDFDFDFDFDFDFDFDFD9F
:10029000FD0303030303030303030303030201FF3B
:1002A000FEFDFD030201FFFEFDFEFF010203FDFD59
:1002B000FEFF010200EC05ED0AEF0EF211F613FB52
:1002C00014001305110A0E0E0A1105130014FB1376
:1002D000F611F20EEF0AED05EC00EDFBEFF6F2F28F
:1002E000F6EFFBED45524541534520444F4E450046
:1002F000574F524B494E472E2E2E005354415254C5
:10030000203D205249474854202B20420045524569
:10031000415345204849474853434F52453F0050B9
:1003200041555345002000200010385C56565C387B
:100330001041535445524F494453000000000000FF
:100340003E5B4F5B3E3E6B4F6B3E1C3E7C3E1C1843
:100350003C7E3C181C577D571C1C5E7F5E1C0018A1
:100360003C1800FFE7C3E7FF0018241800FFE7DB95
:10037000E7FF30483A060E2629792926407F0505F1
:1003800007407F05253F5A3CE73C5A7F3E1C1C082E
:10039000081C1C3E7F14227F22145F5F005F5F06F3
:1003A000097F017F006689956A606060606094A241
:1003B000FFA29408047E040810207E201008082A5A
:1003C0001C08081C2A08081E101010100C1E0C1EF9
:1003D0000C30383E3830060E3E0E0600000000009D
:1003E00000005F00000007000700147F147F142442
:1003F0002A7F2A12231308646236495620500008C7
:10040000070300001C2241000041221C002A1C7F1F
:100410001C2A08083E0808008070300008080808F8
:1004200008000060600020100804023E5149453E6B
:1004300000427F400072494949462141494D3318E5
:1004400014127F1027454545393C4A49493141211D
:100450001109073649494936464949291E00001401
:100460000000004034000000081422411414141449
:1004700014004122140802015909063E415D594EFB
:100480007C1211127C7F494949363E414141227F0D
:100490004141413E7F494949417F090909013E41A6
:1004A0004151737F0808087F00417F41002040418F
:1004B0003F017F081422417F404040407F021C02E0
:1004C0007F7F0408107F3E4141413E7F09090906B4
:1004D0003E4151215E7F0919294626494949320387
:1004E000017F01033F4040403F1F2040201F3F400D
:1004F00038403F63140814630304780403615949C6
:100500004D43007F41414102040810200041414118
:100510007F040201020440404040400003070800FD
:1005200020545478407F2844443838444444283880
:100530004444287F385454541800087E090218A4F3
:10054000A49C787F0804047800447D40002040404B
:100550003D007F1028440000417F40007C04780467
:10056000787C080404783844444438FC182424185F
:1005700018242418FC7C0804040848545454240407
:10058000043F44243C4040207C1C2040201C3C4034
:1005900030403C44281028444C9090907C44645453
:1005A0004C44000836410000007700000041360846
:1005B0000002010204023C2623263C1EA1A1611276
:1005C0003A4040207A3854545559215555794121A3
:1005D00054547841215554784020545579400C1E8C
:1005E0005272123955555559395454545939555434
:1005F00054580000457C410002457D420001457C85
:1006000040F0292429F0F0282528F07C5455450095
:100610002054547C547C0A097F493249494932327A
:1006200048484832324A4848303A4141217A3A42B1
:10063000402078009DA0A07D39444444393D40408D
:10064000403D3C24FF2424487E4943662B2FFC2F49
:100650002BFF0929F620C0887E09032054547941D4
:100660000000447D413048484A32384040227A00F8
:100670007A0A0A727D0D19317D2629292F2826290B
:1006800029292630484D402038080808080808085D
:1006900008382F10C8ACBA2F102834FA00007B009D
:1006A0000008142A142222142A1408950022009506
:1006B000AA005500AAAA55AA55AA000000FF0010DA
:1006C0001010FF00141414FF001010FF00FF101092
:1006D000F010F0141414FC001414F700FF0000FFD5
:1006E00000FF1414F404FC141417101F10101F1032
:1006F0001F1414141F00101010F0000000001F1031
:100700001010101F10101010F010000000FF10103B
:1007100010101010101010FF10000000FF14000047
:10072000FF00FF00001F10170000FC04F414141752
:1007300010171414F404F40000FF00F71414141438
:10074000141414F700F7141414171410101F101FAA
:10075000141414F4141010F010F000001F101F00F7
:1007600000001F14000000FC140000F010F0101036
:10077000FF10FF141414FF141010101F00000000CD
:10078000F010FFFFFFFFFFF0F0F0F0F0FFFFFF00C1
:1007900000000000FFFF0F0F0F0F0F3844443844D4
:1007A0007C2A2A3E147E02020606027E027E026334
:1007B000554941633844443C04407E201E200602D3
:1007C0007E020299A5E7A5991C2A492A1C4C7201B0
:1007D000724C304A4D4D303048784830BC625A46F1
:1007E0003D3E494949007E0101017E2A2A2A2A2AE2
:1007F00044445F444440514A444040444A514000CC
:1008000000FF0103E080FF000008086B6B08361250
:10081000362436060F090F060000181800000010D5
:1008200010003040FF0101001F01011E00191D17BB
:1008300012003C3C3C3C0000000000010204081097
:10084000204080080B0002020201000904000001A0
:100850000202000005240010010524010101042406
:100860000206052406000107058103100040090463
:100870000100020A0000000705020240000007050F
:1008800083024000000403090412010002EF020188
:100890004041233680000101020301417264756901
:1008A0006E6F204C4C430041726475696E6F204C32
:1008B000656F6E6172646F000D2E11241FBECFEF45
:1008C000DAE0DEBFCDBF11E0A0E0B1E0E8EBFEE58D
:1008D00002C005900D92AA34B107D9F728E0AAE426
:1008E000B1E001C01D92A236B207E1F714E0CDE5F8
:1008F000D4E004C02197FE010E944F2FCC35D107D0
:10090000C9F70E9411190C945A2F0C9400000895F5
:10091000089580E090E008953E9A3F9A81E08093A8
:1009200045030895EBE3F8E090E1969FD001A078AD
:100930001124A80F6770E60FF11D9491A852BC4FC7
:10094000442319F08C91982B03C090958C91982397
:100950009C930895E8EDF3E080E0A0E0B8E000802B
:100960000EBC8111012C1197A0FDFDCF0192B9F7AA
:100970000895CB01BA018038910530F44034510517
:1009800018F4422F0C94920408952F923F924F92A4
:100990005F926F927F928F929F92AF92BF92CF920F
:1009A000DF92EF92FF920F931F93CF93DF93CDB718
:1009B000DEB729970FB6F894DEBF0FBECDBFFC019E
:1009C0006A3069F4248D808D918D38E0239F800DED
:1009D000911D1124918F808F178A168AAAC06D30BD
:1009E00009F4A7C099878887F48C338C228C608C9B
:1009F000718C0689178900381105C4F0A885B9855E
:100A00005C962C915C97422F50E056968D919C916C
:100A10005797B6E02B9F800D911D1124E885F9852D
:100A2000978B868B258D21116EC083C0F0E46F16E5
:100A3000710424F7C80125E0F29E800D911D112458
:100A400018161906DCF68F2D90E09C838B83C3016A
:100A5000A8E0FA9E800D911D11241816190674F64F
:100A6000B5E06B9FB0011124FB01E55CFC4FFA83FC
:100A7000E98330E08885998504969E838D83E9819A
:100A8000FA81E490353009F4E12C430188E0482EE6
:100A9000E0FC02C0532C01C0522C51100BC032108C
:100AA00009C0E6944A948B819C81880E991E41105E
:100AB000EFCF1BC068018C2D801B8F1590F7540160
:100AC0008A2D88198F1568F4252DA501B6018D8111
:100AD0009E813F830E94B9049FEFA91AB90A3F8102
:100AE000EFCFAFEFCA1ADA0AE6CF3F5FEB81FC81A6
:100AF0000E0F1F1F89819A8101969A838983363050
:100B000009F0BDCF7BCF6AEF64039001659F300D84
:100B1000112420583F4F281739075CF4A885B98560
:100B2000ED91FC9111970190F081E02D6AE0CD01EB
:100B3000099581E090E029960FB6F894DEBF0FBECC
:100B4000CDBFDF91CF911F910F91FF90EF90DF907C
:100B5000CF90BF90AF909F908F907F906F905F905D
:100B60004F903F902F9008950F931F93CF93DF9353
:100B70008C01EB010E94AE2E8883C80101960E9471
:100B8000AE2E8983CE01DF91CF911F910F910895F1
:100B90000C94AE2E10924A03E0E5F3E01782168221
:100BA0001582148288E790E090934F0380934E0360
:100BB00010924D031092470310924803109249037C
:100BC0000895EAE5F3E080E099E19183808388E885
:100BD00093E1938382830E94CA051092630310926B
:100BE0004C0310924B03089580E19FEF90934F03C5
:100BF00080934E0362E370E086E990E00E948014E7
:100C000080915903815080935903E0E5F3E080E03F
:100C100099E19183808380E89CE0938382831582AD
:100C200014821782168208953F924F925F926F92BC
:100C30007F928F929F92AF92BF92CF92DF92EF926C
:100C4000FF920F931F93CF93DF9380914E03909168
:100C50004F0397FD02C5A12C29E0B22E0A2D10E00A
:100C600080914903082E000C990B081719070CF006
:100C7000E4C1B09EF001B19EF00D1124E350FD4F90
:100C8000C081D1812091500330915103AE01421BAC
:100C9000530BA09158030A2E000CBB0BBD016C5DD9
:100CA0007D4FFB0184917A01E80EF11C87FDFA94D7
:100CB0008091520390915303FD0178963F01FB010F
:100CC0001E141F0464F4D4902A014D0C511CD7FC4F
:100CD0005A94E4EF4E16E1E05E067CF040C0F490DA
:100CE000F901EC1BFD0B2F014F185108F7FC539431
:100CF000E4EF4E16E1E05E0694F5B09EF001B19E81
:100D0000F00D1124E350FD4F828093806401C81AD6
:100D1000D90AF301EC5DFD4FF49026014F0C511CF4
:100D2000F7FC5A941414150464F4E491CE0ED11C0B
:100D3000E7FDDA94E4EFCE16E1E0DE060CF440C500
:100D40000EC0E4917C01E818F908EE1AF108E7FDFD
:100D5000F394F4EFEF16F1E0FF060CF431C5FB015C
:100D6000D490FA01ED0DF11DD7FCFA951E161F0661
:100D700044F4FB0164914A01860E911C67FD9A942C
:100D800009C0FB01649149018C1A9D0A861A9108D9
:100D900067FD9394B09EF001B19EF00D1124E350D5
:100DA000FD4FE280F380B701681B790BF301EC5D26
:100DB000FD4FD4902B014D0C511CD7FC5A941414A8
:100DC000150444F4E4913B016E0E711CE7FD7A9426
:100DD000F30108C0D490FC01EE19FF09ED19F109E7
:100DE000D7FCF3958E0E9F1EECEB8E16E2E09E066E
:100DF0000CF4E6C4FD01EC5AFD4F6F0174902A011A
:100E0000470C511C77FC5A94FD01E85BFF4F3F01F2
:100E1000F6011414150464F454904A01850C911CD5
:100E200057FC9A94E4EF8E16E1E09E067CF038C001
:100E30009490F901EC1BFD0B2F014918510897FC08
:100E40005394E4EF4E16E1E05E0654F5F301EC5DD9
:100E5000FD4F4F013490FB01E30DF11D37FCFA9576
:100E60001E161F0674F4F40184902B01480C511CCB
:100E700087FC5A94E4EF4E16E1E05E060CF4A0C441
:100E80000FC0F40184902C014E185F0848185108D7
:100E900087FC5394F4EF4F16F1E05F060CF490C416
:100EA000F6015490FA01E50DF11D57FCFA951E1656
:100EB0001F0644F4F601C4904A018C0C911CC7FC37
:100EC0009A9409C0F601C49049018C1A9D0A8C18A5
:100ED0009108C7FC9394F301EC5DFD4F6F015490B2
:100EE000FB01E50DF11D57FCFA951E161F0644F493
:100EF000F601C490FB01EC0DF11DC7FCFA9509C089
:100F0000F601C490FC01EE19FF09EC19F109C7FCC8
:100F1000F3958E0E9F1EFCEB8F16F2E09F060CF4ED
:100F20004FC4FD01EC57FD4F6F0174902A01470C2F
:100F3000511C77FC5A94FD01E858FF4F4F01F60110
:100F4000141415043CF47490FA01E70DF11D77FCBC
:100F5000FA9508C0A491F901EC1BFD0BEA1BF109FD
:100F6000A7FDF395E43FF14044F5D401AC5DBD4FDE
:100F7000FD015490FB01E50DF11D57FCFA951E167D
:100F80001F0664F4FD01A491FB01EA0FF11DA7FD0A
:100F9000FA95E43FF1400CF413C40FC0FD01A49195
:100FA0003C016E187F086A1A7108A7FD7394F4EF6C
:100FB0006F16F1E07F060CF403C4F6017490FA0199
:100FC000E70DF11D77FCFA951E161F063CF4F6019D
:100FD000C4904C0D511DC7FC5A9509C0F601C49030
:100FE000A9014C1B5D0B4C195109C7FC5395F40129
:100FF000EC5DFD4F24912B01420E511C27FD5A94AC
:101000001414150434F4E4916E0F711DE7FD7A9504
:1010100008C0E4918E199F09BC016E1B7109E7FDA0
:101020007395640F751F6C3B72400CF4C9C303C009
:10103000215020934903A39411CEA12C99E0B92EFD
:101040000A2D10E080914803082E000C990B081718
:1010500019070CF0E4C1B09EF001B19EF00D11240F
:10106000E359FD4FC081D18120915003309151034C
:10107000AE01421B530BA09158030A2E000CBB0B70
:10108000BD016C5D7D4FFB0184917A01E80EF11C7E
:1010900087FDFA948091520390915303FD01789655
:1010A0003F01FB011E141F0464F4D4902A014D0C6F
:1010B000511CD7FC5A94E0E94E16E1E05E067CF044
:1010C00040C0F490F901EC1BFD0B2F014F185108A3
:1010D000F7FC5394E0E94E16E1E05E0694F5B09E0D
:1010E000F001B19EF00D1124E359FD4F82809380F1
:1010F0006401C81AD90AF301EC5DFD4FF490260192
:101100004F0C511CF7FC5A941414150464F4E49128
:10111000CE0ED11CE7FDDA94E0E9CE16E1E0DE0662
:101120000CF43EC40EC0E4917C01E818F908EE1AF4
:10113000F108E7FDF394F0E9EF16F1E0FF060CF497
:101140002FC4FB01D490FA01ED0DF11DD7FCFA95E7
:101150001E161F0644F4FB0164914A01860E911C81
:1011600067FD9A9409C0FB01649149018C1A9D0A9C
:10117000861A910867FD9394B09EF001B19EF00D20
:101180001124E359FD4FE280F380B701681B790B0E
:10119000F301EC5DFD4FD4902B014D0C511CD7FC9D
:1011A0005A941414150444F4E4913B016E0E711C1E
:1011B000E7FD7A94F30108C0D490FC01EE19FF0911
:1011C000ED19F109D7FCF3958E0E9F1EE8E58E16FA
:1011D000E2E09E060CF4E4C3FD01EC5AFD4F6F0102
:1011E00074902A01470C511C77FC5A94FD01E85B6E
:1011F000FF4F3F01F6011414150464F454904A01A2
:10120000850C911C57FC9A94E0E98E16E1E09E064D
:101210007CF038C09490F901EC1BFD0B2F014918AC
:10122000510897FC5394E0E94E16E1E05E0654F550
:10123000F301EC5DFD4F4F013490FB01E30DF11D17
:1012400037FCFA951E161F0674F4F40184902B01E6
:10125000480C511C87FC5A94E0E94E16E1E05E060A
:101260000CF49EC30FC0F40184902C014E185F084B
:101270004818510887FC5394F0E94F16F1E05F06D7
:101280000CF48EC3F6015490FA01E50DF11D57FCE4
:10129000FA951E161F0644F4F601C4904A018C0C00
:1012A000911CC7FC9A9409C0F601C49049018C1A9C
:1012B0009D0A8C189108C7FC9394F301EC5DFD4FD7
:1012C0006F015490FB01E50DF11D57FCFA951E16B8
:1012D0001F0644F4F601C490FB01EC0DF11DC7FCA0
:1012E000FA9509C0F601C490FC01EE19FF09EC194A
:1012F000F109C7FCF3958E0E9F1EF8E58F16F2E0FC
:101300009F060CF44DC3FD01EC57FD4F6F01749027
:101310002A01470C511C77FC5A94FD01E858FF4FF5
:101320004F01F601141415043CF47490FA01E70D12
:10133000F11D77FCFA9508C0A491F901EC1BFD0B97
:10134000EA1BF109A7FDF395E039F14044F5D4011A
:10135000AC5DBD4FFD015490FB01E50DF11D57FC47
:10136000FA951E161F0664F4FD01A491FB01EA0F15
:10137000F11DA7FDFA95E039F1400CF411C30FC03F
:10138000FD01A4913C016E187F086A1A7108A7FD3F
:101390007394F0E96F16F1E07F060CF401C3F601D7
:1013A0007490FA01E70DF11D77FCFA951E161F06E1
:1013B0003CF4F601C4904C0D511DC7FC5A9509C070
:1013C000F601C490A9014C1B5D0B4C195109C7FCD7
:1013D0005395F401EC5DFD4F24912B01420E511CFD
:1013E00027FD5A941414150434F4E4916E0F711D02
:1013F000E7FD7A9508C0E4918E199F09BC016E1B28
:101400007109E7FD7395640F751F683572400CF420
:10141000C7C203C0215020934803A39411CEA12C2E
:1014200089E0B82EAA2DB0E080914703082E000C69
:10143000990BA817B9070CF018C1BA9EF001BB9E12
:10144000F00D1124E35BFE4FC081D1812091500348
:1014500030915103AE01421B530B80915803082E6B
:10146000000C990BFC01EC5DFD4F64912A01460EC6
:10147000511C67FD5A941414150454F4E491BA01F4
:101480006E0F711DE7FD7A956039714064F03CC0C4
:10149000E491B9016C1B7D0B6E1B7109E7FD73951F
:1014A000603971408CF5BA9EF001BB9EF00D11249D
:1014B000E35BFE4FE280F38060915203709153032F
:1014C0008701061B170BFC01E45CFD4FD49028013B
:1014D0004D0C511CD7FC5A941414150454F4E49187
:1014E0000E0F111DE7FD1A95003911400CF448C389
:1014F0000BC0E4916E197F096E1B7109E7FD7395AE
:10150000603971400CF43CC3FC01EC5AFD4F64910E
:101510002A01460E511C67FD5A941414150454F404
:10152000E491BA016E0F711DE7FD7A956039714043
:1015300064F03CC0E491B9016C1B7D0B6E1B71091A
:10154000E7FD7395603971408CF5BA9EF001BB9E42
:10155000F00D1124E35BFE4FC280D38060915203F3
:10156000709153038601061B170BFC01E459FD4FD4
:10157000F49028014F0C511CF7FC5A9414141504D4
:1015800054F4E4910E0F111DE7FD1A950039114036
:101590000CF4F6C20BC0E4916C197D096E1B710945
:1015A000E7FD7395603971400CF4EAC2FC01EC5719
:1015B000FD4F64912A01460E511C67FD5A94141484
:1015C00015044CF4E4914E0F511DE7FD5A95403936
:1015D000514064F040C0E4912C1B3D0B2E1B31099F
:1015E000E7FD3395203931400CF035C0BA9EF0014B
:1015F000BB9EF00D1124E35BFE4F6281738120914D
:10160000520330915303AB01421B530BFC01E456D0
:10161000FD4F8491DA01A80FB11D87FDBA951A1606
:101620001B0654F4E4914E0F511DE7FD5A954039C5
:1016300051400CF4A5C20FC0E491261B370B2E1BA2
:101640003109E7FD3395203931400CF499C203C0CC
:10165000215020934703A394E5CE019611F488E727
:1016600090E090934F0380934E0380914903811142
:10167000B4C2809148038111B0C2809147038111A7
:10168000ACC280914E0390914F0397FDA6C220916A
:1016900046032111A2C20197181619062CF4909343
:1016A0004F0380934E0399C288E790E090934F03D5
:1016B00080934E0380914A0388301CF48F5F80939F
:1016C0004A03D0E0C9E080914A03D8170CF085C2E4
:1016D00000914903002E000C110B68EE7CE180E0C4
:1016E00090E00E942C10C09FF001C19FF00D1124CA
:1016F000E350FD4F60587A4D718360830091490338
:10170000002E000C110B68E670E180E090E00E9472
:101710002C10C09FF001C19FF00D1124E350FD4F2C
:1017200060547D4E7383628300914903002E000C48
:10173000110B64E670E080E090E00E942C10C09FE6
:10174000F001C19FF00D1124E350FD4FDC01CB01EE
:10175000C297A109B1099583848300914903002EA2
:10176000000C110B64E670E080E090E00E942C1009
:10177000C09FF001C19FF00D1124E350FD4FDC012B
:10178000CB01C297A109B1099783868300914903D0
:10179000002E000C110B64E070E080E090E00E94ED
:1017A0002C10C09FF001C19FF00D1124E350FD4F9C
:1017B0006087809149038F5F80934903DF5F83CF08
:1017C00062E370E086E990E00E9480140E94F405D4
:1017D000209148033B2D2303E0011124C359DD4F21
:1017E000B09EC001B19E900D11248C0103501D4F7D
:1017F000D8012D913C91119714968D919C9115973C
:10180000820F931F9983888312962D913C91139791
:1018100016968D919C911797820F931F9B838A83B5
:1018200064E670E080E090E00E942C10DC01CB01C7
:10183000C297A109B1099D838C83C09148030C2EE6
:10184000000CDD0B64E670E080E090E00E942C105C
:10185000BC9EF001BD9EF00D1124E359FD4FDC014B
:10186000CB01C297A109B10997838683C091480330
:101870000C2E000CDD0B64E070E080E090E00E9434
:101880002C10BC9EF001BD9EF00D1124E359FD4FBC
:101890006087C091480321E02C0F209348033B2D23
:1018A0002303E0011124C359DD4FD8012D913C9150
:1018B000119714968D919C911597820F931F998380
:1018C000888312962D913C91139716968D919C9139
:1018D0001797820F931F9B838A8364E670E080E0F2
:1018E00090E00E942C10DC01CB01C297A109B10944
:1018F0009D838C83C09148030C2E000CDD0B64E6A5
:1019000070E080E090E00E942C10BC9EF001BD9E33
:10191000F00D1124E359FD4FDC01CB01C297A10961
:10192000B10997838683C09148030C2E000CDD0B10
:1019300064E070E080E090E00E942C10BC9EF0011A
:10194000BD9EF00D1124E359FD4F6087809148033F
:101950008F5F809348033A2D832F90E020914903B5
:10196000422F022E000C550B415051098417950748
:101970000CF05ECBB89ED001B99EB00D1124A350DF
:10198000BD4F0196B89EF001B99EF00D1124E350B1
:10199000FD4F8B2D01900D928A95E1F73F5FDCCFD3
:1019A00062E370E086E990E00E9480140E94F405F2
:1019B000209147033B2D2303E0011124C35BDE4F3D
:1019C000B09EC001B19E900D11248C0103591D4F92
:1019D000D8012D913C91119714968D919C9115975A
:1019E000820F931F9983888312962D913C911397B0
:1019F00016968D919C911797820F931F9B838A83D4
:101A000064E670E080E090E00E942C10DC01CB01E5
:101A1000C297A109B1099D838C83C09147030C2E05
:101A2000000CDD0B64E670E080E090E00E942C107A
:101A3000BC9EF001BD9EF00D1124E35BFE4FDC0166
:101A4000CB01C297A109B10997838683C09147034F
:101A50000C2E000CDD0B64E070E080E090E00E9452
:101A60002C10BC9EF001BD9EF00D1124E35BFE4FD7
:101A70006087C091470321E02C0F209347033B2D43
:101A80002303E0011124C35BDE4FD8012D913C916B
:101A9000119714968D919C911597820F931F99839E
:101AA000888312962D913C91139716968D919C9157
:101AB0001797820F931F9B838A8364E670E080E010
:101AC00090E00E942C10DC01CB01C297A109B10962
:101AD0009D838C83C09147030C2E000CDD0B64E6C4
:101AE00070E080E090E00E942C10BC9EF001BD9E52
:101AF000F00D1124E35BFE4FDC01CB01C297A1097D
:101B0000B10997838683C09147030C2E000CDD0B2F
:101B100064E070E080E090E00E942C10BC9EF00138
:101B2000BD9EF00D1124E35BFE4F6087809147035B
:101B30008F5F809347033A2D832F90E020914803D5
:101B4000422F022E000C550B415051098417950766
:101B50000CF060CCB89ED001B99EB00D1124A359F1
:101B6000BD4F0196B89EF001B99EF00D1124E359C6
:101B7000FD4F8B2D01900D928A95E1F73F5FDCCFF1
:101B800068EC70E080E090E00E9417130E94F4057A
:101B90003A2D832F90E020914703422F022E000C14
:101BA000550B41505109841795070CF051CDB89E43
:101BB000D001B99EB00D1124A35BBE4F0196B89E13
:101BC000F001B99EF00D1124E35BFE4F8B2D0190C7
:101BD0000D928A95E1F73F5FDCCFDF91CF911F91A6
:101BE0000F91FF90EF90DF90CF90BF90AF909F90BC
:101BF0008F907F906F905F904F903F900895EF92FD
:101C0000FF920F931F93CF93DF931F92CDB7DEB751
:101C10007C01FC0100811181C80169830E94AE2E04
:101C20006981681719F0C8010E94B62EC7010F908C
:101C3000DF91CF911F910F91FF90EF900895409108
:101C4000CF035091D0032091CD033091CE034217A2
:101C50005307B4F49091E8009570E1F39091E80097
:101C600092FD19C08093F1008091CF039091D00331
:101C700001968F739927892B19F48EEF8093E800D2
:101C80008091CF039091D00301969093D0038093DD
:101C9000CF0381E0089580E00895DF92EF92FF92F4
:101CA0000F931F93CF93DF93D82E8A017B01E40E0D
:101CB000F51EEB01CE15DF0571F0D7FE03C0FE0166
:101CC000849101C088810E941F0E21968111F2CF5C
:101CD0008FEF9FEF01C0C801DF91CF911F910F914E
:101CE000FF90EF90DF900895615030F02091F10067
:101CF000FC0120830196F8CF289884E68093D203D4
:101D00000895CF92DF92EF92FF920F931F93CF939C
:101D1000DF936C017A018B01C0E0D0E0CE15DF05C6
:101D200089F0D8016D918D01D601ED91FC91019062
:101D3000F081E02DC6010995892B11F47E0102C0C6
:101D40002196ECCFC701DF91CF911F910F91FF90AA
:101D5000EF90DF90CF900895CF93DF931F92CDB790
:101D6000DEB76983DC01ED91FC910280F381E02D07
:101D700041E050E0BE016F5F7F4F09950F90DF910A
:101D8000CF91089583E08093E9008091F200882349
:101D900019F08AE38093E8000895FC018485958515
:101DA00097FD0BC09FB7F89482E08093E900809183
:101DB000F2009FBF90E0019608959FB7F89482E0EB
:101DC0008093E9008091F2009FBF90E00895809198
:101DD000C103E091BF03F091C003882349F0CF0114
:101DE00002969093C0038093BF03859194910895C8
:101DF000CF0102969093C0038093BF0380819181AD
:101E00000895CF92DF92EF92FF920F931F93CF939B
:101E1000DF930E94E70E811520E8920761F480911C
:101E200071008D7F809371001092910046984798C1
:101E30001092BE038BC021E02093BE03813020E8C6
:101E4000920751F48091BC039091BD039093C0031D
:101E50008093BF030E94E70E97FD05C02091BB034E
:101E6000222309F43FC02091BA0321113BC021E095
:101E70002093C203EC01DF77209769F481E080931F
:101E8000C30346983FE9C32E3FE0D32EE12CF12C4B
:101E9000CAEFD0E014C08E0120E030E060E472E4CC
:101EA0008FE090E0A90198010E94C42E69017A0197
:101EB00081E0C81AD108E108F1081092C303E0914B
:101EC0003608F09137080995811103C081E08093AD
:101ED000C3038091C2038823B9F18091C3038111A8
:101EE00033C003C01092C203C5CF46992DC0479A94
:101EF0000E94E70E009771F09C01DE010E94182FEE
:101F0000DC01CB0129E0B595A795979587952A9592
:101F1000D1F703C08FEF9FEFDC01109290002AE011
:101F200020939100D0929900C09298008093C403AE
:101F30009093C503A093C603B093C703809171002B
:101F400082608093710002C04798D2CFDF91CF9119
:101F50001F910F91FF90EF90DF90CF9008958091A7
:101F6000450308950E94552F0F931F93CF93DF933E
:101F70001F92CDB7DEB782E0898342E450E063E48C
:101F800078E080E80E944D0E0E94FD18DC01129658
:101F90000D911C9113970115110569F0D801ED9170
:101FA000FC910280F381E02DBE016F5F7F4FC8017D
:101FB000099597FF07C089810F90DF91CF911F91FD
:101FC0000F910895F80100851185E5CF0E94C21890
:101FD00090E008950F931F93CF93DF931F92CDB797
:101FE000DEB78C01FC018485958597FF0EC0CE017C
:101FF00001960E94D318019719F4298130E002C09C
:102000002FEF3FEFF80135872487F8018485958508
:102010000F90DF91CF911F910F910895CF93DF9390
:102020001F92CDB7DEB7FC018485958597FD05C06D
:102030002FEF3FEF358724870BC0CE0101960E941A
:10204000D318019719F4898190E002C08FEF9FEFB8
:102050000F90DF91CF910895CF93DF9300D000D000
:10206000CDB7DEB7611571058105910579F09B014A
:10207000AC0169833A834B835C830E94A02E298143
:102080003A814B815C810E94C42E03C060E070E005
:10209000CB010F900F900F900F90DF91CF9108958B
:1020A0001F920F920FB60F9211248F939F938091DE
:1020B000E1009091E100937F9093E10083FF0FC0D6
:1020C0001092E90091E09093EB001092EC0092E303
:1020D0009093ED001092D30398E09093F00082FF6C
:1020E00020C093E09093E9009091F200992319F0B9
:1020F0009AE39093E8009091D103992339F090915D
:10210000D10391509093D103992389F19091D203F7
:10211000992339F09091D20391509093D20399234F
:1021200041F184FF10C08091E2008E7E8160809337
:10213000E2008091E1008F7E8093E10080914B016D
:102140008E7E806111C080FF16C08091E2008E7E7D
:1021500080618093E2008091E1008E7E8093E100B7
:1021600080914B018E7E816080934B0104C05D9A0B
:10217000CDCF289AD6CF9F918F910F900FBE0F9001
:102180001F9018951F920F920FB60F921124CF92A5
:10219000DF92EF92FF920F931F932F933F934F93F2
:1021A0005F936F937F938F939F93AF93BF93EF93BF
:1021B000FF93CF93DF93CDB7DEB76C97DEBFCDBF74
:1021C0001092E9008091E80083FFEDC168E0CE0144
:1021D00045960E94740E82EF8093E8008D8987FFF8
:1021E00005C09091E80090FFFCCF03C09EEF909354
:1021F000E800982F907609F0C6C09E892F89188D27
:1022000091110CC0803829F480914C018093F10029
:1022100002C01092F1001092F10048C1422F50E02C
:10222000512B913051F4811141C14130510509F0D8
:102230003DC180914C018D7F0BC0933061F48111C1
:1022400035C14130510509F031C180914C018260A6
:1022500080934C012BC1953041F48091E80080FFC0
:10226000FCCF20682093E30021C1963009F05FC0C5
:10227000EB8CFC8C1092E9001092D0031092CF03EB
:10228000123091F51092CE031092CD030E94B40F3C
:1022900099E0BE016F5F7F4FDB01E92F1D92EA9548
:1022A000E9F799831A8391E09E8390EA98879AEFE1
:1022B00099872091CF033091D003275F3F4F3C8314
:1022C0002B838D831092E9001092D0031092CF03DC
:1022D000F092CE03E092CD0349E050E080E00E940E
:1022E0004D0E0E94B40FE2C0F092CE03E092CD03F7
:1022F0000E94FD18DC011296ED90FC901397E114FA
:10230000F10409F4C0C0D701ED91FC910480F5817E
:10231000E02DBE016B5E7F4FC7010995009719F054
:102320000CF0C4C0C7C0F701E084F184E8CF973057
:1023300009F4C0C0983021F481E08093F100B6C068
:10234000993009F0B3C0837009F0B4C0E1E1F1E065
:1023500081E021E036E39081992361F08093E900E8
:102360002093EB0091919093EC003093ED008F5F00
:10237000873089F78EE78093EA001092EA008F8910
:102380008093D30393C08B8D9C8D1092E9001092A3
:10239000D0031092CF039093CE038093CD03898D09
:1023A000811156C08E899D89913A59F4813209F084
:1023B00081C047E050E064E071E080E00E944D0E93
:1023C00075C0913209F076C0833289F4888D90E02F
:1023D000982F88272F89822BA0E0B0E080930001FE
:1023E00090930101A0930201B09303015FC080327A
:1023F00069F48091E80082FFFCCF67E084E091E01F
:102400000E94740E8BEF8093E80006C0823209F0C0
:102410004DC08F8980930B0180914A01882319F068
:10242000EEEFFAE002C0E0E0F8E080910401909164
:102430000501A0910601B0910701803B9440A105E0
:10244000B10509F07BC080910B0180FF93C076C07D
:102450000E94FD18DC0112960D911C911397011535
:10246000110541F1D801ED91FC910190F081E02D31
:10247000BE016B5E7F4FC8010995811117C0F8013D
:1024800000851185ECCF113009F44EC0133091F462
:102490008F89882309F445C0823081F440E860E1E7
:1024A00087EA98E00E94D02D882321F08EEF809358
:1024B000E80079C081E28093EB0075C0813029F497
:1024C00040E86BE08BE998E0EDCF833099F70E940C
:1024D000FD18DC011296ED90FC9013978E010F5FB2
:1024E0001F4F6801E114F10479F0D701ED91FC91DF
:1024F0000680F781E02DB801C7010995080F111D6D
:10250000F701E084F184EECFD8011C92F60101902E
:102510000020E9F73197BF016C197D0940E0C60141
:10252000C1CF65E878E002C069E878E0611571051F
:1025300009F2FB01449150E080E840CF0FB6F894D7
:10254000A89580916000886180936000109260007F
:102550000FBEA895EE3F2AE0F20739F08091FE0AFF
:102560009091FF0A91838083A1CF1092FF0A10926D
:10257000FE0A9CCFEE3F8AE0F80731F0808191811E
:102580009093FF0A8093FE0A87E797E79183808301
:102590009BE088E10FB6F894A895809360000FBE89
:1025A0009093600083CF6C960FB6F894DEBF0FBE99
:1025B000CDBFDF91CF91FF91EF91BF91AF919F91EF
:1025C0008F917F916F915F914F913F912F911F91CB
:1025D0000F91FF90EF90DF90CF900F900FBE0F9074
:1025E0001F9018953FB7F8948091C9039091CA0342
:1025F000A091CB03B091CC0326B5A89B05C02F3F7B
:1026000019F00196A11DB11D3FBFBA2FA92F982F18
:102610008827820F911DA11DB11DBC01CD0142E093
:10262000660F771F881F991F4A95D1F708958F92DB
:102630009F92AF92BF92CF92DF92EF92FF926B0187
:102640007C010E94F2124B015C01C114D104E1042F
:10265000F104F1F00E94F212DC01CB018819990912
:10266000AA09BB09883E9340A105B10570F321E09A
:10267000C21AD108E108F10888EE880E83E0981E9E
:10268000A11CB11CC114D104E104F10419F7DDCF80
:10269000FF90EF90DF90CF90BF90AF909F908F9082
:1026A00008958F929F92AF92BF92CF92DF92EF9256
:1026B000FF920F931F93CF93DF935C016B017A011D
:1026C00080910B01882309F45BC08091D303882398
:1026D00009F456C080914B0180FF05C08091E00055
:1026E00082608093E000E70110E00AEF83E0882E2B
:1026F0009AE3992E2097D9F10E94C21881110AC03D
:10270000015009F43DC061E070E080E090E00E947B
:102710001713F0CF282F30E0C217D3070CF48C2FFB
:102720004FB7F8948092E9009091E80095FF1DC0A2
:10273000282F30E0C21BD30BF601982F915020F0C8
:1027400081918093F100FACFC20ED31E112319F0AC
:102750009092E80009C08091E80085FD06C0909243
:10276000E80011E0209709F010E04FBFC3CF11112E
:10277000C3CF5D9884E68093D1031E141F0444F0F8
:1027800081E090E0F5019383828380E090E001C0D6
:10279000C701DF91CF911F910F91FF90EF90DF90D4
:1027A000CF90BF90AF909F908F9008951F920F92FF
:1027B0000FB60F9211242F933F938F939F93AF9354
:1027C000BF938091D4039091D503A091D603B0918B
:1027D000D7033091C80323E0230F2D3720F401964F
:1027E000A11DB11D05C026E8230F0296A11DB11D34
:1027F0002093C8038093D4039093D503A093D6036A
:10280000B093D7038091C9039091CA03A091CB03E1
:10281000B091CC030196A11DB11D8093C903909383
:10282000CA03A093CB03B093CC03BF91AF919F9108
:102830008F913F912F910F900FBE0F901F90189581
:102840001F920F920FB60F9211242F933F934F9325
:102850005F936F937F938F939F93AF93BF93EF9308
:10286000FF938091C4039091C503A091C603B091DA
:10287000C703892B8A2B8B2B81F18091C303811194
:102880000BC098B180E4892788B98091C20388235E
:1028900019F088B1805888B98091C4039091C5031C
:1028A000A091C603B091C703181619061A061B0695
:1028B000B4F48091C4039091C503A091C603B09174
:1028C000C7030197A109B1098093C4039093C5037D
:1028D000A093C603B093C70302C00E94010FFF91EB
:1028E000EF91BF91AF919F918F917F916F915F9188
:1028F0004F913F912F910F900FBE0F901F90189501
:102900009C01E1E7F0E090819D7F90831092C103EC
:10291000E8E2F8E0F093C003E093BF03F093BD0357
:10292000E093BC03318320837383628380E090E86B
:10293000958384830C94010F2D9A0895BC0180E047
:1029400090E00C9417138FB12CB193B130E0209527
:10295000309520743327A90123E0559547952A9592
:10296000E1F7292F30E020953095207133273595F8
:10297000279535952795242B8095807F822B089568
:1029800083B7817F83BF83B7816083BF889583B717
:102990008E7F83BF08958EBD00000DB407FEFDCF6E
:1029A0000895109245033E983F9808959C01240F86
:1029B000311D1216130674F5803891055CF5FC0183
:1029C00097FF02C0E0E0F0E02138310514F020E884
:1029D00030E02E1BAB014770552781E001C0880F06
:1029E0004A95EAF777FF02C0695F7F4F93E07595DC
:1029F00067959A95E1F77695762F6627779567958F
:102A0000E60FF71FE852FC4F215020F09081982BE1
:102A10009193FACF08955F926F927F928F929F92D7
:102A2000AF92BF92CF92DF92EF92FF920F931F93DC
:102A3000CF93DF93EC018B017A01A901461B570B61
:102A400057FF03C0519541955109C7018C1B9D0B40
:102A500097FF03C09195819591095524539484174C
:102A6000950714F0512C0AC09E2D8F2D7901292F26
:102A7000382F9C2F8D2FE801092F182FEC16FD06FB
:102A800054F4902F812F8901292F382F9C2F8D2FBF
:102A9000E701E92EF82E37016C1A7D0A5901A01AB8
:102AA000B10AB7FE03C0B194A194B108630177FEE7
:102AB00003C08FEFC81AD80AD594C794021713071A
:102AC00014F08FEF01C081E0882E880F9908EC1672
:102AD000FD06B4F021E0552019F0AE01B80102C0A6
:102AE000A801BE018CE398E00E94B904CA18DB0873
:102AF000D7FE04C0080D191DC60CD71C2196E7CFC0
:102B0000DF91CF911F910F91FF90EF90DF90CF90C9
:102B1000BF90AF909F908F907F906F905F9008953F
:102B20002F923F925F926F927F928F929F92AF927D
:102B3000BF92CF92DF92EF92FF920F931F93CF93AA
:102B4000DF9300D000D000D0CDB7DEB78C017B0181
:102B5000522E242F30E03E832D8381E090E05C01F3
:102B6000A21AB30AC901919581959109FC01EE0F52
:102B7000FF1FFA83E983A901460F571F252DB801CE
:102B80008CE398E00E94B904A7012D813E81421B8D
:102B9000530B252DB8018CE398E00E94B9046D8198
:102BA0007E81600F711F252DA7018CE398E00E94A4
:102BB000B904B8018D819E81681B790B252DA70171
:102BC0008CE398E00E94B904C12CD12CE1E0F0E044
:102BD000FC83EB832D813E81C216D3060CF070C0BE
:102BE000B7FC0DC02D813E81215031093E832D83DC
:102BF00089819A8102969A838983A80EB91E9FEFD4
:102C0000C91AD90AEB81FC813296FC83EB83AE0EA4
:102C1000BF1E3601600E711E252D8D809E808E0C8C
:102C20009F1CA401B3018CE398E00E94B904180131
:102C30002C183D08252DA401B1018CE398E00E94D9
:102C4000B904252D47018D819E81881A990AA40116
:102C5000B3018CE398E00E94B904252DA401B101D1
:102C60008CE398E00E94B90446018E0C9F1C252D30
:102C7000A4016D807E80600E711EB3018CE398E02C
:102C80000E94B904252DA4011801ED81FE812E1AA0
:102C90003F0AB1018CE398E00E94B90447018C1807
:102CA0009D08252DA401B3018CE398E00E94B9048E
:102CB000252DA401B1018CE398E00E94B9048ACFCC
:102CC00026960FB6F894DEBF0FBECDBFDF91CF9131
:102CD0001F910F91FF90EF90DF90CF90BF90AF903A
:102CE0009F908F907F906F905F903F902F9008956E
:102CF0002F923F924F925F926F927F928F929F920C
:102D0000AF92BF92CF92DF92EF92FF920F931F93F9
:102D1000CF93DF93CDB7DEB728970FB6F894DEBF19
:102D20000FBECDBF5A01822E912C9C01280D391D5A
:102D300037FDC4C0803891050CF0C0C09B01200F46
:102D4000311D37FDBBC0603471050CF0B7C0AB015D
:102D500077FF04C044275527461B570B477055275C
:102D60009B0177FF02C0295F3F4FE3E03595279530
:102D7000EA95E1F777FF08C02150310968E070E07B
:102D8000DB01A41BB50BAD01602F669566956695BA
:102D900070E0077011F06F5F7F4FDB01A20FB31F70
:102DA000BA83A98339017694762C66247794679444
:102DB000680E791EE12CF12C00E010E02301B0E850
:102DC0004B0E511C68E070E0DB01A41BB50BBC830B
:102DD000AB8369817A812617370709F46FC02830E1
:102DE000310509F46BC02F3FBFEF3B070CF45BC00C
:102DF000B201600F711FDB01A852BC4FBE83AD83CF
:102E0000D801A60DB71DA852BC4F6C0160E070E060
:102E1000681579050CF047C0E0E8CE16D10409F436
:102E200042C0D7FC34C02F3FFFEF3F0709F442C038
:102E3000FB01EE0DFF1DEA0DFB1DE491042E01C008
:102E4000EE0F0A94EAF73C90E329EC934115510503
:102E5000F1F027303105D9F0FB01EE0DFF1DEA0D31
:102E6000FB1DE4912E2E312CF1010B8002C0F59553
:102E7000E7950A94E2F7F887EF83ED81FE813080D1
:102E8000EF81F885E3291F01ED81FE8120826F5FCC
:102E90007F4FED81FE813196FE83ED83FFEFCF1AE8
:102EA000DF0A1196B5CF2F5F3F4F00581F4FE80C38
:102EB000F91C8FCF4115510579F6E9CF28960FB649
:102EC000F894DEBF0FBECDBFDF91CF911F910F9160
:102ED000FF90EF90DF90CF90BF90AF909F908F903A
:102EE0007F906F905F904F903F902F90089520912A
:102EF0004208282329F490914108982381E009F49D
:102F000080E00895E0913808F09139080190F0814F
:102F1000E02D682F88E398E009948F929F92AF92FA
:102F2000BF920F931F93CF93DF93CDB7DEB7A197D7
:102F30000FB6F894DEBF0FBECDBF19A2423008F421
:102F40004AE08E010F5D1F4F842E912CA12CB12CD5
:102F5000A50194010E94F62EE62FB901CA01015085
:102F60001109EA3014F4E05D01C0E95CD801EC938A
:102F7000232B242B252B61F70115110571F0F80186
:102F800001900020E9F73197AF01401B510BB801C8
:102F900088E398E00E94810E02C080E090E0A19654
:102FA0000FB6F894DEBF0FBECDBFDF91CF911F915A
:102FB0000F91BF90AF909F908F9008950F931F93A4
:102FC000CF93DF938C01C0E0D0E0F801EC0FFD1F40
:102FD0006491662371F0E0913808F091390801900E
:102FE000F081E02D88E398E00995892B11F0219676
:102FF000ECCFCE01DF91CF911F910F91089580E02A
:10300000E8EDF3E081118FEF0024819381938193A8
:1030100081930394D1F708950E94FF17E8E3F8E045
:10302000118E108E178A168A08950F931F93CF93CF
:10303000DF931F92CDB7DEB78FB7F8944091D403DA
:103040005091D5036091D6037091D7038FBF009143
:1030500048081091490820914A0830914B08809106
:103060004C08882349F080914408481B40934D0840
:1030700010924C0880E030C0401751076207730778
:1030800040F4041B023040F189830E94C0148981FE
:1030900023C081E080934C08409344085093450836
:1030A000609346087093470880914308480F511D6C
:1030B000611D711D409348085093490860934A0868
:1030C00070934B0880913F0890914008019690932F
:1030D000400880933F0881E00F90DF91CF911F91CE
:1030E0000F910895809164008E7F809364008EE537
:1030F00080937C0062E070E080E090E00E94171313
:1031000080917A00806480937A0080917A0086FDB5
:10311000FCCF20917800309179009091640091600B
:1031200090936400C9010895CF92DF92EF92FF92CD
:10313000CF93DF936C01990FEE08FF08F7FE17C0DD
:103140008DE20E948217EC0166277727CB016C196C
:103150007D098E099F094AE00E948D178C0F9D1FE3
:10316000DF91CF91FF90EF90DF90CF9008954AE0EC
:10317000C701B601DF91CF91FF90EF90DF90CF9024
:103180000C948D172FB7F89483E08093E900909109
:10319000E800892F807295FF04C09091F20080E4CE
:1031A000891B2FBF0895FC018091D303811103C0B7
:1031B0008FEF9FEF08959FB7F89482E08093E90026
:1031C0002091F20030E01216130614F421E030E0F2
:1031D0002115310559F0289884E68093D203809117
:1031E000F10080838091F200882319F09FBFC9010C
:1031F00008958BE68093E800F9CF80915A088111F9
:103200000DC082E08093560884E0809357081092A6
:1032100059081092580881E080935A0886E598E092
:103220000895CF93DF93CDB7DEB762970FB6F894CA
:10323000DEBF0FBECDBF789484B5826084BD84B5F7
:10324000816084BD85B5826085BD85B5816085BDA1
:1032500080916E00816080936E0010928100809159
:1032600081008260809381008091810081608093E1
:103270008100809180008160809380008091910026
:103280008260809391008091910081608093910091
:10329000809190008160809390008091C100846053
:1032A0008093C1008091C10082608093C1008091B1
:1032B000C10081608093C1008091C30081608093D0
:1032C000C3008091C00082608093C0008091C200E2
:1032D00081608093C20080917A00846080937A003C
:1032E00080917A00826080937A0080917A00816078
:1032F00080937A0080917A00806880937A0010929F
:10330000D30310924C0110924B018091D700816041
:103310008093D70080EA8093D80089B5806189BD09
:1033200089B5826089BD09B400FEFDCF61E070E01F
:1033300080E090E00E9417138091D8008F7C80611C
:103340008093D8008091E000807F8093E00080919E
:10335000E1008E7E8093E1008DE08093E200559A3B
:10336000209AEEEFFFE7859194918B3F9C4D19F4E5
:1033700081E080934A0181EC80937C0085B1806F6D
:1033800085B9249884B1866E84B95E9A5F988AB1B3
:10339000806D8AB9769A6E9881B3806F81BB899867
:1033A00080B38D7080BB80E58CBD81E08DBD85E0F4
:1033B00090E00E949E145F9A85E090E00E949E1427
:1033C0005E985C980CE511E0ADE0FA2EF00EF80185
:1033D00084910E94CB140F5F1F4FF012F8CF5C9ABC
:1033E00081E88093640081E08093650000E014E050
:1033F00080E00E94CB1401501109D1F70E94A31460
:1034000087FF10C05C9885EA0E94CB145C9A2E98C6
:103410002F982D98809164008062809364000E94B0
:10342000C014FDCF02E010E00E94A31482FF42C04E
:103430002D980E94A31484788438C9F00E94A314A4
:103440008471843191F50E949C1488EC90E00E9474
:103450009E142E981A83098360E0CE0101960E9483
:10346000FF0D84EF91E00E949E142E9A19C00E94D5
:103470009C1488EC90E00E949E142F981A83098374
:103480006FEFCE0101960E94FF0D84EF91E00E9444
:103490009E142F9A0E94A31484788438D9F3CECF37
:1034A0000E94A31484718431D9F388EC90E00E94C7
:1034B0009E14BACF0E949C1482E090E00E94AE2E2F
:1034C000882319F00E948C0402C00E94D1142E9807
:1034D000FEEEEF2EFF24FA940E94A31486FF04C090
:1034E0002E9A2F9A2D9A41C0FCEFEF16FFEFFF06A0
:1034F00019F42E9A2F9806C028E1E216F10411F46F
:103500002F9A2D980E94FF1700E128E54CEA50E021
:10351000B70184E190E00E9478168CE398E00E9465
:10352000AA048BE190E00E949E1430EFE3163FEF77
:10353000F30621F48AEF90E00E949E144FEFE41A04
:10354000F40A59E1E516F10439F68CEB92E00E9499
:103550009E140E949C14E0913C08F0913D0801905B
:10356000F081E02D8CE398E0099582E390E00E94E1
:103570009E140E94A3148111F8CF809164008E7F65
:103580008093640080917A00806480937A008091B7
:103590007A0086FDFCCF00917800109179000E949E
:1035A000F21220E030E0980111270027600F711F10
:1035B000821F931F611571058105910511F00E940D
:1035C000A52E8091640081608093640081E28093E5
:1035D00043080E940C180E94E1058091450388234E
:1035E00019F00E948C0402C00E94D1148FEF9FEF4B
:1035F0009093E5078093E40710916303113011F471
:1036000081E205C0111102C082E301C082E480930F
:1036100043080E941518882311F40C948B2C0E94E7
:103620000C18123011F40C949E2738F4112391F0E9
:10363000113009F4E4C00C94ED2A143011F40C9408
:10364000072A10F40C945A29153011F40C94752A99
:103650000C94ED2A8AE090E090934F0880934E08F6
:10366000909351088093500882E08093540881E33E
:1036700093E00E94DE1720915A0330915B03809102
:103680005E0390915F03820F931F90935B0380937F
:103690005A0340915C0350915D0320916003309187
:1036A0006103240F351F30935D0320935C03893C35
:1036B00062E3960734F0885E954390935B038093B2
:1036C0005A0380915A0390915B038C307EEF9707E9
:1036D00034F488519A4C90935B0380935A03253FAE
:1036E0008AE1380734F0285E3C4130935D03209333
:1036F0005C0380915C0390915D038C30AEEF9A0780
:1037000034F48851934E90935D0380935C038091D1
:103710003F08909140086EE170E00E94272F892BAE
:10372000F1F464E670E080E090E00E942C10DC018F
:10373000CB01C297A109B10990935F0380935E0307
:1037400064E670E080E090E00E942C10DC01CB0188
:10375000C297A109B109909361038093600380919E
:103760005C0390915D0324E630E0B9010E943B2F99
:10377000FB01349780915A0390915B03B9010E9439
:103780003B2FCB0108E028E049E253E0BF0104975A
:103790000E94781684E00E9477178823A1F083E0C6
:1037A0008093590380E099E19093510380935003F3
:1037B00080E89CE090935303809352030E94CA05D3
:1037C00081E08093630380E80E947717811105C030
:1037D00080E10E947717882341F080914503882378
:1037E00011F40C94952C0E94D11488E00E94771754
:1037F000882311F40C94ED2A83E00C949127809196
:103800005903181614F00C94942780914E0390914C
:103810004F0389389F4F34F4B12C19E054E6E52E5C
:10382000F12C4AC480913F0880FD48C00E94A31437
:1038300085FF05C0809158038150809358030E94F2
:10384000A31486FF05C0809158038F5F80935803AF
:103850008091580388311CF08851809358038091DF
:10386000580387FF03C0885E809358030E94A31407
:1038700087FF24C080915803880F990BFC01EC54FA
:10388000FD4FE49120915403309155032E0F311DCB
:10389000E7FD3A953093550320935403FC01EB5414
:1038A000FD4FE49180915603909157038E0F911D27
:1038B000E7FD9A95909357038093560380E10E9409
:1038C00077178823B1F16CE271E080E090E00E940C
:1038D000171363E070E080E090E00E942C106230EB
:1038E00071058105910549F468EC70E080E090E095
:1038F0000E9417130E94F4051CC0109257031092E7
:103900005603109255031092540360E072E380E076
:1039100090E00E942C10709351036093500360E07C
:1039200079E180E090E00E942C1070935303609343
:1039300052038091560390915703181619062CF4E0
:10394000019790935703809356038091560390916B
:10395000570397FF05C00196909357038093560332
:103960002091560330915703121613064CF48091A0
:1039700054039091550301979093550380935403FA
:10398000809154039091550397FF05C00196909341
:103990005503809354032D32314034F08CE291E092
:1039A0009093570380935603809156039091570349
:1039B000843D9E4F34F484ED9EEF909357038093A3
:1039C000560380915403909155038D32914034F009
:1039D0008CE291E0909355038093540380915403BB
:1039E00090915503843D9E4F34F484ED9EEF909367
:1039F00055038093540320915003309151038091DB
:103A0000540390915503820F931F90935103809319
:103A1000500340915203509153032091560330912B
:103A20005703240F351F30935303209352038C30D8
:103A30004EEF940734F488519A4C9093510380933D
:103A400050038091500390915103853F53E39507B4
:103A500034F0885E954390935103809350032C304B
:103A60006EEF360734F42851334E309353032093CE
:103A700052038091520390915303853F7AE1970757
:103A800034F0885E9C41909353038093520340919D
:103A90004E0350914F032091580300915003109111
:103AA00051038091520390915303141615060CF0A4
:103AB00056C044E6A42EB12CB5010E943B2F7B01D9
:103AC000022E000C330BF901E456FD4FE4916B011B
:103AD000CE0ED11CE7FDDA94C801B5010E943B2F40
:103AE000F901EC57FD4FE4913B016E0E711CE7FDAF
:103AF0007A94F901E459FD4FE49147018E0E911C2F
:103B0000E7FD9A94F901EC5AFD4FE4915B01AE0E8A
:103B1000B11CE7FDBA94F901E45CFD4FE491EE0EAF
:103B2000F11CE7FDFA94F901EC5DFD4FE4918B0186
:103B30000E0F111DE7FD1A959401A501B701C801EB
:103B40000E940B159601A301B401C5010E940B153B
:103B50009701A801B601C3010E940B1537C134E6D5
:103B6000E32EF12CB7010E943B2F5B01022E000CCB
:103B7000330BF901E456FD4FE4916B01CE0ED11CDD
:103B8000E7FDDA94C801B7010E943B2FF901EC5719
:103B9000FD4FE4917B01EE0EF11CE7FDFA94F90173
:103BA000E459FD4FE49145018E0E911CE7FD9A9476
:103BB000F901EC5AFD4FE4918B010E0F111DE7FD49
:103BC0001A95F901E45CFD4FE491AE0EB11CE7FDDE
:103BD000BA94F901EC5DFD4F2491CB01820F911D48
:103BE00027FD9A958A149B0474F4CA14DB04D4F05C
:103BF0003C2D2D2D6501A32EB22E3E2D2F2D7C01A7
:103C0000832F922F0FC0C814D90414F00C94832D65
:103C10003A2D2B2D5401832E922E382F292FC80197
:103C2000032F122FC814D90454F4382D292D46011E
:103C3000C32ED22E302F212F8701E32EF22E8A148D
:103C40009B0409F5E016F10654F0302F212F0E15D4
:103C50001F0514F43E2D2F2D7801032F122F8E15E2
:103C60009F052CF0081719070CF48C01C70141E0DF
:103C7000400F481BA0E48A16910408F0A7C0B401C5
:103C80000E94D614A3C09701201B310B3C872B87C1
:103C90009601281939093E872D879C01201B310B7D
:103CA0003E832D8395012819390938872F839C017C
:103CB0002E193F093A87298795012C193D09388B20
:103CC0002F879601CA14DB0411F021503109340109
:103CD000412C512C212C312C2615370584F1C101A2
:103CE0006D857E850E943B2FF801E60FF71FC2010C
:103CF0006F8178850E943B2F600F711F4B855C851B
:103D0000240E351E8D819E81480E591E6E177F0729
:103D10001CF49E2FFB01692F90E46916710458F47E
:103D20006F5F462F4E1BB301CF01298B3A8B0E9448
:103D3000D6143A892989AFEF6A1A7A0ACDCFC3011E
:103D40008C199D0929853A85289F6001299FD00CEF
:103D5000389FD00C1124C301881999092D813E8107
:103D6000289F4001299F900C389F900C1124A61485
:103D7000B70464F1C6016F8578890E943B2F9701D3
:103D8000260F371FC4016F8178850E943B2F600F7B
:103D9000711F49855A85C40ED51E8D819E81880E5E
:103DA000991E621773071CF4922F9B01692F90E4F0
:103DB0006916710438F46F5F462F421BB301C901C5
:103DC0000E94D614AFEF6A1A7A0AD1CF84E00E941B
:103DD0007717882331F040914D03483014F40C9448
:103DE000992C00E019E084E6E82EF12C802F90E079
:103DF000B0904D036B2D0B2C000C770B861797079B
:103E00000CF00ACD189FF001199FF00D1124E35911
:103E1000FC4F4081518124813581420F531F5183D2
:103E20004083A281B381268137812A0F3B1F3383D0
:103E300022834C30BEEF5B0724F448515A4C518327
:103E40004083189FF001199FF00D1124E359FC4F96
:103E500040815181453FA3E35A0724F0485E554312
:103E6000518340832C30BEEF3B075CF4189FF00178
:103E7000199FF00D1124E359FC4F2851334E338321
:103E80002283189FF001199FF00D1124E359FC4F74
:103E900022813381253F4AE1340724F0285E3C41EA
:103EA00033832283189FF001199FF00D1124E359E9
:103EB000FC4F208527FF4CC01086A02E4B0151E0FF
:103EC000851A91084A2D50E04815590574F59A0154
:103ED0002F5F3F4F129FF001139FF00D1124E35904
:103EE000FC4FC080D180149F9001159F300D11248C
:103EF000D901A359BC4F1196DC92CE9244815581D1
:103F000015965C934E9314974281538113965C935C
:103F10004E9312974681578117965C934E9316974E
:103F2000408518964C93A394CDCF169FF001179F10
:103F3000F00D1124E359FC4F118210821582148276
:103F400013821282178216821086BA94B0924D03A1
:103F5000189F9001199F300D1124B90163597C4FAE
:103F60006B01DB0112968D919C911397B7010E9412
:103F70003B2FFB01D6018D919C91B7010E943B2FF5
:103F800021E0AF018CE398E00E94B904F60180853E
:103F9000845080870F5F2ACF1C9DF0011D9DF00D7E
:103FA0001124E350FD4F2081318184819581280FB8
:103FB000391F318320834281538186819781840F09
:103FC000951F938382832C304EEF340724F42851BD
:103FD0003A4C318320831C9DF0011D9DF00D11246E
:103FE000E350FD4F20813181253F53E3350724F015
:103FF000285E3543318320838C306EEF96075CF466
:104000001C9DF0011D9DF00D1124E350FD4F8851C2
:10401000934E938382831C9DF0011D9DF00D11240E
:10402000E350FD4F82819381853F7AE1970724F029
:10403000885E9C419383828300E01C9DC0011D9D8E
:10404000900D1124DC01A350BD4F2D014D01B2E0B4
:104050008B0E911CA02FB0E060914D03462F062ED1
:10406000000C550BA417B5079CF11C9DF0011D9D7C
:10407000F00D1124E350FD4F8085813009F497C184
:104080000CF07DC18111BBC182819381B7010E9477
:104090003B2F6B0128E0C21AD10880819181B701C2
:1040A0000E943B2FCB0100E120E144E052E0B60149
:1040B00008970E947816B394CB2CD12C8091490399
:1040C000082E000C990BC816D9060CF465CFB4C1A4
:1040D0001A9FF0011B9FF00D11249F0123593C4FA3
:1040E0003901F90180819181F20120813181821BA6
:1040F000930B9C012C503E4F293E334068F4F30152
:1041000022813381F40160807180261937092C5097
:104110003E4F293E3340F8F097FF03C091958195BB
:1041200091091A9F90011B9F300D1124F901E35949
:10413000FC4F22813381D401ED91FC912E1B3F0B6A
:1041400037FF03C0319521953109820F931F8C3BB6
:1041500092400CF012C1702F9A0121503109872F23
:1041600090E082179307B4F4189FD001199FB00D07
:104170001124A359BC4F0196189FF001199FF00D0F
:104180001124E359FC4F812F01900D928A95E1F79C
:104190007F5FE5CF149FF001159FF00D1124E359C7
:1041A000FC4F1182108220914D032103D001112474
:1041B000A359BC4F15961C921E921497138212821B
:1041C000178216821086615060934D036BE470E095
:1041D00086E990E00E94801480914B0390914C03FB
:1041E000029690934C0380934B0320914803210344
:1041F000C0011124FC01E359FD4F3F01D4018D9111
:104200009C919183808364E670E080E090E00E945E
:104210002C10DC01CB01C297A109B109F3019583F0
:10422000848360904803062C000C770864E670E0F5
:1042300080E090E00E942C10169DF001179DF00D7B
:104240001124E359FD4FDC01CB01C297A109B1094B
:104250009783868360904803062C000C770864E0FF
:1042600070E080E090E00E942C10169DC001179D28
:10427000900D1124FC01E359FD4F608780914803A4
:1042800021E0280F209348032103C00111249C0141
:1042900023593D4F3901D2018D919C91F9019183B0
:1042A0008083D4018D919C919383828364E670E036
:1042B00080E090E00E942C10DC01CB01C297A109A4
:1042C000B109F3019583848360904803062C000CA8
:1042D000770864E670E080E090E00E942C10169D64
:1042E000F001179DF00D1124E359FD4FDC01CB01C6
:1042F000C297A109B1099783868360904803062C71
:10430000000C770864E070E080E090E00E942C10E0
:10431000169DC001179D900D1124FC01E359FD4F1E
:104320006087809148038F5F809348034B2D842FD3
:1043300090E050914903252F052E000C330B21509E
:10434000310982179307B4F4189FD001199FB00D5B
:104350001124A350BD4F0196189FF001199FF00D35
:104360001124E350FD4F812F01900D928A95E1F7C2
:104370004F5FDDCF5150509349030F5F6BCE8230BA
:1043800051F18330E1F582819381B7010E943B2F87
:104390006B0158E0C51AD10880819181B7010E9454
:1043A0003B2FCB0100E120E144EA51E080CE828145
:1043B0009381B7010E943B2F6B0138E0C31AD108EB
:1043C00080819181B7010E943B2FCB0100E120E168
:1043D00044EE51E06CCE82819381B7010E943B2F65
:1043E0006B0148E0C41AD10880819181B7010E9415
:1043F0003B2FCB0100E120E144EC51E058CE1C9D65
:1044000090011D9D300D112423503D4FD90112966E
:104410008D919C911397B7010E943B2FFB01D9010D
:104420008D919C91B7010E943B2FCB0125E045E087
:10443000BF010E9490153FCEB12C19E004E6E02E9A
:10444000F12CCB2CD12C80914803082E000C990B19
:10445000C816D9060CF04DC21C9DF0011D9DF00D33
:104460001124E359FD4F2081318184819581280FEA
:10447000391F318320834281538186819781840F44
:10448000951F938382832C30BEEF3B0724F4285181
:104490003A4C318320831C9DF0011D9DF00D1124A9
:1044A000E359FD4F20813181253F43E3340724F058
:1044B000285E3543318320838C305EEF95075CF4B2
:1044C0001C9DF0011D9DF00D1124E359FD4F8851F5
:1044D000934E938382831C9DF0011D9DF00D11244A
:1044E000E359FD4F82819381853F6AE1960724F06D
:1044F000885E9C419383828300E01C9DC0011D9DCA
:10450000900D1124DC01A359BD4F4D012D01B2E0E6
:104510004B0E511CA02FB0E060914D03462F062E8C
:10452000000C550BA417B5070CF05FC11A9FF001E2
:104530001B9FF00D11249F0123593C4F3901F901B4
:1045400080819181F40120813181821B930B9C0138
:1045500020573E4F2132334068F4F30122813381EA
:10456000F201608071802619370920573E4F2132B1
:104570003340F8F097FF03C09195819591091A9FF8
:1045800090011B9F300D1124F901E359FC4F22814A
:104590003381D201ED91FC912E1B3F0B37FF03C0FD
:1045A000319521953109820F931F883592400CF087
:1045B0001AC1702F9A0121503109872F90E082177C
:1045C0009307B4F4189FD001199FB00D1124A3597B
:1045D000BC4F0196189FF001199FF00D1124E3596B
:1045E000FC4F812F01900D928A95E1F77F5FE5CF17
:1045F000149FF001159FF00D1124E359FC4F118217
:10460000108220914D032103D0011124A359BC4FE6
:1046100015961C921E92149713821282178216828C
:104620001086615060934D036BE470E086E990E082
:104630000E94801480914B0390914C0304969093B8
:104640004C0380934B03209147032103C0011124A5
:10465000FC01E35BFE4F3F01D4018D919C9191835E
:104660008083F20180819181D30113969C938E9374
:10467000129764E670E080E090E00E942C10DC016C
:10468000CB01C297A109B109F3019583848360909E
:104690004703062C000C770864E670E080E090E0A9
:1046A0000E942C10169DF001179DF00D1124E35B64
:1046B000FE4FDC01CB01C297A109B1099783868324
:1046C00060904703062C000C770864E070E080E0FF
:1046D00090E00E942C10169DC001179D900D112492
:1046E000FC01E35BFE4F60878091470321E0280FC8
:1046F000209347032103C00111249C01235B3E4FFB
:104700003901D4018D919C91F90191838083D2016B
:104710008D919C919383828364E670E080E090E0C9
:104720000E942C10DC01CB01C297A109B109F30151
:104730009583848360904703062C000C770864E619
:1047400070E080E090E00E942C10169DF001179D13
:10475000F00D1124E35BFE4FDC01CB01C297A109F0
:10476000B1099783868360904703062C000C770875
:1047700064E070E080E090E00E942C10169DC00183
:10478000179D900D1124FC01E35BFE4F6087809123
:1047900047038F5F809347034B2D842F90E0509108
:1047A0004803252F052E000C330B215031098217A9
:1047B0009307B4F4189FD001199FB00D1124A35989
:1047C000BD4F0196189FF001199FF00D1124E35978
:1047D000FD4F812F01900D928A95E1F74F5FDDCF5C
:1047E0005150509348030F5F95CE1C9DF0011D9DC5
:1047F000F00D1124E359FD4F8085813081F1B4F42F
:10480000811159C082819381B7010E943B2F6B01B6
:1048100024E0C21AD10880819181B7010E943B2F08
:10482000CB0108E028E04CE951E02CC0823079F15E
:10483000833009F040C082819381B7010E943B2FF1
:104840006B0154E0C51AD10880819181B7010E94A3
:104850003B2FCB0108E028E044E851E013C08281FF
:104860009381B7010E943B2F6B0134E0C31AD1083A
:1048700080819181B7010E943B2FCB0108E028E0A5
:1048800044E951E0B60104970E94781630C0828155
:104890009381B7010E943B2F6B0144E0C41AD108F9
:1048A00080819181B7010E943B2FCB0108E028E075
:1048B0004CE851E0E7CF1C9D90011D9D300D112467
:1048C00023593D4FD90112968D919C911397B701B1
:1048D0000E943B2FFB01D9018D919C91B7010E9451
:1048E0003B2FCB0124E044E0BF010E949015B3941C
:1048F000A8CD912C19E0B4E6EB2EF12CC92CD12CCB
:1049000080914703082E000C990BC816D9060CF0AD
:1049100068C11C9DF0011D9DF00D1124E35BFE4F4D
:104920002081318184819581280F391F3183208333
:104930004281538186819781840F951F938382835F
:104940002C30BEEF3B0724F428513A4C31832083AE
:104950001C9DF0011D9DF00D1124E35BFE4F208195
:104960003181253F43E3340724F0285E354331830A
:1049700020838C305EEF95075CF41C9DF0011D9D3B
:10498000F00D1124E35BFE4F8851934E9383828395
:104990001C9DF0011D9DF00D1124E35BFE4F8281F3
:1049A0009381853F6AE1960724F0885E9C4193835A
:1049B000828300E01C9DC0011D9D900D1124DC012F
:1049C000A35BBE4F5D013D01B2E06B0E711C802FF9
:1049D00090E020914D03422F022E000C550B8417BE
:1049E00095070CF07AC0189FF001199FF00D112463
:1049F000E359FC4F80819181D5016D917C91861B9B
:104A0000970B88539F4F8139914008F064C0828191
:104A10009381F30160817181861B970B88539F4FAF
:104A20008139914008F057C0302F41505109832FF0
:104A300090E084179507B4F4189FD001199FB00D2A
:104A40001124A359BC4F0196189FF001199FF00D36
:104A50001124E359FC4F812F01900D928A95E1F7C3
:104A60003F5FE5CF215020934D036BE470E086E972
:104A700090E00E94801480914B0390914C03089623
:104A800090934C0380934B03492D842F90E05091D9
:104A90004703252F052E000C330B215031098217B7
:104AA0009307B4F4189FD001199FB00D1124A35B94
:104AB000BE4F0196189FF001199FF00D1124E35B82
:104AC000FE4F812F01900D928A95E1F74F5FDDCF68
:104AD0005150509347030F5F7ACF1C9DF0011D9DED
:104AE000F00D1124E35BFE4F8085813081F1B4F439
:104AF000811159C082819381B7010E943B2F6B01C4
:104B000022E0C21AD10880819181B7010E943B2F17
:104B1000CB0104E024E040E851E02CC0823079F180
:104B2000833009F040C082819381B7010E943B2FFE
:104B30006B0152E0C51AD10880819181B7010E94B2
:104B40003B2FCB0104E024E044E751E013C0828115
:104B50009381B7010E943B2F6B0132E0C31AD10849
:104B600080819181B7010E943B2FCB0104E024E0BA
:104B70004CE751E0B60102970E94781630C082815E
:104B80009381B7010E943B2F6B0142E0C41AD10808
:104B900080819181B7010E943B2FCB0104E024E08A
:104BA00048E751E0E7CF1C9D90011D9D300D112479
:104BB000235B3E4FD90112968D919C911397B701BB
:104BC0000E943B2FFB01D9018D919C91B7010E945E
:104BD0003B2FCB0122E042E0BF010E94901593944D
:104BE0008DCE0E9414063091460380913F0890912B
:104BF0004008332309F435C13150309346036091A6
:104C00005A0370915B03FB01E152F34040915C0356
:104C100050915D03EF3BFB4258F4FA01E159F1403A
:104C2000EF3DF54128F4311103C021E02093460304
:104C300020915E0330915F03260F371F30935B0393
:104C400020935A036091600370916103460F571FD0
:104C500050935D0340935C03293C62E3360734F0D4
:104C6000285E354330935B0320935A0320915A0307
:104C700030915B032C307EEF370734F428513A4CE7
:104C800030935B0320935A03453FAAE15A0734F05F
:104C9000485E5C4150935D0340935C0320915C034C
:104CA00030915D032C30BEEF3B0734F42851334E76
:104CB00030935D0320935C0320916C031216FCF487
:104CC000609164037091650340916803509169039A
:104CD000460F571F5093650340936403609166032A
:104CE0007091670340916A0350916B03460F571F01
:104CF0005093670340936603245020936C036EE146
:104D000070E00E94272F892B31F564E670E080E087
:104D100090E00E942C10DC01CB01C297A109B109DF
:104D200090935F0380935E0364E670E080E090E020
:104D30000E942C10DC01CB01C297A109B10990930C
:104D400061038093600368E170E080E090E00E947E
:104D50002C106093620380913F089091400869E6AF
:104D600070E00E94272F892B79F580915A0390914A
:104D70005B03909365038093640380915C0390913F
:104D80005D03909367038093660380916203880FAD
:104D9000990BFC01EC54FD4FE49124E1E202F00197
:104DA0001124F0936903E0936803FC01EB54FD4F79
:104DB000E49134E1E302F0011124F0936B03E093FA
:104DC0006A0384E680936C0310916C0311169CF0C7
:104DD00010926C0310926B0310926A031092690395
:104DE0001092680310926703109266031092650395
:104DF000109264031AC0809166039091670324E6C1
:104E000030E0B9010E943B2FFB0180916403909137
:104E10006503B9010E943B2F21E0AF018CE398E0CC
:104E20000E94B904145010936C0380915C0390911C
:104E30005D0324E630E0B9010E943B2FFB0134976B
:104E400080915A0390915B03B9010E943B2FCB01E3
:104E500008E028E049E253E0BF0104970E94781679
:104E600019C06EE170E00E94272F892B99F4809180
:104E70004E0390914F038837910561F46AE070E02A
:104E800080E090E00E942C1068307105810591054A
:104E900009F4FCC581E08093540882E090E090938F
:104EA0004F0880934E080AE010E0109351080093D9
:104EB000500860914B0370914C0380E090E04AE011
:104EC0000E948D1780E290E090934F0880934E08E7
:104ED000109351080093500880914A03082E000C4B
:104EE000990B0E94941888E790E090934F08809364
:104EF0004E08109351080093500880915903082ED2
:104F0000000C990B0E94941880915903811102C0E2
:104F10000E94CA0588E00E947717882309F45DC3C0
:104F200084E08093630359C368EB7BE080E090E00A
:104F30000E9417130E94CA0582E0F3CFA4E6EA2E6E
:104F4000F12C00E0BE016D5F7F4FC7010E94B405E8
:104F50008B819C81019611F41C821B8220914B0352
:104F600030914C038B819C818217930708F098C184
:104F700080E28093B7038093B8038093B90310E075
:104F800030E4E32EF12C48E4C42ED12C51E2B52EAE
:104F900060E3A62E71E4972EEFE28E2EFAE57F2EC7
:104FA00013300CF017C10E9415188823C9F30E9412
:104FB0000C1860E170E070934F0860934E081092F7
:104FC00051081092500889E691E00E94DE1788E5AA
:104FD00090E090934F0880934E08109251081092E1
:104FE000500860914B0370914C0380E090E04AE0E0
:104FF0000E948D17A8E3B0E0B0934F08A0934E082D
:10500000E4E1F0E0F0935108E09350088091B70399
:105010000E948217F0924F08E0924E0824E130E09F
:1050200030935108209350088091B8030E94821752
:10503000D0924F08C0924E0844E150E0509351087E
:10504000409350088091B9030E9482172BE130E011
:105050004EE350E06BE170E088E390E00E940B15B6
:105060002BE130E046E450E06BE170E080E490E05A
:105070000E940B152BE130E04EE450E06BE170E054
:1050800088E490E00E940B15812F012E000C990BF3
:10509000079623E0880F991F2A95E1F7AC014A5F34
:1050A0005F4F2CE130E06CE170E00E940B1566E987
:1050B00070E080E090E00E94171380E20E94771772
:1050C000882349F068EC70E086E194E00E94801447
:1050D000115017FD10E080E40E947717882351F0EB
:1050E0001F5F13300CF012E068EC70E086E194E092
:1050F0000E9480140E94A31484FF27C0812F012ED8
:10510000000C990BBC0169547C4F2B01DB018C9185
:105110008F5F8C9366E970E08BE092E00E948014D0
:10512000F2018081803311F480E28083D2018C917E
:10513000813209F49C92F20180818B3509F4A082BE
:10514000D2018C91803409F4BC920E94A31487FF91
:1051500027C0812F012E000C990BFC01E954FC4F54
:105160002F0180818150808366E970E08BE092E0BE
:105170000E948014D2018C91803211F48FE38C93C1
:10518000F20180818F3209F47082D2018C918F31CB
:1051900009F48C92F2018081803411F480E28083E2
:1051A0000E94A31483FF09C012303CF01F5F68EC1B
:1051B00070E086E194E00E94801480914108809321
:1051C00042080E94A314809341088CE398E00E9457
:1051D000AA04E6CE702EF5E07F9E800111244801DE
:1051E00024E6820E911CBE016D5F7F4FC4010E94B8
:1051F000B4058B819C81019611F41C821B8258019D
:1052000046E6A40EB11CC5010E94C805482E6801DF
:1052100057E6C50ED11CC6010E94C805582E78015C
:1052200068E6E60EF11CC7010E94C805682E609171
:105230004B039A828982CE0101960E94FF0D6091F4
:105240004C030B591F4F1A830983CE0101960E940C
:10525000FF0D6091B703C5010E94B62E6091B8039F
:10526000C6010E94B62E6091B903C7010E94B62EF6
:105270008B819C8190934C0380934B034092B703A6
:105280005092B8036092B903739477E07712A3CF7A
:1052900080E28093B7038093B8038093B90307C07B
:1052A0000F5F85E0E80EF11C073009F04BCE0E943D
:1052B000E10593C180E290E090934F0880934E08FF
:1052C000109251081092500881E0809354084BE0EE
:1052D00050E06DE371E088E398E00E94810E09E000
:1052E000C02ED12C04E610E0E12CF12C8EE1A82E8A
:1052F000B12C6BE473E0C8010E94B40580914B03AC
:1053000090914C03019621F410924C0310924B03A0
:10531000C80102960E94C8058093B703C80103968E
:105320000E94C8058093B803C80104960E94C8056E
:105330008093B903B0924F08A0924E08D0925108C2
:10534000C0925008BFEFEB1AFB0AC7010E949418E5
:1053500087E293E00E94DE178091B7030E948217D4
:105360008091B8030E9482178091B9030E9482172E
:1053700085E293E00E94DE1760914B0370914C032D
:1053800080E090E04AE00E948D1710924C0310924A
:105390004B030B5F1F4FE8E0CE0ED11CF7E0EF167A
:1053A000F10409F0A6CF88E00E94771781111092CE
:1053B000630380E20E947717882319F085E08093C9
:1053C000630380913F08909140086FE070E00E9475
:1053D000272F892B79F40E9472189C0140E050E03D
:1053E00060E070E381E190E00E94C42E3093B60348
:1053F0002093B50384E690E090934F0880934E0885
:1054000082E390E0909351088093500864C080E25A
:1054100090E090934F0880934E088EE190E0909337
:1054200051088093500882E0809354088FE193E004
:105430000E94DE1784E00E947717882319F081E02C
:105440008093630388E00E94771781110E94E10531
:1054500080E80E947717811105C080E10E947717CC
:10546000882389F080914503882309F449C30E9469
:10547000D1146091450382E090E09A838983CE0144
:1054800001960E94FF0D80913F089091400864E1D1
:1054900070E00E94272F892B79F40E9472189C01DA
:1054A00040E050E060E070E381E190E00E94C42EB3
:1054B0003093B6032093B50384E690E090934F08B1
:1054C00080934E0882E390E09093510880935008B7
:1054D00081E0809354086091B5037091B60380E039
:1054E00090E04AE00E948D1778C00EE010E0109323
:1054F0004F0800934E0880E290E09093510880930B
:10550000500881E0809354088DE093E00E94DE17FC
:1055100010934F0800934E0888E290E09093510852
:10552000809350088BEF92E00E94DE170E94A31434
:105530008474843409F04BC0A4E6AA2EB12CB4E2E2
:10554000CB2ED12C10E2E12EF12C0E940C18D0921F
:105550004F08C0924E0800E210E0F0925108E0922D
:10556000500880EF92E00E94DE178CE398E00E94E2
:10557000AA04BA82A9826FEFCE0101960E94FF0DA4
:105580002FEFA21AB20A37E8A316B104F1F664EFBE
:1055900071E080E090E00E94171310934F08009391
:1055A0004E0810935108009350080E940C1884EE86
:1055B00092E00E94DE178CE398E00E94AA0468EE55
:1055C00073E080E090E00E9417131092630388E07C
:1055D0000E94771781111092630381E08093540831
:1055E00082E090E090934F0880934E0808E010E02E
:1055F000109351080093500860914B0370914C0335
:1056000080E090E04AE00E948D1780E290E0909365
:105610004F0880934E0810935108009350088091D2
:105620004A03082E000C990B0E94941888E790E01A
:1056300090934F0880934E081093510800935008A0
:1056400080915903082E000C990B0E9494186CE26B
:10565000E62EF12CF0924F08E0924E08109351087C
:1056600000935008809158030E9482178CE390E0C9
:1056700090934F0880934E08109351080093500860
:1056800080914903082E000C990B0E9494188EE417
:1056900090E090934F0880934E0810935108009328
:1056A000500880914803082E000C990B0E94941812
:1056B00080E690E090934F0880934E081093510835
:1056C0000093500880914703082E000C990B0E940C
:1056D00094188EE690E090934F0880934E081093B4
:1056E00051080093500880914D03082E000C990B2F
:1056F0000E94941804E610E010934F0800934E089F
:1057000078E1A72EB12CB0925108A0925008809158
:105710005003909151030E94941810934F080093E6
:105720004E08E2E2CE2ED12CD0925108C092500801
:1057300080915203909153030E94941810934F0844
:1057400000934E08F0925108E09250088091540363
:10575000909155030E94941810934F0800934E089F
:1057600006E310E01093510800935008809156030F
:10577000909157030E94941810924F0810924E086F
:10578000B0925108A092500880915A0390915B0307
:105790000E94941810924F0810924E08D09251080F
:1057A000C092500880915C0390915D030E94941810
:1057B00010924F0810924E08F0925108E092500853
:1057C00080915E0390915F030E94941810924F089D
:1057D00010924E0810935108009350088091600376
:1057E000909161030E9494188EE190E090934F088D
:1057F00080934E08F7E3EF2EF12CF0925108E092DF
:10580000500880914D0844E6849FC00111246091A6
:10581000430870E00E943B2FCB010E949418109324
:105820004F0800934E08F0925108E0925008809182
:105830004E0390914F030E94941880E590E090935E
:105840004F0880934E08F0925108E0925008609102
:10585000460370E080E090E04AE00E948D1780915E
:105860004503882309F443C042E06EE370E08DE70E
:1058700090E00E94D61442E06FE370E08DE790E084
:105880000E94D61421E04EE350E06DE770E08CE317
:1058900098E00E94B90421E04FE350E06DE770E02A
:1058A0008CE398E00E94B90421E04EE350E06EE7FB
:1058B00070E08CE398E00E94B90421E04FE350E0EF
:1058C0006EE770E08CE398E00E94B9042FE330E0CB
:1058D0004EE750E06BE370E08EE790E00E940B151E
:1058E00041E06CE370E08FE790E00E94920440E0BA
:1058F00054E068ED73E088ED97E00E9451138CE36B
:1059000098E00E94AA0480914108809342080E9476
:10591000A3148093410880E090E0892B11F40C944B
:10592000FC1A0E9400000C94FC1A0E948C040C9437
:10593000F51B642F042E000C770B80915803082E62
:10594000000C990B9C01220F331FF901EC54FD4F01
:10595000E49159E0569FD001579FB00D1124A359EF
:10596000BC4F54E1E502F00111241596FC93EE932F
:105970001497F901EB54FD4FE49164E1E602F00164
:1059800011241796FC93EE931697FC01EC5AFD4FE9
:10599000E49120915003309151032E0F311DE7FD0A
:1059A0003A9511963C932E93FC01E459FD4FE491F6
:1059B00080915203909153038E0F911DE7FD9A95AC
:1059C00013969C938E93129784E618968C934F5F50
:1059D00040934D0364E070E08CE494E00E948014F6
:1059E00064E070E080E090E00E94171364E070E0F3
:1059F00088EE93E00E94801464E070E080E090E024
:105A00000E94171364E070E084E893E00E94801421
:105A100064E070E080E090E00E94171364E070E0C2
:105A200080E293E00E94801464E070E080E090E007
:105A30000E94171364E070E08CEB92E00E948014E7
:105A400064E070E080E090E00E94171364E070E092
:105A500088E592E00E94801464E070E080E090E0CD
:105A60000E94171364E070E084EF91E00E948014BC
:105A700064E070E080E090E00E94171364E070E062
:105A800080E991E00E9480140C94F11E80EF8093D5
:105A9000460368EE7CE180E090E00E942C106058A4
:105AA0007A4D70935B0360935A0368E670E180E07F
:105AB00090E00E942C1060547D4E70935D036093C3
:105AC0005C0364E670E080E090E00E942C10DC0152
:105AD000CB01C297A109B10990935F0380935E0344
